{
    "contractName": "Sales",
    "abi": [
        {
            "inputs": [
                {
                    "internalType": "address",
                    "name": "_itemContract",
                    "type": "address"
                }
            ],
            "stateMutability": "nonpayable",
            "type": "constructor"
        },
        {
            "anonymous": false,
            "inputs": [
                {
                    "indexed": false,
                    "internalType": "uint256",
                    "name": "saleId",
                    "type": "uint256"
                },
                {
                    "indexed": false,
                    "internalType": "address",
                    "name": "buyer",
                    "type": "address"
                },
                {
                    "indexed": false,
                    "internalType": "uint256",
                    "name": "amount",
                    "type": "uint256"
                }
            ],
            "name": "ItemPurchased",
            "type": "event"
        },
        {
            "anonymous": false,
            "inputs": [
                {
                    "indexed": true,
                    "internalType": "address",
                    "name": "previousOwner",
                    "type": "address"
                },
                {
                    "indexed": true,
                    "internalType": "address",
                    "name": "newOwner",
                    "type": "address"
                }
            ],
            "name": "OwnershipTransferred",
            "type": "event"
        },
        {
            "anonymous": false,
            "inputs": [
                {
                    "indexed": false,
                    "internalType": "uint256",
                    "name": "saleId",
                    "type": "uint256"
                }
            ],
            "name": "SaleCreated",
            "type": "event"
        },
        {
            "inputs": [
                {
                    "internalType": "uint256",
                    "name": "saleId",
                    "type": "uint256"
                },
                {
                    "internalType": "uint256",
                    "name": "amount",
                    "type": "uint256"
                }
            ],
            "name": "buyItems",
            "outputs": [],
            "stateMutability": "nonpayable",
            "type": "function"
        },
        {
            "inputs": [
                {
                    "components": [
                        {
                            "internalType": "uint32",
                            "name": "startTime",
                            "type": "uint32"
                        },
                        {
                            "internalType": "uint32",
                            "name": "endTime",
                            "type": "uint32"
                        },
                        {
                            "internalType": "uint256",
                            "name": "rankRequired",
                            "type": "uint256"
                        },
                        {
                            "internalType": "uint256",
                            "name": "limit",
                            "type": "uint256"
                        },
                        {
                            "internalType": "uint256[]",
                            "name": "itemIds",
                            "type": "uint256[]"
                        },
                        {
                            "internalType": "uint256[]",
                            "name": "itemAmounts",
                            "type": "uint256[]"
                        },
                        {
                            "internalType": "address",
                            "name": "paymentTokenAddress",
                            "type": "address"
                        }
                    ],
                    "internalType": "struct Sales.SaleInput[]",
                    "name": "salesInputs",
                    "type": "tuple[]"
                }
            ],
            "name": "createTieredSales",
            "outputs": [],
            "stateMutability": "nonpayable",
            "type": "function"
        },
        {
            "inputs": [],
            "name": "itemContract",
            "outputs": [
                {
                    "internalType": "contract IERC1155",
                    "name": "",
                    "type": "address"
                }
            ],
            "stateMutability": "view",
            "type": "function"
        },
        {
            "inputs": [
                {
                    "internalType": "address",
                    "name": "",
                    "type": "address"
                }
            ],
            "name": "memberRank",
            "outputs": [
                {
                    "internalType": "uint256",
                    "name": "",
                    "type": "uint256"
                }
            ],
            "stateMutability": "view",
            "type": "function"
        },
        {
            "inputs": [],
            "name": "owner",
            "outputs": [
                {
                    "internalType": "address",
                    "name": "",
                    "type": "address"
                }
            ],
            "stateMutability": "view",
            "type": "function"
        },
        {
            "inputs": [],
            "name": "renounceOwnership",
            "outputs": [],
            "stateMutability": "nonpayable",
            "type": "function"
        },
        {
            "inputs": [
                {
                    "internalType": "uint256",
                    "name": "",
                    "type": "uint256"
                },
                {
                    "internalType": "address",
                    "name": "",
                    "type": "address"
                }
            ],
            "name": "saleStats",
            "outputs": [
                {
                    "internalType": "uint256",
                    "name": "",
                    "type": "uint256"
                }
            ],
            "stateMutability": "view",
            "type": "function"
        },
        {
            "inputs": [
                {
                    "internalType": "uint256",
                    "name": "",
                    "type": "uint256"
                }
            ],
            "name": "sales",
            "outputs": [
                {
                    "internalType": "uint32",
                    "name": "startTime",
                    "type": "uint32"
                },
                {
                    "internalType": "uint32",
                    "name": "endTime",
                    "type": "uint32"
                },
                {
                    "internalType": "uint256",
                    "name": "rankRequired",
                    "type": "uint256"
                },
                {
                    "internalType": "uint256",
                    "name": "limit",
                    "type": "uint256"
                },
                {
                    "internalType": "uint256",
                    "name": "predecessorSaleId",
                    "type": "uint256"
                },
                {
                    "internalType": "contract IERC20",
                    "name": "paymentToken",
                    "type": "address"
                }
            ],
            "stateMutability": "view",
            "type": "function"
        },
        {
            "inputs": [],
            "name": "salesCounter",
            "outputs": [
                {
                    "internalType": "uint256",
                    "name": "",
                    "type": "uint256"
                }
            ],
            "stateMutability": "view",
            "type": "function"
        },
        {
            "inputs": [
                {
                    "internalType": "address",
                    "name": "newOwner",
                    "type": "address"
                }
            ],
            "name": "transferOwnership",
            "outputs": [],
            "stateMutability": "nonpayable",
            "type": "function"
        },
        {
            "inputs": [
                {
                    "internalType": "uint256",
                    "name": "saleId",
                    "type": "uint256"
                }
            ],
            "name": "viewSale",
            "outputs": [
                {
                    "components": [
                        {
                            "internalType": "uint32",
                            "name": "startTime",
                            "type": "uint32"
                        },
                        {
                            "internalType": "uint32",
                            "name": "endTime",
                            "type": "uint32"
                        },
                        {
                            "internalType": "uint256",
                            "name": "rankRequired",
                            "type": "uint256"
                        },
                        {
                            "internalType": "uint256",
                            "name": "limit",
                            "type": "uint256"
                        },
                        {
                            "internalType": "uint256",
                            "name": "predecessorSaleId",
                            "type": "uint256"
                        },
                        {
                            "internalType": "uint256[]",
                            "name": "itemIds",
                            "type": "uint256[]"
                        },
                        {
                            "internalType": "uint256[]",
                            "name": "itemAmounts",
                            "type": "uint256[]"
                        },
                        {
                            "internalType": "contract IERC20",
                            "name": "paymentToken",
                            "type": "address"
                        }
                    ],
                    "internalType": "struct Sales.Sale[]",
                    "name": "sales_",
                    "type": "tuple[]"
                }
            ],
            "stateMutability": "view",
            "type": "function"
        }
    ],
    "bytecode": "608060405234801561001057600080fd5b5060405161108638038061108683398101604081905261002f916100ad565b6100383361005d565b600580546001600160a01b0319166001600160a01b03929092169190911790556100dd565b600080546001600160a01b038381166001600160a01b0319831681178455604051919092169283917f8be0079c531659141344cd1fd0a4f28419497f9722a3daafe3b4186f6b6457e09190a35050565b6000602082840312156100bf57600080fd5b81516001600160a01b03811681146100d657600080fd5b9392505050565b610f9a806100ec6000396000f3fe608060405234801561001057600080fd5b50600436106100a95760003560e01c80637f37b905116100715780637f37b9051461013c5780638d76f940146101455780638da5cb5b14610170578063b5f522f714610181578063eab536fc14610218578063f2fde38b1461023857600080fd5b806321d7dc3d146100ae5780633043378f146100c357806361772c7b146100d6578063715018a614610114578063719507411461011c575b600080fd5b6100c16100bc366004610bf3565b61024b565b005b6100c16100d1366004610c15565b61065e565b6101016100e4366004610ca6565b600460209081526000928352604080842090915290825290205481565b6040519081526020015b60405180910390f35b6100c16106dd565b61012f61012a366004610cd2565b6106f1565b60405161010b9190610d26565b61010160015481565b600554610158906001600160a01b031681565b6040516001600160a01b03909116815260200161010b565b6000546001600160a01b0316610158565b6101da61018f366004610cd2565b60036020819052600091825260409091208054600182015460028301549383015460069093015463ffffffff808416956401000000009094041693919291906001600160a01b031686565b6040805163ffffffff978816815296909516602087015293850192909252606084015260808301526001600160a01b031660a082015260c00161010b565b610101610226366004610e14565b60026020526000908152604090205481565b6100c1610246366004610e14565b610771565b6000828152600360205260409020805463ffffffff16421080159061027f57508054640100000000900463ffffffff164211155b6102c25760405162461bcd60e51b815260206004820152600f60248201526e53616c65206e6f742061637469766560881b60448201526064015b60405180910390fd5b60018101543360009081526002602052604090205410156103195760405162461bcd60e51b8152602060048201526011602482015270496e73756666696369656e742072616e6b60781b60448201526064016102b9565b60028101546000848152600460209081526040808320338452909152902054610343908490610e4c565b11156103815760405162461bcd60e51b815260206004820152600d60248201526c115e18d959591cc81b1a5b5a5d609a1b60448201526064016102b9565b6003810154156103f657600381015460009081526004602090815260408083203384529091529020546103f65760405162461bcd60e51b815260206004820152601b60248201527f5072656465636573736f722073616c65206e6f7420626f75676874000000000060448201526064016102b9565b600681015482906001600160a01b03166323b872dd3361041e6000546001600160a01b031690565b6040516001600160e01b031960e085901b1681526001600160a01b03928316600482015291166024820152604481018490526064016020604051808303816000875af1158015610472573d6000803e3d6000fd5b505050506040513d601f19601f820116820180604052508101906104969190610e65565b6104d35760405162461bcd60e51b815260206004820152600e60248201526d14185e5b595b9d0819985a5b195960921b60448201526064016102b9565b60005b60048301548110156105e95760008360040182815481106104f9576104f9610e87565b9060005260206000200154905060008585600501848154811061051e5761051e610e87565b90600052602060002001546105339190610e9d565b6005549091506001600160a01b031663f242432a6105596000546001600160a01b031690565b6040516001600160e01b031960e084901b1681526001600160a01b039091166004820152336024820152604481018590526064810184905260a06084820152600060a482015260c401600060405180830381600087803b1580156105bc57600080fd5b505af11580156105d0573d6000803e3d6000fd5b50505050505080806105e190610eb4565b9150506104d6565b50600084815260046020908152604080832033845290915281208054859290610613908490610e4c565b9091555050604080518581523360208201529081018490527f78a0660bbda86d17037943644187f6f1f73f2f20a3240bf4cf4a56c2a96bcf849060600160405180910390a150505050565b6106666107ea565b600154819060005b828110156106d4576000610683836001610e4c565b90506106c08187878581811061069b5761069b610e87565b90506020028101906106ad9190610ecd565b84156106b95785610844565b6000610844565b9150806106cc81610eb4565b91505061066e565b50600155505050565b6106e56107ea565b6106ef6000610b43565b565b600081815260036020526040902054606090640100000000900463ffffffff1661075d5760405162461bcd60e51b815260206004820152601760248201527f53616c65206d757374206861766520657869737465642e00000000000000000060448201526064016102b9565b60008281526003602052604090205b61076c565b6107796107ea565b6001600160a01b0381166107de5760405162461bcd60e51b815260206004820152602660248201527f4f776e61626c653a206e6577206f776e657220697320746865207a65726f206160448201526564647265737360d01b60648201526084016102b9565b6107e781610b43565b50565b6000546001600160a01b031633146106ef5760405162461bcd60e51b815260206004820181905260248201527f4f776e61626c653a2063616c6c6572206973206e6f7420746865206f776e657260448201526064016102b9565b61085160a0830183610eed565b90506108606080840184610eed565b9050146108c65760405162461bcd60e51b815260206004820152602e60248201527f4974656d2049447320616e6420616d6f756e7473206d7573742068617665207460448201526d0d0ca40e6c2daca40d8cadccee8d60931b60648201526084016102b9565b6108d36020830183610f3e565b63ffffffff166108e96040840160208501610f3e565b63ffffffff161161094d5760405162461bcd60e51b815260206004820152602860248201527f456e642074696d65206d7573742062652067726561746572207468616e2073746044820152676172742074696d6560c01b60648201526084016102b9565b604080516101008101909152806109676020850185610f3e565b63ffffffff1681526020018360200160208101906109859190610f3e565b63ffffffff16815260200183604001358152602001836060013581526020018281526020018380608001906109ba9190610eed565b808060200260200160405190810160405280939291908181526020018383602002808284376000920191909152505050908252506020016109fe60a0850185610eed565b80806020026020016040519081016040528093929190818152602001838360200280828437600092019190915250505090825250602001610a4560e0850160c08601610e14565b6001600160a01b03169052600084815260036020818152604092839020845181548684015163ffffffff9081166401000000000267ffffffffffffffff199092169216919091171781559284015160018401556060840151600284015560808401519183019190915560a08301518051610ac59260048501920190610b93565b5060c08201518051610ae1916005840191602090910190610b93565b5060e09190910151600690910180546001600160a01b0319166001600160a01b039092169190911790556040518381527f0f67e8677c172d56c079c18dcff5c9904d5ff20e6b5453eafe5f8dcc7ed6a0089060200160405180910390a1505050565b600080546001600160a01b038381166001600160a01b0319831681178455604051919092169283917f8be0079c531659141344cd1fd0a4f28419497f9722a3daafe3b4186f6b6457e09190a35050565b828054828255906000526020600020908101928215610bce579160200282015b82811115610bce578251825591602001919060010190610bb3565b50610bda929150610bde565b5090565b5b80821115610bda5760008155600101610bdf565b60008060408385031215610c0657600080fd5b50508035926020909101359150565b60008060208385031215610c2857600080fd5b823567ffffffffffffffff80821115610c4057600080fd5b818501915085601f830112610c5457600080fd5b813581811115610c6357600080fd5b8660208260051b8501011115610c7857600080fd5b60209290920196919550909350505050565b80356001600160a01b0381168114610ca157600080fd5b919050565b60008060408385031215610cb957600080fd5b82359150610cc960208401610c8a565b90509250929050565b600060208284031215610ce457600080fd5b5035919050565b600081518084526020808501945080840160005b83811015610d1b57815187529582019590820190600101610cff565b509495945050505050565b60006020808301818452808551808352604092508286019150828160051b87010184880160005b83811015610e0657603f19898403018552815161010063ffffffff825116855288820151610d828a87018263ffffffff169052565b508188015185890152606080830151908601526080808301519086015260a080830151818701839052610db783880182610ceb565b9250505060c08083015186830382880152610dd28382610ceb565b9250505060e0808301519250610df2818701846001600160a01b03169052565b509588019593505090860190600101610d4d565b509098975050505050505050565b600060208284031215610e2657600080fd5b610e2f82610c8a565b9392505050565b634e487b7160e01b600052601160045260246000fd5b80820180821115610e5f57610e5f610e36565b92915050565b600060208284031215610e7757600080fd5b81518015158114610e2f57600080fd5b634e487b7160e01b600052603260045260246000fd5b8082028115828204841417610e5f57610e5f610e36565b600060018201610ec657610ec6610e36565b5060010190565b6000823560de19833603018112610ee357600080fd5b9190910192915050565b6000808335601e19843603018112610f0457600080fd5b83018035915067ffffffffffffffff821115610f1f57600080fd5b6020019150600581901b3603821315610f3757600080fd5b9250929050565b600060208284031215610f5057600080fd5b813563ffffffff81168114610e2f57600080fdfea2646970667358221220f653fe6978faed5399fa8859fe7e71936254db9f64c7b6733626654415d2cb2364736f6c63430008130033",
    "sourcePath": "/home/joe/Documents/EcoSystem1/contracts/facets/Sales.sol",
    "compiler": {
        "name": "solc",
        "version": "0.8.19+commit.7dd6d404"
    },
    "functionHashes": {
        "buyItems(uint256,uint256)": "21d7dc3d",
        "createTieredSales((uint32,uint32,uint256,uint256,uint256[],uint256[],address)[])": "3043378f",
        "itemContract()": "8d76f940",
        "memberRank(address)": "eab536fc",
        "owner()": "8da5cb5b",
        "renounceOwnership()": "715018a6",
        "saleStats(uint256,address)": "61772c7b",
        "sales(uint256)": "b5f522f7",
        "salesCounter()": "7f37b905",
        "transferOwnership(address)": "f2fde38b",
        "viewSale(uint256)": "71950741"
    },
    "gasEstimates": {
        "creation": {
            "codeDepositCost": "798800",
            "executionCost": "infinite",
            "totalCost": "infinite"
        },
        "external": {
            "buyItems(uint256,uint256)": "infinite",
            "createTieredSales((uint32,uint32,uint256,uint256,uint256[],uint256[],address)[])": "infinite",
            "itemContract()": "2359",
            "memberRank(address)": "2596",
            "owner()": "2375",
            "renounceOwnership()": "infinite",
            "saleStats(uint256,address)": "2651",
            "sales(uint256)": "11146",
            "salesCounter()": "2284",
            "transferOwnership(address)": "28443",
            "viewSale(uint256)": "infinite"
        },
        "internal": {
            "createSale(uint256,struct Sales.SaleInput calldata,uint256)": "infinite"
        }
    }
}