{
  "address": "0xbD304DA71DddEc95DE6e5819d4A43fb382E6fB1e",
  "abi": [
    {
      "inputs": [],
      "name": "init",
      "outputs": [],
      "stateMutability": "nonpayable",
      "type": "function"
    }
  ],
  "transactionHash": "0x462d4757fcf5203d99a77d79631c6bcbaf49f7d929b0355088e08a079f16b3e3",
  "args": [],
  "numDeployments": 1,
  "solcInputHash": "54a7063fbd1377e55e2032f74c4aa199",
  "bytecode": "0x6080604052348015600e575f5ffd5b5061016e8061001c5f395ff3fe608060405234801561000f575f5ffd5b5060043610610029575f3560e01c8063e1c7392a1461002d575b5f5ffd5b6101367fc8fcad8db84d3cc18b4c41d551ea0ee66dd599cde068d998e57d5e09332c131f6020527f699d9daa71b280d05a152715774afa0a81a312594b2d731d6b0b2552b7d6f69f8054600160ff1991821681179092557ff97e938d8af42f52387bb74b8b526fda8f184cc2aa534340a8d75a88fbecc77580548216831790557f65d510a5d8f7ef134ec444f7f34ee808c8eeb5177cdfd16be0c40fe1ab43369580548216831790557f5622121b47b8cd0120c4efe45dd5483242f54a3d49bd7679be565d47694918c38054821683179055632444e55160e21b5f527ff67fcea9b5bce34e31d67109bf05edfb565d41216b0004b5658f701e961765bc80549091169091179055565b00fea26469706673582212209f98e8db7c5cd3ac7f96c1d5d9db6097a501fe0ffa504ab6a799043f6d8a8cd164736f6c634300081c0033",
  "devdoc": {
    "kind": "dev",
    "methods": {},
    "version": 1
  },
  "userdoc": {
    "kind": "user",
    "methods": {},
    "version": 1
  },
  "storageLayout": {
    "storage": [],
    "types": null
  }
}