{
  "address": "0x786A87ec30d3f369eeE91Ce6D2E197923c7E5C8A",
  "abi": [
    {
      "inputs": [
        {
          "internalType": "address",
          "name": "registry",
          "type": "address"
        },
        {
          "internalType": "bytes",
          "name": "_bytecode",
          "type": "bytes"
        }
      ],
      "stateMutability": "nonpayable",
      "type": "constructor"
    },
    {
      "inputs": [
        {
          "internalType": "address",
          "name": "owner",
          "type": "address"
        },
        {
          "internalType": "uint256",
          "name": "_salt",
          "type": "uint256"
        },
        {
          "internalType": "bytes",
          "name": "_bytecode",
          "type": "bytes"
        },
        {
          "components": [
            {
              "internalType": "address",
              "name": "facetAddress",
              "type": "address"
            },
            {
              "internalType": "enum IDiamondCut.FacetCutAction",
              "name": "action",
              "type": "uint8"
            },
            {
              "internalType": "bytes4[]",
              "name": "functionSelectors",
              "type": "bytes4[]"
            }
          ],
          "internalType": "struct IDiamondCut.FacetCut[]",
          "name": "_facetCuts",
          "type": "tuple[]"
        }
      ],
      "name": "deploy",
      "outputs": [
        {
          "internalType": "address",
          "name": "diamond_",
          "type": "address"
        }
      ],
      "stateMutability": "nonpayable",
      "type": "function"
    },
    {
      "inputs": [],
      "name": "registryAddress",
      "outputs": [
        {
          "internalType": "address",
          "name": "",
          "type": "address"
        }
      ],
      "stateMutability": "view",
      "type": "function"
    }
  ],
  "transactionHash": "0xc65711f57bb579e2825c97344780c86dc3c7d68b73b0b68bb653736dd3329e71",
  "args": [
    "0xeb4a99A826c7e16e0565504e54073E4551de6588",
    "0x60806040526040516114d83803806114d883398101604081905261002291610edd565b7fd00049dc7109015045860694acecd3dc33338404aaf6e55a1c98a2bf41477b8680546001600160a01b0319166001600160a01b0384161790556100658361008c565b610084815f60405180602001604052805f8152506100fc60201b60201c565b5050506112a8565b7fd00049dc7109015045860694acecd3dc33338404aaf6e55a1c98a2bf41477b8580546001600160a01b031981166001600160a01b03848116918217845560405192169182907f8be0079c531659141344cd1fd0a4f28419497f9722a3daafe3b4186f6b6457e0905f90a3505050565b5f5b83518110156102c9575f84828151811061011a5761011a611082565b60200260200101516020015190505f600281111561013a5761013a611096565b81600281111561014c5761014c611096565b0361019f5761019a85838151811061016657610166611082565b60200260200101515f015186848151811061018357610183611082565b60200260200101516040015161031460201b60201c565b6102c0565b60018160028111156101b3576101b3611096565b036102015761019a8583815181106101cd576101cd611082565b60200260200101515f01518684815181106101ea576101ea611082565b60200260200101516040015161057c60201b60201c565b600281600281111561021557610215611096565b036102635761019a85838151811061022f5761022f611082565b60200260200101515f015186848151811061024c5761024c611082565b6020026020010151604001516107ed60201b60201c565b60405162461bcd60e51b815260206004820152602760248201527f4c69624469616d6f6e644375743a20496e636f727265637420466163657443756044820152663a20b1ba34b7b760c91b60648201526084015b60405180910390fd5b506001016100fe565b507f8faa70878671ccd212d20771b795c50af8fd3ff6cf27f4bde57e5d4de0aeb6738383836040516102fd939291906110d8565b60405180910390a161030f8282610933565b505050565b5f8151116103655760405162461bcd60e51b815260206004820152602b60248201525f5160206114b85f395f51905f5260448201526a1858d95d081d1bc818dd5d60aa1b60648201526084016102b7565b5f51602061142c5f395f51905f526001600160a01b0383166103cb5760405162461bcd60e51b815260206004820152602c60248201525f5160206114745f395f51905f5260448201526b65206164647265737328302960a01b60648201526084016102b7565b6001600160a01b0383165f908152600182016020526040812054906001600160601b03821690036104005761040082856109f5565b5f5b8351811015610575575f84828151811061041e5761041e611082565b6020908102919091018101516001600160e01b031981165f908152918690526040909120549091506001600160a01b031680156104c35760405162461bcd60e51b815260206004820152603560248201527f4c69624469616d6f6e644375743a2043616e2774206164642066756e6374696f60448201527f6e207468617420616c726561647920657869737473000000000000000000000060648201526084016102b7565b6001600160e01b031982165f8181526020878152604080832080546001600160a01b03908116600160a01b6001600160601b038c16021782558c168085526001808c0185529285208054938401815585528385206008840401805463ffffffff60079095166004026101000a948502191660e08a901c94909402939093179092559390925287905281546001600160a01b03191617905583610564816111f6565b945050600190920191506104029050565b5050505050565b5f8151116105cd5760405162461bcd60e51b815260206004820152602b60248201525f5160206114b85f395f51905f5260448201526a1858d95d081d1bc818dd5d60aa1b60648201526084016102b7565b5f51602061142c5f395f51905f526001600160a01b0383166106335760405162461bcd60e51b815260206004820152602c60248201525f5160206114745f395f51905f5260448201526b65206164647265737328302960a01b60648201526084016102b7565b6001600160a01b0383165f908152600182016020526040812054906001600160601b03821690036106685761066882856109f5565b5f5b8351811015610575575f84828151811061068657610686611082565b6020908102919091018101516001600160e01b031981165f908152918690526040909120549091506001600160a01b0390811690871681036107305760405162461bcd60e51b815260206004820152603860248201527f4c69624469616d6f6e644375743a2043616e2774207265706c6163652066756e60448201527f6374696f6e20776974682073616d652066756e6374696f6e000000000000000060648201526084016102b7565b61073b858284610a5e565b6001600160e01b031982165f8181526020878152604080832080546001600160a01b03908116600160a01b6001600160601b038c16021782558c168085526001808c0185529285208054938401815585528385206008840401805463ffffffff60079095166004026101000a948502191660e08a901c94909402939093179092559390925287905281546001600160a01b031916179055836107dc816111f6565b9450506001909201915061066a9050565b5f81511161083e5760405162461bcd60e51b815260206004820152602b60248201525f5160206114b85f395f51905f5260448201526a1858d95d081d1bc818dd5d60aa1b60648201526084016102b7565b5f51602061142c5f395f51905f526001600160a01b038316156108c95760405162461bcd60e51b815260206004820152603660248201527f4c69624469616d6f6e644375743a2052656d6f7665206661636574206164647260448201527f657373206d75737420626520616464726573732830290000000000000000000060648201526084016102b7565b5f5b825181101561092d575f8382815181106108e7576108e7611082565b6020908102919091018101516001600160e01b031981165f908152918590526040909120549091506001600160a01b0316610923848284610a5e565b50506001016108cb565b50505050565b6001600160a01b038216610945575050565b6109678260405180606001604052806028815260200161144c60289139610e13565b5f5f836001600160a01b0316836040516109819190611221565b5f60405180830381855af49150503d805f81146109b9576040519150601f19603f3d011682016040523d82523d5f602084013e6109be565b606091505b50915091508161092d578051156109d85780518082602001fd5b838360405163192105d760e01b81526004016102b7929190611237565b610a178160405180606001604052806024815260200161149460249139610e13565b6002820180546001600160a01b039092165f8181526001948501602090815260408220860185905594840183559182529290200180546001600160a01b0319169091179055565b6001600160a01b038216610ada5760405162461bcd60e51b815260206004820152603760248201527f4c69624469616d6f6e644375743a2043616e27742072656d6f76652066756e6360448201527f74696f6e207468617420646f65736e277420657869737400000000000000000060648201526084016102b7565b306001600160a01b03831603610b495760405162461bcd60e51b815260206004820152602e60248201527f4c69624469616d6f6e644375743a2043616e27742072656d6f766520696d6d7560448201526d3a30b1363290333ab731ba34b7b760911b60648201526084016102b7565b6001600160e01b031981165f90815260208481526040808320546001600160a01b0386168452600180880190935290832054600160a01b9091046001600160601b03169291610b9791611262565b9050808214610c86576001600160a01b0384165f9081526001860160205260408120805483908110610bcb57610bcb611082565b5f91825260208083206008830401546001600160a01b038916845260018a019091526040909220805460079092166004026101000a90920460e01b925082919085908110610c1b57610c1b611082565b5f91825260208083206008830401805463ffffffff60079094166004026101000a938402191660e09590951c929092029390931790556001600160e01b03199290921682528690526040902080546001600160a01b0316600160a01b6001600160601b038516021790555b6001600160a01b0384165f9081526001860160205260409020805480610cae57610cae61127b565b5f828152602080822060085f1990940193840401805463ffffffff600460078716026101000a0219169055919092556001600160e01b031985168252869052604081208190558190036105755760028501545f90610d0e90600190611262565b6001600160a01b0386165f908152600180890160205260409091200154909150808214610db9575f876002018381548110610d4b57610d4b611082565b5f918252602090912001546002890180546001600160a01b039092169250829184908110610d7b57610d7b611082565b5f91825260208083209190910180546001600160a01b0319166001600160a01b03948516179055929091168152600189810190925260409020018190555b86600201805480610dcc57610dcc61127b565b5f828152602080822083015f1990810180546001600160a01b03191690559092019092556001600160a01b0388168252600189810190915260408220015550505050505050565b813b818161092d5760405162461bcd60e51b81526004016102b7919061128f565b80516001600160a01b0381168114610e4a575f5ffd5b919050565b634e487b7160e01b5f52604160045260245ffd5b604051606081016001600160401b0381118282101715610e8557610e85610e4f565b60405290565b604051601f8201601f191681016001600160401b0381118282101715610eb357610eb3610e4f565b604052919050565b5f6001600160401b03821115610ed357610ed3610e4f565b5060051b60200190565b5f5f5f60608486031215610eef575f5ffd5b610ef884610e34565b9250610f0660208501610e34565b60408501519092506001600160401b03811115610f21575f5ffd5b8401601f81018613610f31575f5ffd5b8051610f44610f3f82610ebb565b610e8b565b8082825260208201915060208360051b850101925088831115610f65575f5ffd5b602084015b838110156110735780516001600160401b03811115610f87575f5ffd5b85016060818c03601f19011215610f9c575f5ffd5b610fa4610e63565b610fb060208301610e34565b8152604082015160038110610fc3575f5ffd5b602082015260608201516001600160401b03811115610fe0575f5ffd5b6020818401019250508b601f830112610ff7575f5ffd5b8151611005610f3f82610ebb565b8082825260208201915060208360051b86010192508e831115611026575f5ffd5b6020850194505b8285101561105d5784516001600160e01b03198116811461104c575f5ffd5b82526020948501949091019061102d565b6040840152505084525060209283019201610f6a565b50809450505050509250925092565b634e487b7160e01b5f52603260045260245ffd5b634e487b7160e01b5f52602160045260245ffd5b5f81518084528060208401602086015e5f602082860101526020601f19601f83011685010191505092915050565b5f606082016060835280865180835260808501915060808160051b8601019250602088015f5b828110156111b357868503607f19018452815180516001600160a01b03168652602081015160608701906003811061114457634e487b7160e01b5f52602160045260245ffd5b8060208901525060408201519150606060408801528082518083526080890191506020840193505f92505b8083101561119b5783516001600160e01b0319168252602093840193600193909301929091019061116f565b509650505060209384019391909101906001016110fe565b5050506001600160a01b03861660208501525082810360408401526111d881856110aa565b9695505050505050565b634e487b7160e01b5f52601160045260245ffd5b5f6001600160601b0382166002600160601b03198101611218576112186111e2565b60010192915050565b5f82518060208501845e5f920191825250919050565b6001600160a01b03831681526040602082018190525f9061125a908301846110aa565b949350505050565b81810381811115611275576112756111e2565b92915050565b634e487b7160e01b5f52603160045260245ffd5b602081525f6112a160208301846110aa565b9392505050565b610177806112b55f395ff3fe60806040523661000b57005b7fc8fcad8db84d3cc18b4c41d551ea0ee66dd599cde068d998e57d5e09332c131c806100416001600160e01b03195f35166100d2565b5f80356001600160e01b0319168152602083905260409020546001600160a01b0316806100b45760405162461bcd60e51b815260206004820181905260248201527f4469616d6f6e643a2046756e6374696f6e20646f6573206e6f74206578697374604482015260640160405180910390fd5b365f5f375f5f365f845af43d5f5f3e8080156100ce573d5ff35b3d5ffd5b6040516001600160e01b03198216602482015261011b9060440160408051601f198184030181529190526020810180516001600160e01b031663e05f48d160e01b17905261011e565b50565b61011b815f6a636f6e736f6c652e6c6f6790505f5f835160208501845afa50505056fea26469706673582212200fa27e8000a8b80686d3253728a64573b6655ee524bc8e2b4756a2fc99f8913e64736f6c634300081c0033c8fcad8db84d3cc18b4c41d551ea0ee66dd599cde068d998e57d5e09332c131c4c69624469616d6f6e644375743a205f696e6974206164647265737320686173206e6f20636f64654c69624469616d6f6e644375743a204164642066616365742063616e277420624c69624469616d6f6e644375743a204e657720666163657420686173206e6f20636f64654c69624469616d6f6e644375743a204e6f2073656c6563746f727320696e2066"
  ],
  "numDeployments": 1,
  "solcInputHash": "54a7063fbd1377e55e2032f74c4aa199",
  "bytecode": "0x60806040525f805460ff60a01b1916905534801561001b575f5ffd5b5060405161077a38038061077a83398101604081905261003a9161007e565b5f80546001600160a01b0319166001600160a01b039390931692909217909155805160209091012060015561014d565b634e487b7160e01b5f52604160045260245ffd5b5f5f6040838503121561008f575f5ffd5b82516001600160a01b03811681146100a5575f5ffd5b60208401519092506001600160401b038111156100c0575f5ffd5b8301601f810185136100d0575f5ffd5b80516001600160401b038111156100e9576100e961006a565b604051601f8201601f19908116603f011681016001600160401b03811182821017156101175761011761006a565b60405281815282820160200187101561012e575f5ffd5b8160208401602083015e5f602083830101528093505050509250929050565b6106208061015a5f395ff3fe608060405234801561000f575f5ffd5b5060043610610034575f3560e01c8063ed9aab5114610038578063f4615e3b14610066575b5f5ffd5b5f5461004a906001600160a01b031681565b6040516001600160a01b03909116815260200160405180910390f35b61004a6100743660046103bf565b5f5f6001548585604051610089929190610471565b6040518091039020146101175760405162461bcd60e51b815260206004820152604660248201527f42797465636f6465206d757374206d617463682074686174206f66207468652060448201527f4469616d6f6e64206173736f6369617465642077697468207468697320636f6e6064820152653a3930b1ba1760d11b608482015260a40160405180910390fd5b5f87338560405160200161012d93929190610480565b60405160208183030381529060405290505f86868360405160200161015493929190610599565b60405160208183030381529060405290505f33898460405160200161017b939291906105b8565b604051602081830303815290604052805190602001209050808251602084015ff59350833b6101a8575f5ffd5b509198975050505050505050565b80356001600160a01b03811681146101cc575f5ffd5b919050565b634e487b7160e01b5f52604160045260245ffd5b6040516060810167ffffffffffffffff81118282101715610208576102086101d1565b60405290565b604051601f8201601f1916810167ffffffffffffffff81118282101715610237576102376101d1565b604052919050565b5f67ffffffffffffffff821115610258576102586101d1565b5060051b60200190565b5f82601f830112610271575f5ffd5b813561028461027f8261023f565b61020e565b8082825260208201915060208360051b8601019250858311156102a5575f5ffd5b602085015b838110156103b557803567ffffffffffffffff8111156102c8575f5ffd5b86016060818903601f190112156102dd575f5ffd5b6102e56101e5565b6102f1602083016101b6565b8152604082013560038110610304575f5ffd5b6020820152606082013567ffffffffffffffff811115610322575f5ffd5b60208184010192505088601f830112610339575f5ffd5b813561034761027f8261023f565b8082825260208201915060208360051b86010192508b831115610368575f5ffd5b6020850194505b8285101561039f5784356001600160e01b03198116811461038e575f5ffd5b82526020948501949091019061036f565b60408401525050845250602092830192016102aa565b5095945050505050565b5f5f5f5f5f608086880312156103d3575f5ffd5b6103dc866101b6565b945060208601359350604086013567ffffffffffffffff8111156103fe575f5ffd5b8601601f8101881361040e575f5ffd5b803567ffffffffffffffff811115610424575f5ffd5b886020828401011115610435575f5ffd5b60209190910193509150606086013567ffffffffffffffff811115610458575f5ffd5b61046488828901610262565b9150509295509295909350565b818382375f9101908152919050565b6001600160a01b038481168252831660208083019190915260606040830181905283519083018190525f916080600583901b8501810192908501918601845b8281101561057457868503607f19018452815180516001600160a01b03168652602081015160608701906003811061050557634e487b7160e01b5f52602160045260245ffd5b8060208901525060408201519150606060408801528082518083526080890191506020840193505f92505b8083101561055c5783516001600160e01b03191682526020938401936001939093019290910190610530565b509650505060209384019391909101906001016104bf565b509298975050505050505050565b5f81518060208401855e5f93019283525090919050565b828482375f8382015f81526105ae8185610582565b9695505050505050565b6bffffffffffffffffffffffff198460601b1681528260148201525f6105e16034830184610582565b9594505050505056fea26469706673582212203fc7ae23b8e0b14d1582f07038dea7a70f167fcb7c56715cf80bc129cd8e8bda64736f6c634300081c0033",
  "devdoc": {
    "kind": "dev",
    "methods": {},
    "version": 1
  },
  "userdoc": {
    "kind": "user",
    "methods": {},
    "version": 1
  },
  "storageLayout": {
    "storage": [
      {
        "astId": 6846,
        "contract": "contracts/deploy/diamondDeploy.sol:DiamondDeploy",
        "label": "registryAddress",
        "offset": 0,
        "slot": "0",
        "type": "t_address"
      },
      {
        "astId": 6849,
        "contract": "contracts/deploy/diamondDeploy.sol:DiamondDeploy",
        "label": "isRegistrySet",
        "offset": 20,
        "slot": "0",
        "type": "t_bool"
      },
      {
        "astId": 6851,
        "contract": "contracts/deploy/diamondDeploy.sol:DiamondDeploy",
        "label": "bytecodeHash",
        "offset": 0,
        "slot": "1",
        "type": "t_bytes32"
      }
    ],
    "types": {
      "t_address": {
        "encoding": "inplace",
        "label": "address",
        "numberOfBytes": "20"
      },
      "t_bool": {
        "encoding": "inplace",
        "label": "bool",
        "numberOfBytes": "1"
      },
      "t_bytes32": {
        "encoding": "inplace",
        "label": "bytes32",
        "numberOfBytes": "32"
      }
    }
  }
}