{
  "address": "0x9389F124C171B60D6C86454E78617D2fb27E4BAb",
  "abi": [
    {
      "inputs": [
        {
          "internalType": "address",
          "name": "_initializationContractAddress",
          "type": "address"
        },
        {
          "internalType": "bytes",
          "name": "_calldata",
          "type": "bytes"
        }
      ],
      "name": "InitializationFunctionReverted",
      "type": "error"
    },
    {
      "inputs": [],
      "name": "MigrationAlreadyCompleted",
      "type": "error"
    },
    {
      "inputs": [],
      "name": "MigrationAlreadyInitiated",
      "type": "error"
    },
    {
      "inputs": [],
      "name": "MigrationNotInitiated",
      "type": "error"
    },
    {
      "anonymous": false,
      "inputs": [
        {
          "components": [
            {
              "internalType": "address",
              "name": "facetAddress",
              "type": "address"
            },
            {
              "internalType": "enum IDiamondCut.FacetCutAction",
              "name": "action",
              "type": "uint8"
            },
            {
              "internalType": "bytes4[]",
              "name": "functionSelectors",
              "type": "bytes4[]"
            }
          ],
          "indexed": false,
          "internalType": "struct IDiamondCut.FacetCut[]",
          "name": "_diamondCut",
          "type": "tuple[]"
        },
        {
          "indexed": false,
          "internalType": "address",
          "name": "_init",
          "type": "address"
        },
        {
          "indexed": false,
          "internalType": "bytes",
          "name": "_calldata",
          "type": "bytes"
        }
      ],
      "name": "DiamondCut",
      "type": "event"
    },
    {
      "anonymous": false,
      "inputs": [
        {
          "components": [
            {
              "internalType": "address",
              "name": "facetAddress",
              "type": "address"
            },
            {
              "internalType": "enum IDiamondCut.FacetCutAction",
              "name": "action",
              "type": "uint8"
            },
            {
              "internalType": "bytes4[]",
              "name": "functionSelectors",
              "type": "bytes4[]"
            }
          ],
          "indexed": false,
          "internalType": "struct IDiamondCut.FacetCut[]",
          "name": "_diamondCut",
          "type": "tuple[]"
        },
        {
          "indexed": false,
          "internalType": "address",
          "name": "_init",
          "type": "address"
        },
        {
          "indexed": false,
          "internalType": "bytes",
          "name": "_calldata",
          "type": "bytes"
        }
      ],
      "name": "DiamondCut",
      "type": "event"
    },
    {
      "anonymous": false,
      "inputs": [
        {
          "indexed": false,
          "internalType": "address",
          "name": "cancellor",
          "type": "address"
        },
        {
          "indexed": false,
          "internalType": "uint32",
          "name": "timeCancelled",
          "type": "uint32"
        }
      ],
      "name": "MigrationCancelled",
      "type": "event"
    },
    {
      "anonymous": false,
      "inputs": [
        {
          "indexed": false,
          "internalType": "address",
          "name": "initiatior",
          "type": "address"
        },
        {
          "indexed": false,
          "internalType": "uint32",
          "name": "timeInitiatied",
          "type": "uint32"
        }
      ],
      "name": "MigrationInitiated",
      "type": "event"
    },
    {
      "anonymous": false,
      "inputs": [
        {
          "indexed": false,
          "internalType": "address",
          "name": "oldOwner",
          "type": "address"
        },
        {
          "indexed": false,
          "internalType": "address",
          "name": "newOwner",
          "type": "address"
        }
      ],
      "name": "OwnershipChanged",
      "type": "event"
    },
    {
      "inputs": [],
      "name": "cancelMigration",
      "outputs": [],
      "stateMutability": "nonpayable",
      "type": "function"
    },
    {
      "inputs": [
        {
          "components": [
            {
              "internalType": "address",
              "name": "facetAddress",
              "type": "address"
            },
            {
              "internalType": "enum IDiamondCut.FacetCutAction",
              "name": "action",
              "type": "uint8"
            },
            {
              "internalType": "bytes4[]",
              "name": "functionSelectors",
              "type": "bytes4[]"
            }
          ],
          "internalType": "struct IDiamondCut.FacetCut[]",
          "name": "_diamondCut",
          "type": "tuple[]"
        },
        {
          "internalType": "address",
          "name": "_init",
          "type": "address"
        },
        {
          "internalType": "bytes",
          "name": "_calldata",
          "type": "bytes"
        }
      ],
      "name": "diamondCut",
      "outputs": [],
      "stateMutability": "nonpayable",
      "type": "function"
    },
    {
      "inputs": [],
      "name": "initiateMigration",
      "outputs": [],
      "stateMutability": "nonpayable",
      "type": "function"
    }
  ],
  "transactionHash": "0xf1afe8397f10a1a90a522f2d82c09423616b0ccdb8bb3dd1d2266c177e56b56b",
  "args": [],
  "numDeployments": 1,
  "solcInputHash": "54a7063fbd1377e55e2032f74c4aa199",
  "bytecode": "0x6080604052348015600e575f5ffd5b506117058061001c5f395ff3fe608060405234801561000f575f5ffd5b506004361061003f575f3560e01c806310639ea0146100435780631f931c1c1461004d5780635f4d490714610060575b5f5ffd5b61004b610068565b005b61004b61005b36600461110f565b61007a565b61004b6100d2565b6100706100e2565b610078610156565b565b61008261023e565b6100cb61008f8587611250565b8484848080601f0160208091040260200160405190810160405280939291908181526020018383808284375f9201919091525061037992505050565b5050505050565b6100da6100e2565b610078610575565b6100ea610639565b6001600160a01b03166100fb61065d565b6001600160a01b0316146100785760405162461bcd60e51b815260206004820152601b60248201527f4d757374206265207468652045636f73797374656d206f776e6572000000000060448201526064015b60405180910390fd5b7fd00049dc7109015045860694acecd3dc33338404aaf6e55a1c98a2bf41477b8780545f5160206116b05f395f51905f529190610100810463ffffffff169060ff1615610220576101a681610666565b156101c457604051633dbff3b560e01b815260040160405180910390fd5b815460ff191682557f0125003cabc73e492b36c5de7e1bada2b3ed6f148993ac56437d449c0e184df16101f561065d565b604080516001600160a01b03909216825263ffffffff421660208301520160405180910390a1505050565b604051636c161e5160e11b815260040160405180910390fd5b505050565b7fd00049dc7109015045860694acecd3dc33338404aaf6e55a1c98a2bf41477b8780545f5160206116b05f395f51905f52919060ff1680156102915750805461029190610100900463ffffffff16610666565b156103035781546001600160a01b03166102a961065d565b6001600160a01b0316146102ff5760405162461bcd60e51b815260206004820152601960248201527f53656e646572206d75737420626520746865206f776e65722e00000000000000604482015260640161014d565b5050565b60018201546001600160a01b031661031961065d565b6001600160a01b0316146102ff5760405162461bcd60e51b815260206004820152602160248201527f53656e646572206d7573742062652066726f6d207468652072656769737472796044820152601760f91b606482015260840161014d565b5f5b835181101561052f575f8482815181106103975761039761138b565b60200260200101516020015190505f60028111156103b7576103b761139f565b8160028111156103c9576103c961139f565b03610416576104118583815181106103e3576103e361138b565b60200260200101515f01518684815181106104005761040061138b565b602002602001015160400151610688565b610526565b600181600281111561042a5761042a61139f565b03610472576104118583815181106104445761044461138b565b60200260200101515f01518684815181106104615761046161138b565b602002602001015160400151610806565b60028160028111156104865761048661139f565b036104ce576104118583815181106104a0576104a061138b565b60200260200101515f01518684815181106104bd576104bd61138b565b60200260200101516040015161099c565b60405162461bcd60e51b815260206004820152602760248201527f4c69624469616d6f6e644375743a20496e636f727265637420466163657443756044820152663a20b1ba34b7b760c91b606482015260840161014d565b5060010161037b565b507f8faa70878671ccd212d20771b795c50af8fd3ff6cf27f4bde57e5d4de0aeb673838383604051610563939291906113e1565b60405180910390a16102398282610abd565b7fd00049dc7109015045860694acecd3dc33338404aaf6e55a1c98a2bf41477b8780545f5160206116b05f395f51905f52919060ff16156105c95760405163f86b5bf560e01b815260040160405180910390fd5b805463ffffffff42166101000264ffffffffff199091161760011781557fe84f152d8e8204dc46b1e48a81ce1ef3b594249669bf602c4b4defbe7b7fa9a961060f61065d565b604080516001600160a01b03909216825263ffffffff421660208301520160405180910390a15050565b5f6106585f5160206116b05f395f51905f52546001600160a01b031690565b905090565b5f610658610b7f565b5f63ffffffff821661067b6203f480426114ff565b63ffffffff161192915050565b5f8151116106a85760405162461bcd60e51b815260040161014d90611521565b7fc8fcad8db84d3cc18b4c41d551ea0ee66dd599cde068d998e57d5e09332c131c6001600160a01b0383166106ef5760405162461bcd60e51b815260040161014d9061156c565b6001600160a01b0383165f908152600182016020526040812054906001600160601b0382169003610724576107248285610bd1565b5f5b83518110156100cb575f8482815181106107425761074261138b565b6020908102919091018101516001600160e01b031981165f908152918690526040909120549091506001600160a01b031680156107df5760405162461bcd60e51b815260206004820152603560248201527f4c69624469616d6f6e644375743a2043616e2774206164642066756e6374696f6044820152746e207468617420616c72656164792065786973747360581b606482015260840161014d565b6107eb8583868a610c3a565b836107f5816115b8565b945050600190920191506107269050565b5f8151116108265760405162461bcd60e51b815260040161014d90611521565b7fc8fcad8db84d3cc18b4c41d551ea0ee66dd599cde068d998e57d5e09332c131c6001600160a01b03831661086d5760405162461bcd60e51b815260040161014d9061156c565b6001600160a01b0383165f908152600182016020526040812054906001600160601b03821690036108a2576108a28285610bd1565b5f5b83518110156100cb575f8482815181106108c0576108c061138b565b6020908102919091018101516001600160e01b031981165f908152918690526040909120549091506001600160a01b03908116908716810361096a5760405162461bcd60e51b815260206004820152603860248201527f4c69624469616d6f6e644375743a2043616e2774207265706c6163652066756e60448201527f6374696f6e20776974682073616d652066756e6374696f6e0000000000000000606482015260840161014d565b610975858284610cd9565b6109818583868a610c3a565b8361098b816115b8565b945050600190920191506108a49050565b5f8151116109bc5760405162461bcd60e51b815260040161014d90611521565b7fc8fcad8db84d3cc18b4c41d551ea0ee66dd599cde068d998e57d5e09332c131c6001600160a01b03831615610a535760405162461bcd60e51b815260206004820152603660248201527f4c69624469616d6f6e644375743a2052656d6f76652066616365742061646472604482015275657373206d757374206265206164647265737328302960501b606482015260840161014d565b5f5b8251811015610ab7575f838281518110610a7157610a7161138b565b6020908102919091018101516001600160e01b031981165f908152918590526040909120549091506001600160a01b0316610aad848284610cd9565b5050600101610a55565b50505050565b6001600160a01b038216610acf575050565b610af1826040518060600160405280602881526020016116646028913961108e565b5f5f836001600160a01b031683604051610b0b91906115e2565b5f60405180830381855af49150503d805f8114610b43576040519150601f19603f3d011682016040523d82523d5f602084013e610b48565b606091505b509150915081610ab757805115610b625780518082602001fd5b838360405163192105d760e01b815260040161014d9291906115f8565b5f60143610801590610bba57507f413a4c31c13c7c3de0c7da37be5d779b152baf3f21a1cb760fda41eb8ca97776546001600160a01b031633145b15610bcc575060131936013560601c90565b503390565b610bf38160405180606001604052806024815260200161168c6024913961108e565b6002820180546001600160a01b039092165f8181526001948501602090815260408220860185905594840183559182529290200180546001600160a01b0319169091179055565b6001600160e01b031983165f8181526020868152604080832080546001600160601b03909716600160a01b026001600160a01b0397881617815594909516808352600180890183529583208054968701815583528183206008870401805460e09890981c60046007909816979097026101000a96870263ffffffff9097021990971695909517909555529290915281546001600160a01b031916179055565b6001600160a01b038216610d555760405162461bcd60e51b815260206004820152603760248201527f4c69624469616d6f6e644375743a2043616e27742072656d6f76652066756e6360448201527f74696f6e207468617420646f65736e2774206578697374000000000000000000606482015260840161014d565b306001600160a01b03831603610dc45760405162461bcd60e51b815260206004820152602e60248201527f4c69624469616d6f6e644375743a2043616e27742072656d6f766520696d6d7560448201526d3a30b1363290333ab731ba34b7b760911b606482015260840161014d565b6001600160e01b031981165f90815260208481526040808320546001600160a01b0386168452600180880190935290832054600160a01b9091046001600160601b03169291610e1291611623565b9050808214610f01576001600160a01b0384165f9081526001860160205260408120805483908110610e4657610e4661138b565b5f91825260208083206008830401546001600160a01b038916845260018a019091526040909220805460079092166004026101000a90920460e01b925082919085908110610e9657610e9661138b565b5f91825260208083206008830401805463ffffffff60079094166004026101000a938402191660e09590951c929092029390931790556001600160e01b03199290921682528690526040902080546001600160a01b0316600160a01b6001600160601b038516021790555b6001600160a01b0384165f9081526001860160205260409020805480610f2957610f29611636565b5f828152602080822060085f1990940193840401805463ffffffff600460078716026101000a0219169055919092556001600160e01b031985168252869052604081208190558190036100cb5760028501545f90610f8990600190611623565b6001600160a01b0386165f908152600180890160205260409091200154909150808214611034575f876002018381548110610fc657610fc661138b565b5f918252602090912001546002890180546001600160a01b039092169250829184908110610ff657610ff661138b565b5f91825260208083209190910180546001600160a01b0319166001600160a01b03948516179055929091168152600189810190925260409020018190555b8660020180548061104757611047611636565b5f828152602080822083015f1990810180546001600160a01b03191690559092019092556001600160a01b0388168252600189810190915260408220015550505050505050565b813b8181610ab75760405162461bcd60e51b815260040161014d919061164a565b80356001600160a01b03811681146110c5575f5ffd5b919050565b5f5f83601f8401126110da575f5ffd5b50813567ffffffffffffffff8111156110f1575f5ffd5b602083019150836020828501011115611108575f5ffd5b9250929050565b5f5f5f5f5f60608688031215611123575f5ffd5b853567ffffffffffffffff811115611139575f5ffd5b8601601f81018813611149575f5ffd5b803567ffffffffffffffff81111561115f575f5ffd5b8860208260051b8401011115611173575f5ffd5b6020918201965094506111879087016110af565b9250604086013567ffffffffffffffff8111156111a2575f5ffd5b6111ae888289016110ca565b969995985093965092949392505050565b634e487b7160e01b5f52604160045260245ffd5b6040516060810167ffffffffffffffff811182821017156111f6576111f66111bf565b60405290565b604051601f8201601f1916810167ffffffffffffffff81118282101715611225576112256111bf565b604052919050565b5f67ffffffffffffffff821115611246576112466111bf565b5060051b60200190565b5f61126261125d8461122d565b6111fc565b8381526020810190600585901b84013681111561127d575f5ffd5b845b8181101561138057803567ffffffffffffffff81111561129d575f5ffd5b860160603682900312156112af575f5ffd5b6112b76111d3565b6112c0826110af565b81526020820135600381106112d3575f5ffd5b6020820152604082013567ffffffffffffffff8111156112f1575f5ffd5b919091019036601f830112611304575f5ffd5b813561131261125d8261122d565b8082825260208201915060208360051b860101925036831115611333575f5ffd5b6020850194505b8285101561136a5784356001600160e01b031981168114611359575f5ffd5b82526020948501949091019061133a565b604084015250508552506020938401930161127f565b509095945050505050565b634e487b7160e01b5f52603260045260245ffd5b634e487b7160e01b5f52602160045260245ffd5b5f81518084528060208401602086015e5f602082860101526020601f19601f83011685010191505092915050565b5f606082016060835280865180835260808501915060808160051b8601019250602088015f5b828110156114bc57868503607f19018452815180516001600160a01b03168652602081015160608701906003811061144d57634e487b7160e01b5f52602160045260245ffd5b8060208901525060408201519150606060408801528082518083526080890191506020840193505f92505b808310156114a45783516001600160e01b03191682526020938401936001939093019290910190611478565b50965050506020938401939190910190600101611407565b5050506001600160a01b03861660208501525082810360408401526114e181856113b3565b9695505050505050565b634e487b7160e01b5f52601160045260245ffd5b63ffffffff818116838216019081111561151b5761151b6114eb565b92915050565b6020808252602b908201527f4c69624469616d6f6e644375743a204e6f2073656c6563746f727320696e206660408201526a1858d95d081d1bc818dd5d60aa1b606082015260800190565b6020808252602c908201527f4c69624469616d6f6e644375743a204164642066616365742063616e2774206260408201526b65206164647265737328302960a01b606082015260800190565b5f6001600160601b0382166001600160601b0381036115d9576115d96114eb565b60010192915050565b5f82518060208501845e5f920191825250919050565b6001600160a01b03831681526040602082018190525f9061161b908301846113b3565b949350505050565b8181038181111561151b5761151b6114eb565b634e487b7160e01b5f52603160045260245ffd5b602081525f61165c60208301846113b3565b939250505056fe4c69624469616d6f6e644375743a205f696e6974206164647265737320686173206e6f20636f64654c69624469616d6f6e644375743a204e657720666163657420686173206e6f20636f6465d00049dc7109015045860694acecd3dc33338404aaf6e55a1c98a2bf41477b85a264697066735822122072d5b7b3b5ead79b82676a35bf9ca3b4d4bbea2a6bdea9c1fc77f442d52d977264736f6c634300081c0033",
  "devdoc": {
    "kind": "dev",
    "methods": {
      "diamondCut((address,uint8,bytes4[])[],address,bytes)": {
        "params": {
          "_calldata": "A function call, including function selector and arguments                  _calldata is executed with delegatecall on _init",
          "_diamondCut": "Contains the facet addresses and function selectors",
          "_init": "The address of the contract or facet to execute _calldata"
        }
      }
    },
    "version": 1
  },
  "userdoc": {
    "kind": "user",
    "methods": {
      "cancelMigration()": {
        "notice": "If an ongoing migration exists and hasn't surpassed the 3 day  minimum wait time, then the migration will be cancelled."
      },
      "diamondCut((address,uint8,bytes4[])[],address,bytes)": {
        "notice": "Add/replace/remove any number of functions and optionally execute         a function with delegatecall"
      },
      "initiateMigration()": {
        "notice": "Initiate a migration away from the massDX ecosystem versions.  There is a 3 day minimum required timespan"
      }
    },
    "version": 1
  },
  "storageLayout": {
    "storage": [],
    "types": null
  }
}