{
  "address": "0x95CC2d988D035c2aeEb435B2ca9146CB9E832d18",
  "abi": [
    {
      "inputs": [
        {
          "internalType": "address",
          "name": "operator",
          "type": "address"
        },
        {
          "internalType": "address",
          "name": "from",
          "type": "address"
        },
        {
          "internalType": "uint256[]",
          "name": "ids",
          "type": "uint256[]"
        },
        {
          "internalType": "uint256[]",
          "name": "values",
          "type": "uint256[]"
        },
        {
          "internalType": "bytes",
          "name": "data",
          "type": "bytes"
        }
      ],
      "name": "onERC1155BatchReceived",
      "outputs": [
        {
          "internalType": "bytes4",
          "name": "",
          "type": "bytes4"
        }
      ],
      "stateMutability": "pure",
      "type": "function"
    },
    {
      "inputs": [
        {
          "internalType": "address",
          "name": "operator",
          "type": "address"
        },
        {
          "internalType": "address",
          "name": "from",
          "type": "address"
        },
        {
          "internalType": "uint256",
          "name": "id",
          "type": "uint256"
        },
        {
          "internalType": "uint256",
          "name": "value",
          "type": "uint256"
        },
        {
          "internalType": "bytes",
          "name": "data",
          "type": "bytes"
        }
      ],
      "name": "onERC1155Received",
      "outputs": [
        {
          "internalType": "bytes4",
          "name": "",
          "type": "bytes4"
        }
      ],
      "stateMutability": "pure",
      "type": "function"
    }
  ],
  "transactionHash": "0x87d5281f859007892f59127fb2fdba66c695d1c4a5b29aaf657868f4a219581a",
  "args": [],
  "numDeployments": 1,
  "solcInputHash": "54a7063fbd1377e55e2032f74c4aa199",
  "bytecode": "0x6080604052348015600e575f5ffd5b506102a08061001c5f395ff3fe608060405234801561000f575f5ffd5b5060043610610034575f3560e01c8063bc197c8114610038578063f23a6e6114610077575b5f5ffd5b61005a610046366004610138565b5063bc197c8160e01b979650505050505050565b6040516001600160e01b0319909116815260200160405180910390f35b61005a6100853660046101f7565b5063f23a6e6160e01b95945050505050565b80356001600160a01b03811681146100ad575f5ffd5b919050565b5f5f83601f8401126100c2575f5ffd5b50813567ffffffffffffffff8111156100d9575f5ffd5b6020830191508360208260051b85010111156100f3575f5ffd5b9250929050565b5f5f83601f84011261010a575f5ffd5b50813567ffffffffffffffff811115610121575f5ffd5b6020830191508360208285010111156100f3575f5ffd5b5f5f5f5f5f5f5f5f60a0898b03121561014f575f5ffd5b61015889610097565b975061016660208a01610097565b9650604089013567ffffffffffffffff811115610181575f5ffd5b61018d8b828c016100b2565b909750955050606089013567ffffffffffffffff8111156101ac575f5ffd5b6101b88b828c016100b2565b909550935050608089013567ffffffffffffffff8111156101d7575f5ffd5b6101e38b828c016100fa565b999c989b5096995094979396929594505050565b5f5f5f5f5f5f60a0878903121561020c575f5ffd5b61021587610097565b955061022360208801610097565b94506040870135935060608701359250608087013567ffffffffffffffff81111561024c575f5ffd5b61025889828a016100fa565b979a969950949750929593949250505056fea264697066735822122037752b505bab29d32f100fa31e62177313f2869f3d472dd9eb3d29440cba6bdd64736f6c634300081c0033",
  "devdoc": {
    "details": "_Available since v3.1._",
    "kind": "dev",
    "methods": {
      "onERC1155BatchReceived(address,address,uint256[],uint256[],bytes)": {
        "details": "Handles the receipt of a multiple ERC1155 token types. This function is called at the end of a `safeBatchTransferFrom` after the balances have been updated. NOTE: To accept the transfer(s), this must return `bytes4(keccak256(\"onERC1155BatchReceived(address,address,uint256[],uint256[],bytes)\"))` (i.e. 0xbc197c81, or its own function selector).",
        "params": {
          "data": "Additional data with no specified format",
          "from": "The address which previously owned the token",
          "ids": "An array containing ids of each token being transferred (order and length must match values array)",
          "operator": "The address which initiated the batch transfer (i.e. msg.sender)",
          "values": "An array containing amounts of each token being transferred (order and length must match ids array)"
        },
        "returns": {
          "_0": "`bytes4(keccak256(\"onERC1155BatchReceived(address,address,uint256[],uint256[],bytes)\"))` if transfer is allowed"
        }
      },
      "onERC1155Received(address,address,uint256,uint256,bytes)": {
        "details": "Handles the receipt of a single ERC1155 token type. This function is called at the end of a `safeTransferFrom` after the balance has been updated. NOTE: To accept the transfer, this must return `bytes4(keccak256(\"onERC1155Received(address,address,uint256,uint256,bytes)\"))` (i.e. 0xf23a6e61, or its own function selector).",
        "params": {
          "data": "Additional data with no specified format",
          "from": "The address which previously owned the token",
          "id": "The ID of the token being transferred",
          "operator": "The address which initiated the transfer (i.e. msg.sender)",
          "value": "The amount of tokens being transferred"
        },
        "returns": {
          "_0": "`bytes4(keccak256(\"onERC1155Received(address,address,uint256,uint256,bytes)\"))` if transfer is allowed"
        }
      }
    },
    "version": 1
  },
  "userdoc": {
    "kind": "user",
    "methods": {},
    "version": 1
  },
  "storageLayout": {
    "storage": [],
    "types": null
  }
}