{
  "address": "0x65D04849082eeaee9206325352f81A6956Dcf2F3",
  "abi": [
    {
      "anonymous": false,
      "inputs": [
        {
          "indexed": true,
          "internalType": "address",
          "name": "account",
          "type": "address"
        },
        {
          "indexed": true,
          "internalType": "address",
          "name": "operator",
          "type": "address"
        },
        {
          "indexed": false,
          "internalType": "bool",
          "name": "approved",
          "type": "bool"
        }
      ],
      "name": "ApprovalForAll",
      "type": "event"
    },
    {
      "anonymous": false,
      "inputs": [
        {
          "indexed": true,
          "internalType": "address",
          "name": "operator",
          "type": "address"
        },
        {
          "indexed": true,
          "internalType": "address",
          "name": "from",
          "type": "address"
        },
        {
          "indexed": true,
          "internalType": "address",
          "name": "to",
          "type": "address"
        },
        {
          "indexed": false,
          "internalType": "uint256[]",
          "name": "ids",
          "type": "uint256[]"
        },
        {
          "indexed": false,
          "internalType": "uint256[]",
          "name": "values",
          "type": "uint256[]"
        }
      ],
      "name": "TransferBatch",
      "type": "event"
    },
    {
      "anonymous": false,
      "inputs": [
        {
          "indexed": true,
          "internalType": "address",
          "name": "operator",
          "type": "address"
        },
        {
          "indexed": true,
          "internalType": "address",
          "name": "from",
          "type": "address"
        },
        {
          "indexed": true,
          "internalType": "address",
          "name": "to",
          "type": "address"
        },
        {
          "indexed": false,
          "internalType": "uint256",
          "name": "id",
          "type": "uint256"
        },
        {
          "indexed": false,
          "internalType": "uint256",
          "name": "value",
          "type": "uint256"
        }
      ],
      "name": "TransferSingle",
      "type": "event"
    },
    {
      "inputs": [
        {
          "internalType": "address",
          "name": "account",
          "type": "address"
        },
        {
          "internalType": "address",
          "name": "operator",
          "type": "address"
        }
      ],
      "name": "isApprovedForAll",
      "outputs": [
        {
          "internalType": "bool",
          "name": "",
          "type": "bool"
        }
      ],
      "stateMutability": "view",
      "type": "function"
    },
    {
      "inputs": [
        {
          "internalType": "address",
          "name": "from",
          "type": "address"
        },
        {
          "internalType": "address",
          "name": "to",
          "type": "address"
        },
        {
          "internalType": "uint256[]",
          "name": "ids",
          "type": "uint256[]"
        },
        {
          "internalType": "uint256[]",
          "name": "amounts",
          "type": "uint256[]"
        },
        {
          "internalType": "bytes",
          "name": "data",
          "type": "bytes"
        }
      ],
      "name": "safeBatchTransferFrom",
      "outputs": [],
      "stateMutability": "nonpayable",
      "type": "function"
    },
    {
      "inputs": [
        {
          "internalType": "address",
          "name": "from",
          "type": "address"
        },
        {
          "internalType": "address",
          "name": "to",
          "type": "address"
        },
        {
          "internalType": "uint256",
          "name": "id",
          "type": "uint256"
        },
        {
          "internalType": "uint256",
          "name": "amount",
          "type": "uint256"
        },
        {
          "internalType": "bytes",
          "name": "data",
          "type": "bytes"
        }
      ],
      "name": "safeTransferFrom",
      "outputs": [],
      "stateMutability": "nonpayable",
      "type": "function"
    },
    {
      "inputs": [
        {
          "internalType": "address",
          "name": "operator",
          "type": "address"
        },
        {
          "internalType": "bool",
          "name": "approved",
          "type": "bool"
        }
      ],
      "name": "setApprovalForAll",
      "outputs": [],
      "stateMutability": "nonpayable",
      "type": "function"
    }
  ],
  "transactionHash": "0xbd9eabb2b8f7b2f6af057b200eeb10d9c9b4767d2bbd18d334a0dfef4fd50097",
  "args": [],
  "numDeployments": 1,
  "solcInputHash": "54a7063fbd1377e55e2032f74c4aa199",
  "bytecode": "0x6080604052348015600e575f5ffd5b50610fb28061001c5f395ff3fe608060405234801561000f575f5ffd5b506004361061004a575f3560e01c80632eb2c2d61461004e578063a22cb46514610063578063e985e9c514610076578063f242432a1461009d575b5f5ffd5b61006161005c366004610aa5565b6100b0565b005b610061610071366004610b54565b610117565b610089610084366004610b8d565b61012d565b604051901515815260200160405180910390f35b6100616100ab366004610bbe565b61017b565b6100b86101d2565b6001600160a01b0316856001600160a01b031614806100de57506100de856100846101d2565b6101035760405162461bcd60e51b81526004016100fa90610c12565b60405180910390fd5b61011085858585856101e0565b5050505050565b6101296101226101d2565b8383610417565b5050565b6001600160a01b038281165f9081527f6469616d6f6e642e73746f726167652e65726331313535000000000000000001602090815260408083209385168352929052205460ff165b92915050565b6101836101d2565b6001600160a01b0316856001600160a01b031614806101a957506101a9856100846101d2565b6101c55760405162461bcd60e51b81526004016100fa90610c12565b6101108585858585610534565b5f6101db610681565b905090565b81518351146102425760405162461bcd60e51b815260206004820152602860248201527f455243313135353a2069647320616e6420616d6f756e7473206c656e677468206044820152670dad2e6dac2e8c6d60c31b60648201526084016100fa565b6001600160a01b0384166102685760405162461bcd60e51b81526004016100fa90610c60565b766469616d6f6e642e73746f726167652e6572633131353560481b5f61028c6101d2565b90505f5b85518110156103a8575f8682815181106102ac576102ac610ca5565b602002602001015190505f8683815181106102c9576102c9610ca5565b6020908102919091018101515f84815287835260408082206001600160a01b038f1683529093529190912054909150818110156103185760405162461bcd60e51b81526004016100fa90610cb9565b818103865f015f8581526020019081526020015f205f8d6001600160a01b03166001600160a01b031681526020019081526020015f208190555081865f015f8581526020019081526020015f205f8c6001600160a01b03166001600160a01b031681526020019081526020015f205f8282546103949190610d03565b909155505060019093019250610290915050565b50856001600160a01b0316876001600160a01b0316826001600160a01b03167f4a39dc06d4c0dbc64b70af90fd698a233a518aa5d07e595d983b8c0526c8f7fb88886040516103f8929190610d5c565b60405180910390a461040e8188888888886106d4565b50505050505050565b816001600160a01b0316836001600160a01b03160361048a5760405162461bcd60e51b815260206004820152602960248201527f455243313135353a2073657474696e6720617070726f76616c20737461747573604482015268103337b91039b2b63360b91b60648201526084016100fa565b6001600160a01b038381165f8181527f6469616d6f6e642e73746f726167652e657263313135350000000000000000016020908152604080832094871680845294825291829020805460ff191686151590811790915582519081529151766469616d6f6e642e73746f726167652e6572633131353560481b9493927f17307eab39ab6107e8899845ad3d59bd9653f200f220920489ca2b5937696c3192908290030190a350505050565b6001600160a01b03841661055a5760405162461bcd60e51b81526004016100fa90610c60565b766469616d6f6e642e73746f726167652e6572633131353560481b5f61057e6101d2565b90505f61058a86610846565b90505f61059686610846565b5f888152602086815260408083206001600160a01b038e168452909152902054909150868110156105d95760405162461bcd60e51b81526004016100fa90610cb9565b5f888152602086815260408083206001600160a01b038e8116855292528083208a85039055908b16825281208054899290610615908490610d03565b909155505060408051898152602081018990526001600160a01b03808c16928d821692918816917fc3d58168c5ae7397731d063d5bbf3d657854427343f4c083240f7aacaa2d0f62910160405180910390a4610675848b8b8b8b8b61088f565b50505050505050505050565b5f601436108015906106bc57507f413a4c31c13c7c3de0c7da37be5d779b152baf3f21a1cb760fda41eb8ca97776546001600160a01b031633145b156106ce575060131936013560601c90565b50335b90565b6001600160a01b0384163b1561083e576001600160a01b038416301461083e5760405163bc197c8160e01b81526001600160a01b0385169063bc197c81906107289089908990889088908890600401610db7565b6020604051808303815f875af1925050508015610762575060408051601f3d908101601f1916820190925261075f91810190610e14565b60015b61080e5761076e610e42565b806308c379a0036107a75750610782610e5a565b8061078d57506107a9565b8060405162461bcd60e51b81526004016100fa9190610ede565b505b60405162461bcd60e51b815260206004820152603460248201527f455243313135353a207472616e7366657220746f206e6f6e2d455243313135356044820152732932b1b2b4bb32b91034b6b83632b6b2b73a32b960611b60648201526084016100fa565b6001600160e01b0319811663bc197c8160e01b1461040e5760405162461bcd60e51b81526004016100fa90610ef0565b505050505050565b6040805160018082528183019092526060915f91906020808301908036833701905050905082815f8151811061087e5761087e610ca5565b602090810291909101015292915050565b6001600160a01b0384163b1561083e576001600160a01b038416301461083e5760405163f23a6e6160e01b81526001600160a01b0385169063f23a6e61906108e39089908990889088908890600401610f38565b6020604051808303815f875af192505050801561091d575060408051601f3d908101601f1916820190925261091a91810190610e14565b60015b6109295761076e610e42565b6001600160e01b0319811663f23a6e6160e01b1461040e5760405162461bcd60e51b81526004016100fa90610ef0565b80356001600160a01b038116811461096f575f5ffd5b919050565b634e487b7160e01b5f52604160045260245ffd5b601f8201601f1916810167ffffffffffffffff811182821017156109ae576109ae610974565b6040525050565b5f82601f8301126109c4575f5ffd5b813567ffffffffffffffff8111156109de576109de610974565b8060051b6040516109f26020830182610988565b918252602081850181019290810186841115610a0c575f5ffd5b6020860192505b83831015610a2b578235815260209283019201610a13565b5095945050505050565b5f82601f830112610a44575f5ffd5b813567ffffffffffffffff811115610a5e57610a5e610974565b604051610a75601f8301601f191660200182610988565b818152846020838601011115610a89575f5ffd5b816020850160208301375f918101602001919091529392505050565b5f5f5f5f5f60a08688031215610ab9575f5ffd5b610ac286610959565b9450610ad060208701610959565b9350604086013567ffffffffffffffff811115610aeb575f5ffd5b610af7888289016109b5565b935050606086013567ffffffffffffffff811115610b13575f5ffd5b610b1f888289016109b5565b925050608086013567ffffffffffffffff811115610b3b575f5ffd5b610b4788828901610a35565b9150509295509295909350565b5f5f60408385031215610b65575f5ffd5b610b6e83610959565b915060208301358015158114610b82575f5ffd5b809150509250929050565b5f5f60408385031215610b9e575f5ffd5b610ba783610959565b9150610bb560208401610959565b90509250929050565b5f5f5f5f5f60a08688031215610bd2575f5ffd5b610bdb86610959565b9450610be960208701610959565b93506040860135925060608601359150608086013567ffffffffffffffff811115610b3b575f5ffd5b6020808252602e908201527f455243313135353a2063616c6c6572206973206e6f7420746f6b656e206f776e60408201526d195c881bdc88185c1c1c9bdd995960921b606082015260800190565b60208082526025908201527f455243313135353a207472616e7366657220746f20746865207a65726f206164604082015264647265737360d81b606082015260800190565b634e487b7160e01b5f52603260045260245ffd5b6020808252602a908201527f455243313135353a20696e73756666696369656e742062616c616e636520666f60408201526939103a3930b739b332b960b11b606082015260800190565b8082018082111561017557634e487b7160e01b5f52601160045260245ffd5b5f8151808452602084019350602083015f5b82811015610d52578151865260209586019590910190600101610d34565b5093949350505050565b604081525f610d6e6040830185610d22565b8281036020840152610d808185610d22565b95945050505050565b5f81518084528060208401602086015e5f602082860101526020601f19601f83011685010191505092915050565b6001600160a01b0386811682528516602082015260a0604082018190525f90610de290830186610d22565b8281036060840152610df48186610d22565b90508281036080840152610e088185610d89565b98975050505050505050565b5f60208284031215610e24575f5ffd5b81516001600160e01b031981168114610e3b575f5ffd5b9392505050565b5f60033d11156106d15760045f5f3e505f5160e01c90565b5f60443d1015610e675790565b6040513d600319016004823e80513d602482011167ffffffffffffffff82111715610e9157505090565b808201805167ffffffffffffffff811115610ead575050505090565b3d8401600319018282016020011115610ec7575050505090565b610ed660208285010185610988565b509392505050565b602081525f610e3b6020830184610d89565b60208082526028908201527f455243313135353a204552433131353552656365697665722072656a656374656040820152676420746f6b656e7360c01b606082015260800190565b6001600160a01b03868116825285166020820152604081018490526060810183905260a0608082018190525f90610f7190830184610d89565b97965050505050505056fea2646970667358221220cc16a51a060b39caf48dece2a2fbef694e563b09da75f522c2ba1f58ec3a034064736f6c634300081c0033",
  "devdoc": {
    "details": "Implementation of the basic standard multi-token. See https://eips.ethereum.org/EIPS/eip-1155 Originally based on code by Enjin: https://github.com/enjin/erc-1155 _Available since v3.1._",
    "events": {
      "ApprovalForAll(address,address,bool)": {
        "details": "Emitted when `account` grants or revokes permission to `operator` to transfer their tokens, according to `approved`."
      },
      "TransferBatch(address,address,address,uint256[],uint256[])": {
        "details": "Equivalent to multiple {TransferSingle} events, where `operator`, `from` and `to` are the same for all transfers."
      },
      "TransferSingle(address,address,address,uint256,uint256)": {
        "details": "Emitted when `value` tokens of token type `id` are transferred from `from` to `to` by `operator`."
      }
    },
    "kind": "dev",
    "methods": {
      "isApprovedForAll(address,address)": {
        "details": "See {IERC1155-isApprovedForAll}."
      },
      "safeBatchTransferFrom(address,address,uint256[],uint256[],bytes)": {
        "details": "See {IERC1155-safeBatchTransferFrom}."
      },
      "safeTransferFrom(address,address,uint256,uint256,bytes)": {
        "details": "See {IERC1155-safeTransferFrom}."
      },
      "setApprovalForAll(address,bool)": {
        "details": "See {IERC1155-setApprovalForAll}."
      }
    },
    "version": 1
  },
  "userdoc": {
    "kind": "user",
    "methods": {},
    "version": 1
  },
  "storageLayout": {
    "storage": [],
    "types": null
  }
}