{
  "address": "0xD290b9fc82A16b27Ef525fE83E99F921a8F9b6b7",
  "abi": [
    {
      "inputs": [],
      "name": "MigrationAlreadyCompleted",
      "type": "error"
    },
    {
      "inputs": [],
      "name": "MigrationAlreadyInitiated",
      "type": "error"
    },
    {
      "inputs": [],
      "name": "MigrationNotInitiated",
      "type": "error"
    },
    {
      "anonymous": false,
      "inputs": [
        {
          "indexed": false,
          "internalType": "address",
          "name": "cancellor",
          "type": "address"
        },
        {
          "indexed": false,
          "internalType": "uint32",
          "name": "timeCancelled",
          "type": "uint32"
        }
      ],
      "name": "MigrationCancelled",
      "type": "event"
    },
    {
      "anonymous": false,
      "inputs": [
        {
          "indexed": false,
          "internalType": "address",
          "name": "initiatior",
          "type": "address"
        },
        {
          "indexed": false,
          "internalType": "uint32",
          "name": "timeInitiatied",
          "type": "uint32"
        }
      ],
      "name": "MigrationInitiated",
      "type": "event"
    },
    {
      "anonymous": false,
      "inputs": [
        {
          "indexed": false,
          "internalType": "address",
          "name": "oldOwner",
          "type": "address"
        },
        {
          "indexed": false,
          "internalType": "address",
          "name": "newOwner",
          "type": "address"
        }
      ],
      "name": "OwnershipChanged",
      "type": "event"
    },
    {
      "anonymous": false,
      "inputs": [
        {
          "indexed": true,
          "internalType": "address",
          "name": "operator",
          "type": "address"
        },
        {
          "indexed": true,
          "internalType": "address",
          "name": "from",
          "type": "address"
        },
        {
          "indexed": true,
          "internalType": "address",
          "name": "to",
          "type": "address"
        },
        {
          "indexed": false,
          "internalType": "uint256[]",
          "name": "ids",
          "type": "uint256[]"
        },
        {
          "indexed": false,
          "internalType": "uint256[]",
          "name": "values",
          "type": "uint256[]"
        }
      ],
      "name": "TransferBatch",
      "type": "event"
    },
    {
      "anonymous": false,
      "inputs": [
        {
          "indexed": true,
          "internalType": "address",
          "name": "operator",
          "type": "address"
        },
        {
          "indexed": true,
          "internalType": "address",
          "name": "from",
          "type": "address"
        },
        {
          "indexed": true,
          "internalType": "address",
          "name": "to",
          "type": "address"
        },
        {
          "indexed": false,
          "internalType": "uint256",
          "name": "id",
          "type": "uint256"
        },
        {
          "indexed": false,
          "internalType": "uint256",
          "name": "value",
          "type": "uint256"
        }
      ],
      "name": "TransferSingle",
      "type": "event"
    },
    {
      "anonymous": false,
      "inputs": [
        {
          "indexed": false,
          "internalType": "string",
          "name": "value",
          "type": "string"
        },
        {
          "indexed": true,
          "internalType": "uint256",
          "name": "id",
          "type": "uint256"
        }
      ],
      "name": "URI",
      "type": "event"
    },
    {
      "anonymous": false,
      "inputs": [
        {
          "indexed": false,
          "internalType": "string",
          "name": "uri",
          "type": "string"
        }
      ],
      "name": "URIChanged",
      "type": "event"
    },
    {
      "inputs": [
        {
          "internalType": "address",
          "name": "account",
          "type": "address"
        },
        {
          "internalType": "uint256",
          "name": "id",
          "type": "uint256"
        }
      ],
      "name": "balanceOf",
      "outputs": [
        {
          "internalType": "uint256",
          "name": "",
          "type": "uint256"
        }
      ],
      "stateMutability": "view",
      "type": "function"
    },
    {
      "inputs": [
        {
          "internalType": "address[]",
          "name": "accounts",
          "type": "address[]"
        },
        {
          "internalType": "uint256[]",
          "name": "ids",
          "type": "uint256[]"
        }
      ],
      "name": "balanceOfBatch",
      "outputs": [
        {
          "internalType": "uint256[]",
          "name": "",
          "type": "uint256[]"
        }
      ],
      "stateMutability": "view",
      "type": "function"
    },
    {
      "inputs": [
        {
          "internalType": "address",
          "name": "from",
          "type": "address"
        },
        {
          "internalType": "uint256",
          "name": "id",
          "type": "uint256"
        },
        {
          "internalType": "uint256",
          "name": "amount",
          "type": "uint256"
        }
      ],
      "name": "burn",
      "outputs": [],
      "stateMutability": "nonpayable",
      "type": "function"
    },
    {
      "inputs": [
        {
          "internalType": "address",
          "name": "from",
          "type": "address"
        },
        {
          "internalType": "uint256[]",
          "name": "ids",
          "type": "uint256[]"
        },
        {
          "internalType": "uint256[]",
          "name": "amounts",
          "type": "uint256[]"
        }
      ],
      "name": "burnBatch",
      "outputs": [],
      "stateMutability": "nonpayable",
      "type": "function"
    },
    {
      "inputs": [
        {
          "internalType": "address",
          "name": "to",
          "type": "address"
        },
        {
          "internalType": "uint256",
          "name": "id",
          "type": "uint256"
        },
        {
          "internalType": "uint256",
          "name": "amount",
          "type": "uint256"
        },
        {
          "internalType": "bytes",
          "name": "data",
          "type": "bytes"
        }
      ],
      "name": "mint",
      "outputs": [],
      "stateMutability": "nonpayable",
      "type": "function"
    },
    {
      "inputs": [
        {
          "internalType": "address",
          "name": "to",
          "type": "address"
        },
        {
          "internalType": "uint256[]",
          "name": "ids",
          "type": "uint256[]"
        },
        {
          "internalType": "uint256[]",
          "name": "amounts",
          "type": "uint256[]"
        },
        {
          "internalType": "bytes",
          "name": "data",
          "type": "bytes"
        }
      ],
      "name": "mintBatch",
      "outputs": [],
      "stateMutability": "nonpayable",
      "type": "function"
    },
    {
      "inputs": [
        {
          "internalType": "string",
          "name": "_uri",
          "type": "string"
        }
      ],
      "name": "setUri",
      "outputs": [],
      "stateMutability": "nonpayable",
      "type": "function"
    },
    {
      "inputs": [
        {
          "internalType": "uint256",
          "name": "tokenId",
          "type": "uint256"
        }
      ],
      "name": "uri",
      "outputs": [
        {
          "internalType": "string",
          "name": "",
          "type": "string"
        }
      ],
      "stateMutability": "view",
      "type": "function"
    }
  ],
  "transactionHash": "0x3e604d809d0c722b3242d0407a7d85c92499f343519842255ff41ffc4c039ee6",
  "args": [],
  "numDeployments": 1,
  "solcInputHash": "54a7063fbd1377e55e2032f74c4aa199",
  "bytecode": "0x6080604052348015600e575f5ffd5b506118568061001c5f395ff3fe608060405234801561000f575f5ffd5b5060043610610084575f3560e01c80636b20c454116100585780636b20c45414610103578063731133e9146101165780639b642de114610129578063f5298aca1461013c575f5ffd5b8062fdd58e146100885780630e89341c146100ae5780631f7fdffa146100ce5780634e1273f4146100e3575b5f5ffd5b61009b610096366004610e4e565b61014f565b6040519081526020015b60405180910390f35b6100c16100bc366004610e76565b6101f4565b6040516100a59190610ebb565b6100e16100dc366004611024565b61023e565b005b6100f66100f13660046110c0565b610250565b6040516100a591906111c7565b6100e16101113660046111d9565b61036f565b6100e161012436600461124b565b61037f565b6100e161013736600461128f565b61038b565b6100e161014a3660046112db565b610400565b5f6001600160a01b0383166101be5760405162461bcd60e51b815260206004820152602a60248201527f455243313135353a2061646472657373207a65726f206973206e6f742061207660448201526930b634b21037bbb732b960b11b60648201526084015b60405180910390fd5b505f8181525f5160206118015f395f51905f52602090815260408083206001600160a01b03861684529091529020545b92915050565b60605f5160206118015f395f51905f525f61020e8461040b565b90508160020181604051602001610226929190611343565b60405160208183030381529060405292505050919050565b61024a8484848461049a565b50505050565b606081518351146102b55760405162461bcd60e51b815260206004820152602960248201527f455243313135353a206163636f756e747320616e6420696473206c656e677468604482015268040dad2e6dac2e8c6d60bb1b60648201526084016101b5565b5f83516001600160401b038111156102cf576102cf610ed4565b6040519080825280602002602001820160405280156102f8578160200160208202803683370190505b5090505f5b84518110156103675761034285828151811061031b5761031b6113ce565b6020026020010151858381518110610335576103356113ce565b602002602001015161014f565b828281518110610354576103546113ce565b60209081029190910101526001016102fd565b509392505050565b61037a838383610628565b505050565b61024a8484848461080f565b5f5160206118015f395f51905f527f6469616d6f6e642e73746f726167652e657263313135350000000000000000026103c4838261142d565b507fbd06d92759c326896ec0f7c3a981e801ae4644e020f89b2a198909b692df0ddd826040516103f49190610ebb565b60405180910390a15050565b61037a83838361091a565b60605f61041783610a76565b60010190505f816001600160401b0381111561043557610435610ed4565b6040519080825280601f01601f19166020018201604052801561045f576020820181803683370190505b5090508181016020015b5f19016f181899199a1a9b1b9c1cb0b131b232b360811b600a86061a8153600a850494508461046957509392505050565b6001600160a01b0384166104c05760405162461bcd60e51b81526004016101b5906114e7565b81518351146104e15760405162461bcd60e51b81526004016101b590611528565b5f5f5160206118015f395f51905f52816104f9610b4d565b90505f5b86518110156105b057858181518110610518576105186113ce565b6020026020010151835f015f898481518110610536576105366113ce565b602002602001015181526020019081526020015f205f8a6001600160a01b03166001600160a01b031681526020019081526020015f205f82825461057a9190611584565b92505081905550858181518110610593576105936113ce565b6020026020010151846105a69190611584565b93506001016104fd565b50828260030181905550866001600160a01b03165f6001600160a01b0316826001600160a01b03167f4a39dc06d4c0dbc64b70af90fd698a233a518aa5d07e595d983b8c0526c8f7fb8989604051610609929190611597565b60405180910390a461061f815f89898989610b5b565b50505050505050565b6001600160a01b03831661064e5760405162461bcd60e51b81526004016101b5906115c4565b805182511461066f5760405162461bcd60e51b81526004016101b590611528565b5f5160206118015f395f51905f525f610686610b4d565b90505f805b8551811015610795575f8682815181106106a7576106a76113ce565b602002602001015190505f8683815181106106c4576106c46113ce565b6020026020010151905080846106da9190611584565b5f838152602088815260408083206001600160a01b038e1684529091529020549094508181101561071d5760405162461bcd60e51b81526004016101b590611607565b84876003015410156107695760405162461bcd60e51b815260206004820152601560248201527422bc31b2b2b239903a37ba30b61039bab838363c9760591b60448201526064016101b5565b5f928352602087815260408085206001600160a01b038d1686529091529092209103905560010161068b565b5080836003015f8282546107a9919061164b565b925050819055505f6001600160a01b0316866001600160a01b0316836001600160a01b03167f4a39dc06d4c0dbc64b70af90fd698a233a518aa5d07e595d983b8c0526c8f7fb88886040516107ff929190611597565b60405180910390a4505050505050565b6001600160a01b0384166108355760405162461bcd60e51b81526004016101b5906114e7565b5f5160206118015f395f51905f525f61084c610b4d565b90505f61085886610ccd565b90505f61086486610ccd565b5f888152602086815260408083206001600160a01b038d168452909152812080549293508892909190610898908490611584565b9250508190555085846003015f8282546108b29190611584565b909155505060408051888152602081018890526001600160a01b03808b16925f92918716917fc3d58168c5ae7397731d063d5bbf3d657854427343f4c083240f7aacaa2d0f62910160405180910390a4610910835f8a8a8a8a610d16565b5050505050505050565b6001600160a01b0383166109405760405162461bcd60e51b81526004016101b5906115c4565b5f5160206118015f395f51905f525f610957610b4d565b90505f61096385610ccd565b90505f61096f85610ccd565b5f878152602086815260408083206001600160a01b038c168452909152902054909150858110156109b25760405162461bcd60e51b81526004016101b590611607565b85856003015410156109fe5760405162461bcd60e51b815260206004820152601560248201527422bc31b2b2b239903a37ba30b61039bab838363c9760591b60448201526064016101b5565b5f878152602086815260408083206001600160a01b038c81168086529184528285208b8703905560038a0180548c9003905582518c81529384018b90529092908816917fc3d58168c5ae7397731d063d5bbf3d657854427343f4c083240f7aacaa2d0f62910160405180910390a45050505050505050565b5f8072184f03e93ff9f4daa797ed6e38ed64bf6a1f0160401b8310610ab45772184f03e93ff9f4daa797ed6e38ed64bf6a1f0160401b830492506040015b6d04ee2d6d415b85acef81000000008310610ae0576d04ee2d6d415b85acef8100000000830492506020015b662386f26fc100008310610afe57662386f26fc10000830492506010015b6305f5e1008310610b16576305f5e100830492506008015b6127108310610b2a57612710830492506004015b60648310610b3c576064830492506002015b600a83106101ee5760010192915050565b5f610b56610de0565b905090565b6001600160a01b0384163b15610cc5576001600160a01b0384163014610cc55760405163bc197c8160e01b81526001600160a01b0385169063bc197c8190610baf908990899088908890889060040161165e565b6020604051808303815f875af1925050508015610be9575060408051601f3d908101601f19168201909252610be6918101906116bb565b60015b610c9557610bf56116e2565b806308c379a003610c2e5750610c096116fa565b80610c145750610c30565b8060405162461bcd60e51b81526004016101b59190610ebb565b505b60405162461bcd60e51b815260206004820152603460248201527f455243313135353a207472616e7366657220746f206e6f6e2d455243313135356044820152732932b1b2b4bb32b91034b6b83632b6b2b73a32b960611b60648201526084016101b5565b6001600160e01b0319811663bc197c8160e01b1461061f5760405162461bcd60e51b81526004016101b590611774565b505050505050565b6040805160018082528183019092526060915f91906020808301908036833701905050905082815f81518110610d0557610d056113ce565b602090810291909101015292915050565b6001600160a01b0384163b15610cc5576001600160a01b0384163014610cc55760405163f23a6e6160e01b81526001600160a01b0385169063f23a6e6190610d6a90899089908890889088906004016117bc565b6020604051808303815f875af1925050508015610da4575060408051601f3d908101601f19168201909252610da1918101906116bb565b60015b610db057610bf56116e2565b6001600160e01b0319811663f23a6e6160e01b1461061f5760405162461bcd60e51b81526004016101b590611774565b5f60143610801590610e1b57507f413a4c31c13c7c3de0c7da37be5d779b152baf3f21a1cb760fda41eb8ca97776546001600160a01b031633145b15610e2d575060131936013560601c90565b50335b90565b80356001600160a01b0381168114610e49575f5ffd5b919050565b5f5f60408385031215610e5f575f5ffd5b610e6883610e33565b946020939093013593505050565b5f60208284031215610e86575f5ffd5b5035919050565b5f81518084528060208401602086015e5f602082860101526020601f19601f83011685010191505092915050565b602081525f610ecd6020830184610e8d565b9392505050565b634e487b7160e01b5f52604160045260245ffd5b601f8201601f191681016001600160401b0381118282101715610f0d57610f0d610ed4565b6040525050565b5f6001600160401b03821115610f2c57610f2c610ed4565b5060051b60200190565b5f82601f830112610f45575f5ffd5b8135610f5081610f14565b604051610f5d8282610ee8565b80915082815260208101915060208360051b860101925085831115610f80575f5ffd5b602085015b83811015610f9d578035835260209283019201610f85565b5095945050505050565b5f5f6001600160401b03841115610fc057610fc0610ed4565b50604051601f8401601f191660200190610fda8282610ee8565b809250848152858585011115610fee575f5ffd5b848460208301375f6020868301015250509392505050565b5f82601f830112611015575f5ffd5b610ecd83833560208501610fa7565b5f5f5f5f60808587031215611037575f5ffd5b61104085610e33565b935060208501356001600160401b0381111561105a575f5ffd5b61106687828801610f36565b93505060408501356001600160401b03811115611081575f5ffd5b61108d87828801610f36565b92505060608501356001600160401b038111156110a8575f5ffd5b6110b487828801611006565b91505092959194509250565b5f5f604083850312156110d1575f5ffd5b82356001600160401b038111156110e6575f5ffd5b8301601f810185136110f6575f5ffd5b803561110181610f14565b60405161110e8282610ee8565b80915082815260208101915060208360051b850101925087831115611131575f5ffd5b6020840193505b8284101561115a5761114984610e33565b825260209384019390910190611138565b945050505060208301356001600160401b03811115611177575f5ffd5b61118385828601610f36565b9150509250929050565b5f8151808452602084019350602083015f5b828110156111bd57815186526020958601959091019060010161119f565b5093949350505050565b602081525f610ecd602083018461118d565b5f5f5f606084860312156111eb575f5ffd5b6111f484610e33565b925060208401356001600160401b0381111561120e575f5ffd5b61121a86828701610f36565b92505060408401356001600160401b03811115611235575f5ffd5b61124186828701610f36565b9150509250925092565b5f5f5f5f6080858703121561125e575f5ffd5b61126785610e33565b9350602085013592506040850135915060608501356001600160401b038111156110a8575f5ffd5b5f6020828403121561129f575f5ffd5b81356001600160401b038111156112b4575f5ffd5b8201601f810184136112c4575f5ffd5b6112d384823560208401610fa7565b949350505050565b5f5f5f606084860312156112ed575f5ffd5b6112f684610e33565b95602085013595506040909401359392505050565b600181811c9082168061131f57607f821691505b60208210810361133d57634e487b7160e01b5f52602260045260245ffd5b50919050565b5f5f84546113508161130b565b600182168015611367576001811461137c576113a9565b60ff19831686528115158202860193506113a9565b875f5260205f205f5b838110156113a157815488820152600190910190602001611385565b505081860193505b50505083518060208601835e64173539b7b760d91b9101908152600501949350505050565b634e487b7160e01b5f52603260045260245ffd5b601f82111561037a57805f5260205f20601f840160051c810160208510156114075750805b601f840160051c820191505b81811015611426575f8155600101611413565b5050505050565b81516001600160401b0381111561144657611446610ed4565b61145a81611454845461130b565b846113e2565b6020601f82116001811461148c575f83156114755750848201515b5f19600385901b1c1916600184901b178455611426565b5f84815260208120601f198516915b828110156114bb578785015182556020948501946001909201910161149b565b50848210156114d857868401515f19600387901b60f8161c191681555b50505050600190811b01905550565b60208082526021908201527f455243313135353a206d696e7420746f20746865207a65726f206164647265736040820152607360f81b606082015260800190565b60208082526028908201527f455243313135353a2069647320616e6420616d6f756e7473206c656e677468206040820152670dad2e6dac2e8c6d60c31b606082015260800190565b634e487b7160e01b5f52601160045260245ffd5b808201808211156101ee576101ee611570565b604081525f6115a9604083018561118d565b82810360208401526115bb818561118d565b95945050505050565b60208082526023908201527f455243313135353a206275726e2066726f6d20746865207a65726f206164647260408201526265737360e81b606082015260800190565b60208082526024908201527f455243313135353a206275726e20616d6f756e7420657863656564732062616c604082015263616e636560e01b606082015260800190565b818103818111156101ee576101ee611570565b6001600160a01b0386811682528516602082015260a0604082018190525f906116899083018661118d565b828103606084015261169b818661118d565b905082810360808401526116af8185610e8d565b98975050505050505050565b5f602082840312156116cb575f5ffd5b81516001600160e01b031981168114610ecd575f5ffd5b5f60033d1115610e305760045f5f3e505f5160e01c90565b5f60443d10156117075790565b6040513d600319016004823e80513d60248201116001600160401b038211171561173057505090565b80820180516001600160401b0381111561174b575050505090565b3d8401600319018282016020011115611765575050505090565b61036760208285010185610ee8565b60208082526028908201527f455243313135353a204552433131353552656365697665722072656a656374656040820152676420746f6b656e7360c01b606082015260800190565b6001600160a01b03868116825285166020820152604081018490526060810183905260a0608082018190525f906117f590830184610e8d565b97965050505050505056fe6469616d6f6e642e73746f726167652e65726331313535000000000000000000a2646970667358221220ce7d0ad9e64187d1ce256b2b258d51b0c0a74fcef09a41a0be752023aa71ad9f64736f6c634300081c0033",
  "devdoc": {
    "details": "Implementation of the basic standard multi-token. See https://eips.ethereum.org/EIPS/eip-1155 Originally based on code by Enjin: https://github.com/enjin/erc-1155 _Available since v3.1._",
    "events": {
      "TransferBatch(address,address,address,uint256[],uint256[])": {
        "details": "Equivalent to multiple {TransferSingle} events, where `operator`, `from` and `to` are the same for all transfers."
      },
      "TransferSingle(address,address,address,uint256,uint256)": {
        "details": "Emitted when `value` tokens of token type `id` are transferred from `from` to `to` by `operator`."
      },
      "URI(string,uint256)": {
        "details": "Emitted when the URI for token type `id` changes to `value`, if it is a non-programmatic URI. If an {URI} event was emitted for `id`, the standard https://eips.ethereum.org/EIPS/eip-1155#metadata-extensions[guarantees] that `value` will equal the value returned by {IERC1155MetadataURI-uri}."
      }
    },
    "kind": "dev",
    "methods": {
      "balanceOf(address,uint256)": {
        "details": "See {IERC1155-balanceOf}. Requirements: - `account` cannot be the zero address."
      },
      "balanceOfBatch(address[],uint256[])": {
        "details": "See {IERC1155-balanceOfBatch}. Requirements: - `accounts` and `ids` must have the same length."
      },
      "mint(address,uint256,uint256,bytes)": {
        "details": "See {IERC1155MetadataURI-uri}. This implementation returns the same URI for *all* token types. It relies on the token type ID substitution mechanism https://eips.ethereum.org/EIPS/eip-1155#metadata[defined in the EIP]. Clients calling this function must replace the `\\{id\\}` substring with the actual token type ID."
      },
      "uri(uint256)": {
        "details": "See {IERC1155MetadataURI-uri}. This implementation returns the same URI for *all* token types. It relies on the token type ID substitution mechanism https://eips.ethereum.org/EIPS/eip-1155#metadata[defined in the EIP]. Clients calling this function must replace the `\\{id\\}` substring with the actual token type ID."
      }
    },
    "version": 1
  },
  "userdoc": {
    "kind": "user",
    "methods": {},
    "version": 1
  },
  "storageLayout": {
    "storage": [],
    "types": null
  }
}