{
  "address": "0xb1CEBa0ef1cce5CaDe7F518271984172492be4FC",
  "abi": [
    {
      "inputs": [],
      "name": "MigrationAlreadyCompleted",
      "type": "error"
    },
    {
      "inputs": [],
      "name": "MigrationAlreadyInitiated",
      "type": "error"
    },
    {
      "inputs": [],
      "name": "MigrationNotInitiated",
      "type": "error"
    },
    {
      "anonymous": false,
      "inputs": [
        {
          "indexed": true,
          "internalType": "address",
          "name": "account",
          "type": "address"
        },
        {
          "indexed": true,
          "internalType": "address",
          "name": "operator",
          "type": "address"
        },
        {
          "indexed": false,
          "internalType": "bool",
          "name": "approved",
          "type": "bool"
        }
      ],
      "name": "ApprovalForAll",
      "type": "event"
    },
    {
      "anonymous": false,
      "inputs": [
        {
          "indexed": false,
          "internalType": "string",
          "name": "name",
          "type": "string"
        }
      ],
      "name": "CurrencyNameChanged",
      "type": "event"
    },
    {
      "anonymous": false,
      "inputs": [
        {
          "indexed": false,
          "internalType": "string",
          "name": "name",
          "type": "string"
        }
      ],
      "name": "CurrencySymbolChanged",
      "type": "event"
    },
    {
      "anonymous": false,
      "inputs": [
        {
          "indexed": false,
          "internalType": "address",
          "name": "cancellor",
          "type": "address"
        },
        {
          "indexed": false,
          "internalType": "uint32",
          "name": "timeCancelled",
          "type": "uint32"
        }
      ],
      "name": "MigrationCancelled",
      "type": "event"
    },
    {
      "anonymous": false,
      "inputs": [
        {
          "indexed": false,
          "internalType": "address",
          "name": "initiatior",
          "type": "address"
        },
        {
          "indexed": false,
          "internalType": "uint32",
          "name": "timeInitiatied",
          "type": "uint32"
        }
      ],
      "name": "MigrationInitiated",
      "type": "event"
    },
    {
      "anonymous": false,
      "inputs": [
        {
          "indexed": false,
          "internalType": "address",
          "name": "oldOwner",
          "type": "address"
        },
        {
          "indexed": false,
          "internalType": "address",
          "name": "newOwner",
          "type": "address"
        }
      ],
      "name": "OwnershipChanged",
      "type": "event"
    },
    {
      "anonymous": false,
      "inputs": [
        {
          "indexed": true,
          "internalType": "address",
          "name": "operator",
          "type": "address"
        },
        {
          "indexed": true,
          "internalType": "address",
          "name": "from",
          "type": "address"
        },
        {
          "indexed": true,
          "internalType": "address",
          "name": "to",
          "type": "address"
        },
        {
          "indexed": false,
          "internalType": "uint256[]",
          "name": "ids",
          "type": "uint256[]"
        },
        {
          "indexed": false,
          "internalType": "uint256[]",
          "name": "values",
          "type": "uint256[]"
        }
      ],
      "name": "TransferBatch",
      "type": "event"
    },
    {
      "anonymous": false,
      "inputs": [
        {
          "indexed": true,
          "internalType": "address",
          "name": "operator",
          "type": "address"
        },
        {
          "indexed": true,
          "internalType": "address",
          "name": "from",
          "type": "address"
        },
        {
          "indexed": true,
          "internalType": "address",
          "name": "to",
          "type": "address"
        },
        {
          "indexed": false,
          "internalType": "uint256",
          "name": "id",
          "type": "uint256"
        },
        {
          "indexed": false,
          "internalType": "uint256",
          "name": "value",
          "type": "uint256"
        }
      ],
      "name": "TransferSingle",
      "type": "event"
    },
    {
      "inputs": [
        {
          "internalType": "address",
          "name": "owner",
          "type": "address"
        },
        {
          "internalType": "address",
          "name": "spender",
          "type": "address"
        }
      ],
      "name": "allowance",
      "outputs": [
        {
          "internalType": "uint256",
          "name": "",
          "type": "uint256"
        }
      ],
      "stateMutability": "view",
      "type": "function"
    },
    {
      "inputs": [
        {
          "internalType": "address",
          "name": "spender",
          "type": "address"
        },
        {
          "internalType": "uint256",
          "name": "amount",
          "type": "uint256"
        }
      ],
      "name": "approve",
      "outputs": [
        {
          "internalType": "bool",
          "name": "",
          "type": "bool"
        }
      ],
      "stateMutability": "nonpayable",
      "type": "function"
    },
    {
      "inputs": [
        {
          "internalType": "address",
          "name": "account",
          "type": "address"
        }
      ],
      "name": "balanceOf",
      "outputs": [
        {
          "internalType": "uint256",
          "name": "",
          "type": "uint256"
        }
      ],
      "stateMutability": "view",
      "type": "function"
    },
    {
      "inputs": [],
      "name": "decimals",
      "outputs": [
        {
          "internalType": "uint8",
          "name": "",
          "type": "uint8"
        }
      ],
      "stateMutability": "pure",
      "type": "function"
    },
    {
      "inputs": [],
      "name": "name",
      "outputs": [
        {
          "internalType": "string",
          "name": "",
          "type": "string"
        }
      ],
      "stateMutability": "view",
      "type": "function"
    },
    {
      "inputs": [
        {
          "internalType": "string",
          "name": "_currencyName",
          "type": "string"
        },
        {
          "internalType": "string",
          "name": "_currencySymbol",
          "type": "string"
        }
      ],
      "name": "setCurrencyNames",
      "outputs": [],
      "stateMutability": "nonpayable",
      "type": "function"
    },
    {
      "inputs": [],
      "name": "symbol",
      "outputs": [
        {
          "internalType": "string",
          "name": "",
          "type": "string"
        }
      ],
      "stateMutability": "view",
      "type": "function"
    },
    {
      "inputs": [],
      "name": "totalSupply",
      "outputs": [
        {
          "internalType": "uint256",
          "name": "",
          "type": "uint256"
        }
      ],
      "stateMutability": "view",
      "type": "function"
    },
    {
      "inputs": [
        {
          "internalType": "address",
          "name": "recipient",
          "type": "address"
        },
        {
          "internalType": "uint256",
          "name": "amount",
          "type": "uint256"
        }
      ],
      "name": "transfer",
      "outputs": [
        {
          "internalType": "bool",
          "name": "",
          "type": "bool"
        }
      ],
      "stateMutability": "nonpayable",
      "type": "function"
    },
    {
      "inputs": [
        {
          "internalType": "address",
          "name": "sender",
          "type": "address"
        },
        {
          "internalType": "address",
          "name": "recipient",
          "type": "address"
        },
        {
          "internalType": "uint256",
          "name": "amount",
          "type": "uint256"
        }
      ],
      "name": "transferFrom",
      "outputs": [
        {
          "internalType": "bool",
          "name": "",
          "type": "bool"
        }
      ],
      "stateMutability": "nonpayable",
      "type": "function"
    }
  ],
  "transactionHash": "0x53e12badb48946e57fad0a842b8f11f65ea18966d5b360aa560025469c7a49c5",
  "args": [],
  "numDeployments": 1,
  "solcInputHash": "54a7063fbd1377e55e2032f74c4aa199",
  "bytecode": "0x6080604052348015600e575f5ffd5b50610f328061001c5f395ff3fe608060405234801561000f575f5ffd5b506004361061009b575f3560e01c8063313ce56711610063578063313ce5671461011857806370a082311461012757806395d89b411461013a578063a9059cbb14610142578063dd62ed3e14610155575f5ffd5b806306fdde031461009f578063095ea7b3146100bd5780631091465f146100e057806318160ddd146100f557806323b872dd14610105575b5f5ffd5b6100a7610168565b6040516100b49190610a6e565b60405180910390f35b6100d06100cb366004610aa2565b610177565b60405190151581526020016100b4565b6100f36100ee366004610b7b565b610196565b005b5f5b6040519081526020016100b4565b6100d0610113366004610be0565b610232565b604051601281526020016100b4565b6100f7610135366004610c1a565b610257565b6100a7610293565b6100d0610150366004610aa2565b61029d565b6100f7610163366004610c33565b6102c0565b606061017261031f565b905090565b5f61018c6101836103be565b848415156103c7565b5060015b92915050565b61019e6104e9565b8151156101e6576101ae8261055a565b7f04d3bfc04acc7afdd0529b3c60c8e78efddcb09ae8526934fba70d2eba850d7b826040516101dd9190610a6e565b60405180910390a15b80511561022e576101f681610598565b7f191b78e4c7830532af9978661ba5cd0d90502632d7d06a0d459414b8c3d7eb65816040516102259190610a6e565b60405180910390a15b5050565b5f61024e84845f8560405180602001604052805f8152506105d1565b505f9392505050565b6001600160a01b0381165f9081527fba4f68c463451b56edc468f33dd4d904d1aca5632e9b73a404ed5235b567d69c6020526040812054610190565b606061017261079f565b5f61018c6102a96103be565b845f8560405180602001604052805f8152506105d1565b6001600160a01b038281165f9081527f6469616d6f6e642e73746f726167652e657263313135350000000000000000016020908152604080832093851683529290529081205460ff1680610314575f610317565b5f195b949350505050565b60605f516020610edd5f395f51905f52600101805461033d90610c64565b80601f016020809104026020016040519081016040528092919081815260200182805461036990610c64565b80156103b45780601f1061038b576101008083540402835291602001916103b4565b820191905f5260205f20905b81548152906001019060200180831161039757829003601f168201915b5050505050905090565b5f6101726107bd565b816001600160a01b0316836001600160a01b03160361043f5760405162461bcd60e51b815260206004820152602960248201527f455243313135353a2073657474696e6720617070726f76616c20737461747573604482015268103337b91039b2b63360b91b60648201526084015b60405180910390fd5b6001600160a01b038381165f8181527f6469616d6f6e642e73746f726167652e657263313135350000000000000000016020908152604080832094871680845294825291829020805460ff191686151590811790915582519081529151766469616d6f6e642e73746f726167652e6572633131353560481b9493927f17307eab39ab6107e8899845ad3d59bd9653f200f220920489ca2b5937696c3192908290030190a350505050565b6104f1610810565b6001600160a01b03166105026103be565b6001600160a01b0316146105585760405162461bcd60e51b815260206004820152601b60248201527f4d757374206265207468652045636f73797374656d206f776e657200000000006044820152606401610436565b565b5f516020610edd5f395f51905f527ffe4980b3cded4b6c88aa6ce831c92722d1f8b102c2cc3311eefa15eb3b3845616105938382610ce7565b505050565b5f516020610edd5f395f51905f527ffe4980b3cded4b6c88aa6ce831c92722d1f8b102c2cc3311eefa15eb3b3845626105938382610ce7565b6001600160a01b0384166106355760405162461bcd60e51b815260206004820152602560248201527f455243313135353a207472616e7366657220746f20746865207a65726f206164604482015264647265737360d81b6064820152608401610436565b766469616d6f6e642e73746f726167652e6572633131353560481b5f6106596103be565b90505f61066586610842565b90505f61067186610842565b5f888152602086815260408083206001600160a01b038e168452909152902054909150868110156106f75760405162461bcd60e51b815260206004820152602a60248201527f455243313135353a20696e73756666696369656e742062616c616e636520666f60448201526939103a3930b739b332b960b11b6064820152608401610436565b5f888152602086815260408083206001600160a01b038e8116855292528083208a85039055908b16825281208054899290610733908490610da2565b909155505060408051898152602081018990526001600160a01b03808c16928d821692918816917fc3d58168c5ae7397731d063d5bbf3d657854427343f4c083240f7aacaa2d0f62910160405180910390a4610793848b8b8b8b8b61088b565b50505050505050505050565b60605f516020610edd5f395f51905f52600201805461033d90610c64565b5f601436108015906107f857507f413a4c31c13c7c3de0c7da37be5d779b152baf3f21a1cb760fda41eb8ca97776546001600160a01b031633145b1561080a575060131936013560601c90565b50335b90565b5f6101727fd00049dc7109015045860694acecd3dc33338404aaf6e55a1c98a2bf41477b85546001600160a01b031690565b6040805160018082528183019092526060915f91906020808301908036833701905050905082815f8151811061087a5761087a610dc1565b602090810291909101015292915050565b6001600160a01b0384163b15610a38576001600160a01b0384163014610a385760405163f23a6e6160e01b81526001600160a01b0385169063f23a6e61906108df9089908990889088908890600401610dd5565b6020604051808303815f875af1925050508015610919575060408051601f3d908101601f1916820190925261091691810190610e19565b60015b6109c557610925610e40565b806308c379a00361095e5750610939610e58565b806109445750610960565b8060405162461bcd60e51b81526004016104369190610a6e565b505b60405162461bcd60e51b815260206004820152603460248201527f455243313135353a207472616e7366657220746f206e6f6e2d455243313135356044820152732932b1b2b4bb32b91034b6b83632b6b2b73a32b960611b6064820152608401610436565b6001600160e01b0319811663f23a6e6160e01b14610a365760405162461bcd60e51b815260206004820152602860248201527f455243313135353a204552433131353552656365697665722072656a656374656044820152676420746f6b656e7360c01b6064820152608401610436565b505b505050505050565b5f81518084528060208401602086015e5f602082860101526020601f19601f83011685010191505092915050565b602081525f610a806020830184610a40565b9392505050565b80356001600160a01b0381168114610a9d575f5ffd5b919050565b5f5f60408385031215610ab3575f5ffd5b610abc83610a87565b946020939093013593505050565b634e487b7160e01b5f52604160045260245ffd5b601f8201601f1916810167ffffffffffffffff81118282101715610b0457610b04610aca565b6040525050565b5f82601f830112610b1a575f5ffd5b813567ffffffffffffffff811115610b3457610b34610aca565b604051610b4b601f8301601f191660200182610ade565b818152846020838601011115610b5f575f5ffd5b816020850160208301375f918101602001919091529392505050565b5f5f60408385031215610b8c575f5ffd5b823567ffffffffffffffff811115610ba2575f5ffd5b610bae85828601610b0b565b925050602083013567ffffffffffffffff811115610bca575f5ffd5b610bd685828601610b0b565b9150509250929050565b5f5f5f60608486031215610bf2575f5ffd5b610bfb84610a87565b9250610c0960208501610a87565b929592945050506040919091013590565b5f60208284031215610c2a575f5ffd5b610a8082610a87565b5f5f60408385031215610c44575f5ffd5b610c4d83610a87565b9150610c5b60208401610a87565b90509250929050565b600181811c90821680610c7857607f821691505b602082108103610c9657634e487b7160e01b5f52602260045260245ffd5b50919050565b601f82111561059357805f5260205f20601f840160051c81016020851015610cc15750805b601f840160051c820191505b81811015610ce0575f8155600101610ccd565b5050505050565b815167ffffffffffffffff811115610d0157610d01610aca565b610d1581610d0f8454610c64565b84610c9c565b6020601f821160018114610d47575f8315610d305750848201515b5f19600385901b1c1916600184901b178455610ce0565b5f84815260208120601f198516915b82811015610d765787850151825560209485019460019092019101610d56565b5084821015610d9357868401515f19600387901b60f8161c191681555b50505050600190811b01905550565b8082018082111561019057634e487b7160e01b5f52601160045260245ffd5b634e487b7160e01b5f52603260045260245ffd5b6001600160a01b03868116825285166020820152604081018490526060810183905260a0608082018190525f90610e0e90830184610a40565b979650505050505050565b5f60208284031215610e29575f5ffd5b81516001600160e01b031981168114610a80575f5ffd5b5f60033d111561080d5760045f5f3e505f5160e01c90565b5f60443d1015610e655790565b6040513d600319016004823e80513d602482011167ffffffffffffffff82111715610e8f57505090565b808201805167ffffffffffffffff811115610eab575050505090565b3d8401600319018282016020011115610ec5575050505090565b610ed460208285010185610ade565b50939250505056fefe4980b3cded4b6c88aa6ce831c92722d1f8b102c2cc3311eefa15eb3b384560a2646970667358221220b50960871b68d0bd518b210271eb76a42bf4a752703bf4b92028cc5ea486351364736f6c634300081c0033",
  "devdoc": {
    "events": {
      "ApprovalForAll(address,address,bool)": {
        "details": "Emitted when `account` grants or revokes permission to `operator` to transfer their tokens, according to `approved`."
      },
      "TransferBatch(address,address,address,uint256[],uint256[])": {
        "details": "Equivalent to multiple {TransferSingle} events, where `operator`, `from` and `to` are the same for all transfers."
      },
      "TransferSingle(address,address,address,uint256,uint256)": {
        "details": "Emitted when `value` tokens of token type `id` are transferred from `from` to `to` by `operator`."
      }
    },
    "kind": "dev",
    "methods": {},
    "version": 1
  },
  "userdoc": {
    "kind": "user",
    "methods": {},
    "version": 1
  },
  "storageLayout": {
    "storage": [],
    "types": null
  }
}