{
  "address": "0x471D34cBA4dDad233B6a563Fca774a74bFa3EA4E",
  "abi": [
    {
      "inputs": [],
      "name": "MigrationAlreadyCompleted",
      "type": "error"
    },
    {
      "inputs": [],
      "name": "MigrationAlreadyInitiated",
      "type": "error"
    },
    {
      "inputs": [],
      "name": "MigrationNotInitiated",
      "type": "error"
    },
    {
      "anonymous": false,
      "inputs": [
        {
          "indexed": false,
          "internalType": "address",
          "name": "cancellor",
          "type": "address"
        },
        {
          "indexed": false,
          "internalType": "uint32",
          "name": "timeCancelled",
          "type": "uint32"
        }
      ],
      "name": "MigrationCancelled",
      "type": "event"
    },
    {
      "anonymous": false,
      "inputs": [
        {
          "indexed": false,
          "internalType": "address",
          "name": "initiatior",
          "type": "address"
        },
        {
          "indexed": false,
          "internalType": "uint32",
          "name": "timeInitiatied",
          "type": "uint32"
        }
      ],
      "name": "MigrationInitiated",
      "type": "event"
    },
    {
      "anonymous": false,
      "inputs": [
        {
          "indexed": false,
          "internalType": "address",
          "name": "oldOwner",
          "type": "address"
        },
        {
          "indexed": false,
          "internalType": "address",
          "name": "newOwner",
          "type": "address"
        }
      ],
      "name": "OwnershipChanged",
      "type": "event"
    },
    {
      "anonymous": false,
      "inputs": [
        {
          "indexed": false,
          "internalType": "address",
          "name": "sender",
          "type": "address"
        },
        {
          "indexed": false,
          "internalType": "uint256",
          "name": "tokenId",
          "type": "uint256"
        },
        {
          "indexed": false,
          "internalType": "uint256",
          "name": "salePrice",
          "type": "uint256"
        },
        {
          "indexed": false,
          "internalType": "uint256",
          "name": "royaltyAmount",
          "type": "uint256"
        }
      ],
      "name": "RoyaltyFeeAccessed",
      "type": "event"
    },
    {
      "inputs": [
        {
          "internalType": "uint256",
          "name": "tokenId",
          "type": "uint256"
        },
        {
          "internalType": "uint256",
          "name": "salePrice",
          "type": "uint256"
        }
      ],
      "name": "royaltyInfo",
      "outputs": [
        {
          "internalType": "address",
          "name": "receiver",
          "type": "address"
        },
        {
          "internalType": "uint256",
          "name": "royaltyAmount",
          "type": "uint256"
        }
      ],
      "stateMutability": "nonpayable",
      "type": "function"
    }
  ],
  "transactionHash": "0xf5da617489aa3c64df4feaa528525226e64f680c9fbf2191599ed4f84b029cc1",
  "args": [],
  "numDeployments": 1,
  "solcInputHash": "54a7063fbd1377e55e2032f74c4aa199",
  "bytecode": "0x6080604052348015600e575f5ffd5b5061027e8061001c5f395ff3fe608060405234801561000f575f5ffd5b5060043610610029575f3560e01c80632a55205a1461002d575b5f5ffd5b61004061003b3660046101e0565b610063565b604080516001600160a01b03909316835260208301919091520160405180910390f35b5f5f61006f8484610078565b50509250929050565b5f8281527f7a8949a66712f1d1ae515adbd4b0835db540861dfc3638f5ebc928c2d0736d27602052604081205481907f7a8949a66712f1d1ae515adbd4b0835db540861dfc3638f5ebc928c2d0736d249062ffffff166100d6610153565b9350620186a06100e68287610200565b6100f09190610229565b92507f7f77c4eed56195ffbb28b2027ed5ab9327503b3a0bb1e589d1a149d0e2bb33c361011b61018a565b604080516001600160a01b0390921682526020820189905281018790526060810185905260800160405180910390a150509250929050565b5f6101857fd00049dc7109015045860694acecd3dc33338404aaf6e55a1c98a2bf41477b85546001600160a01b031690565b905090565b5f6101855f601436108015906101c957507f413a4c31c13c7c3de0c7da37be5d779b152baf3f21a1cb760fda41eb8ca97776546001600160a01b031633145b156101db575060131936013560601c90565b503390565b5f5f604083850312156101f1575f5ffd5b50508035926020909101359150565b808202811582820484141761022357634e487b7160e01b5f52601160045260245ffd5b92915050565b5f8261024357634e487b7160e01b5f52601260045260245ffd5b50049056fea264697066735822122019cea535de140d162a3ffca009767fdb7853752b63b056dde31f890623a12df764736f6c634300081c0033",
  "devdoc": {
    "kind": "dev",
    "methods": {},
    "version": 1
  },
  "userdoc": {
    "kind": "user",
    "methods": {},
    "version": 1
  },
  "storageLayout": {
    "storage": [],
    "types": null
  }
}