{
  "address": "0x2A90CD9ef24120160968784C0442fD70A2A44cc1",
  "abi": [
    {
      "inputs": [],
      "name": "MigrationAlreadyCompleted",
      "type": "error"
    },
    {
      "inputs": [],
      "name": "MigrationAlreadyInitiated",
      "type": "error"
    },
    {
      "inputs": [],
      "name": "MigrationNotInitiated",
      "type": "error"
    },
    {
      "anonymous": false,
      "inputs": [
        {
          "indexed": true,
          "internalType": "address",
          "name": "account",
          "type": "address"
        },
        {
          "indexed": true,
          "internalType": "address",
          "name": "operator",
          "type": "address"
        },
        {
          "indexed": false,
          "internalType": "bool",
          "name": "approved",
          "type": "bool"
        }
      ],
      "name": "ApprovalForAll",
      "type": "event"
    },
    {
      "anonymous": false,
      "inputs": [
        {
          "indexed": false,
          "internalType": "uint256",
          "name": "eventId",
          "type": "uint256"
        }
      ],
      "name": "EventActivated",
      "type": "event"
    },
    {
      "anonymous": false,
      "inputs": [
        {
          "indexed": false,
          "internalType": "uint256",
          "name": "eventId",
          "type": "uint256"
        }
      ],
      "name": "EventDeactivated",
      "type": "event"
    },
    {
      "anonymous": false,
      "inputs": [
        {
          "indexed": false,
          "internalType": "uint256",
          "name": "eventId",
          "type": "uint256"
        },
        {
          "indexed": false,
          "internalType": "uint32",
          "name": "startTime",
          "type": "uint32"
        },
        {
          "indexed": false,
          "internalType": "uint32",
          "name": "endTime",
          "type": "uint32"
        },
        {
          "indexed": false,
          "internalType": "uint256",
          "name": "minEntries",
          "type": "uint256"
        },
        {
          "indexed": false,
          "internalType": "uint256",
          "name": "maxEntries",
          "type": "uint256"
        },
        {
          "indexed": false,
          "internalType": "string",
          "name": "imageUri",
          "type": "string"
        },
        {
          "indexed": false,
          "internalType": "uint256",
          "name": "maxEntriesPerUser",
          "type": "uint256"
        },
        {
          "indexed": false,
          "internalType": "enum LibEventFactory.EventStatus",
          "name": "status",
          "type": "uint8"
        }
      ],
      "name": "EventDetails",
      "type": "event"
    },
    {
      "anonymous": false,
      "inputs": [
        {
          "indexed": false,
          "internalType": "uint256",
          "name": "eventId",
          "type": "uint256"
        },
        {
          "indexed": false,
          "internalType": "uint32",
          "name": "addedTime",
          "type": "uint32"
        }
      ],
      "name": "EventExtended",
      "type": "event"
    },
    {
      "anonymous": false,
      "inputs": [
        {
          "indexed": false,
          "internalType": "uint256",
          "name": "eventId",
          "type": "uint256"
        },
        {
          "indexed": false,
          "internalType": "string",
          "name": "imageUri",
          "type": "string"
        }
      ],
      "name": "ImageUriUpdated",
      "type": "event"
    },
    {
      "anonymous": false,
      "inputs": [
        {
          "indexed": false,
          "internalType": "address",
          "name": "cancellor",
          "type": "address"
        },
        {
          "indexed": false,
          "internalType": "uint32",
          "name": "timeCancelled",
          "type": "uint32"
        }
      ],
      "name": "MigrationCancelled",
      "type": "event"
    },
    {
      "anonymous": false,
      "inputs": [
        {
          "indexed": false,
          "internalType": "address",
          "name": "initiatior",
          "type": "address"
        },
        {
          "indexed": false,
          "internalType": "uint32",
          "name": "timeInitiatied",
          "type": "uint32"
        }
      ],
      "name": "MigrationInitiated",
      "type": "event"
    },
    {
      "anonymous": false,
      "inputs": [
        {
          "indexed": false,
          "internalType": "address",
          "name": "oldOwner",
          "type": "address"
        },
        {
          "indexed": false,
          "internalType": "address",
          "name": "newOwner",
          "type": "address"
        }
      ],
      "name": "OwnershipChanged",
      "type": "event"
    },
    {
      "anonymous": false,
      "inputs": [
        {
          "indexed": false,
          "internalType": "uint256",
          "name": "eventId",
          "type": "uint256"
        },
        {
          "indexed": false,
          "internalType": "bytes32",
          "name": "merkleRoot",
          "type": "bytes32"
        }
      ],
      "name": "RefundsEnabled",
      "type": "event"
    },
    {
      "anonymous": false,
      "inputs": [
        {
          "indexed": false,
          "internalType": "uint256",
          "name": "eventId",
          "type": "uint256"
        },
        {
          "indexed": false,
          "internalType": "uint256[]",
          "name": "ticketIds",
          "type": "uint256[]"
        }
      ],
      "name": "TicketDetails",
      "type": "event"
    },
    {
      "anonymous": false,
      "inputs": [
        {
          "indexed": false,
          "internalType": "uint256",
          "name": "eventId",
          "type": "uint256"
        },
        {
          "indexed": false,
          "internalType": "uint256[]",
          "name": "ticketIds",
          "type": "uint256[]"
        },
        {
          "indexed": false,
          "internalType": "uint256[]",
          "name": "amounts",
          "type": "uint256[]"
        }
      ],
      "name": "TicketRedeemed",
      "type": "event"
    },
    {
      "anonymous": false,
      "inputs": [
        {
          "indexed": false,
          "internalType": "uint256",
          "name": "eventId",
          "type": "uint256"
        },
        {
          "indexed": false,
          "internalType": "uint256",
          "name": "ticketId",
          "type": "uint256"
        },
        {
          "indexed": false,
          "internalType": "uint256",
          "name": "amount",
          "type": "uint256"
        }
      ],
      "name": "TicketRefunded",
      "type": "event"
    },
    {
      "anonymous": false,
      "inputs": [
        {
          "indexed": true,
          "internalType": "address",
          "name": "operator",
          "type": "address"
        },
        {
          "indexed": true,
          "internalType": "address",
          "name": "from",
          "type": "address"
        },
        {
          "indexed": true,
          "internalType": "address",
          "name": "to",
          "type": "address"
        },
        {
          "indexed": false,
          "internalType": "uint256[]",
          "name": "ids",
          "type": "uint256[]"
        },
        {
          "indexed": false,
          "internalType": "uint256[]",
          "name": "values",
          "type": "uint256[]"
        }
      ],
      "name": "TransferBatch",
      "type": "event"
    },
    {
      "anonymous": false,
      "inputs": [
        {
          "indexed": true,
          "internalType": "address",
          "name": "operator",
          "type": "address"
        },
        {
          "indexed": true,
          "internalType": "address",
          "name": "from",
          "type": "address"
        },
        {
          "indexed": true,
          "internalType": "address",
          "name": "to",
          "type": "address"
        },
        {
          "indexed": false,
          "internalType": "uint256",
          "name": "id",
          "type": "uint256"
        },
        {
          "indexed": false,
          "internalType": "uint256",
          "name": "value",
          "type": "uint256"
        }
      ],
      "name": "TransferSingle",
      "type": "event"
    },
    {
      "inputs": [
        {
          "internalType": "uint32",
          "name": "_startTime",
          "type": "uint32"
        },
        {
          "internalType": "uint32",
          "name": "_endTime",
          "type": "uint32"
        },
        {
          "internalType": "uint256",
          "name": "_minEntries",
          "type": "uint256"
        },
        {
          "internalType": "uint256",
          "name": "_maxEntries",
          "type": "uint256"
        },
        {
          "internalType": "string",
          "name": "_imageUri",
          "type": "string"
        },
        {
          "internalType": "uint256[]",
          "name": "_ticketIds",
          "type": "uint256[]"
        },
        {
          "internalType": "uint256",
          "name": "_maxEntriesPerUser",
          "type": "uint256"
        }
      ],
      "name": "createEvent",
      "outputs": [
        {
          "internalType": "uint256",
          "name": "",
          "type": "uint256"
        }
      ],
      "stateMutability": "nonpayable",
      "type": "function"
    },
    {
      "inputs": [
        {
          "internalType": "uint256",
          "name": "eventId",
          "type": "uint256"
        },
        {
          "internalType": "bytes32",
          "name": "root",
          "type": "bytes32"
        }
      ],
      "name": "deactivateEvent",
      "outputs": [],
      "stateMutability": "nonpayable",
      "type": "function"
    },
    {
      "inputs": [
        {
          "internalType": "uint256",
          "name": "eventId",
          "type": "uint256"
        },
        {
          "internalType": "uint32",
          "name": "addedTime",
          "type": "uint32"
        }
      ],
      "name": "extendEvent",
      "outputs": [],
      "stateMutability": "nonpayable",
      "type": "function"
    },
    {
      "inputs": [
        {
          "internalType": "uint256",
          "name": "eventId",
          "type": "uint256"
        },
        {
          "internalType": "uint256[]",
          "name": "ticketIds",
          "type": "uint256[]"
        },
        {
          "internalType": "uint256[]",
          "name": "amounts",
          "type": "uint256[]"
        }
      ],
      "name": "redeemTickets",
      "outputs": [],
      "stateMutability": "nonpayable",
      "type": "function"
    },
    {
      "inputs": [
        {
          "internalType": "uint256",
          "name": "eventId",
          "type": "uint256"
        },
        {
          "internalType": "uint256[]",
          "name": "ticketIds",
          "type": "uint256[]"
        },
        {
          "internalType": "address",
          "name": "lowerBound",
          "type": "address"
        },
        {
          "internalType": "address",
          "name": "upperBound",
          "type": "address"
        },
        {
          "internalType": "bytes32[]",
          "name": "merkleProof",
          "type": "bytes32[]"
        }
      ],
      "name": "refundTicketsWithProof",
      "outputs": [],
      "stateMutability": "nonpayable",
      "type": "function"
    },
    {
      "inputs": [
        {
          "internalType": "uint256",
          "name": "eventId",
          "type": "uint256"
        },
        {
          "internalType": "string",
          "name": "imageUri",
          "type": "string"
        }
      ],
      "name": "setImageUri",
      "outputs": [],
      "stateMutability": "nonpayable",
      "type": "function"
    },
    {
      "inputs": [
        {
          "internalType": "uint256",
          "name": "eventId",
          "type": "uint256"
        },
        {
          "internalType": "bytes32",
          "name": "root",
          "type": "bytes32"
        }
      ],
      "name": "setMerkleRoot",
      "outputs": [],
      "stateMutability": "nonpayable",
      "type": "function"
    }
  ],
  "transactionHash": "0x1166fc2dd324d8661e4f76d8aeed0b01a040e19497b14e6c31da8f402b2227a7",
  "args": [],
  "numDeployments": 1,
  "solcInputHash": "54a7063fbd1377e55e2032f74c4aa199",
  "bytecode": "0x6080604052348015600e575f5ffd5b50611f208061001c5f395ff3fe608060405234801561000f575f5ffd5b506004361061007a575f3560e01c80639486dbb9116100585780639486dbb9146100b9578063bf81838a146100de578063faa50303146100f1578063fee4557f14610104575f5ffd5b806315011d131461007e57806318712c211461009357806341e97bd6146100a6575b5f5ffd5b61009161008c366004611692565b610117565b005b6100916100a1366004611692565b61012d565b6100916100b43660046117d3565b610152565b6100cc6100c7366004611878565b610168565b60405190815260200160405180910390f35b6100916100ec36600461194b565b6101c4565b6100916100ff3660046119c2565b610237565b6100916101123660046119ec565b610249565b61011f61026e565b61012982826102e4565b5050565b6101356103cf565b6001600160a01b0316610146610406565b5050610129828261040f565b610160868686868686610555565b505050505050565b5f61017161026e565b6101b78989898989898080601f0160208091040260200160405190810160405280939291908181526020018383808284375f920191909152508b92508a915061077c9050565b9998505050505050505050565b610230858585808060200260200160405190810160405280939291908181526020018383602002808284375f92019190915250506040805160208089028281018201909352888252909350889250879182918501908490808284375f92019190915250610a2292505050565b5050505050565b61023f61026e565b6101298282610dd8565b6102516103cf565b6001600160a01b0316610262610406565b50506101298282610e72565b6102766103cf565b6001600160a01b0316610287610406565b6001600160a01b0316146102e25760405162461bcd60e51b815260206004820152601b60248201527f4d757374206265207468652045636f73797374656d206f776e6572000000000060448201526064015b60405180910390fd5b565b5f6102ee83610f14565b90506001600582015460ff16600381111561030b5761030b611a8c565b148061032e57505f600582015460ff16600381111561032c5761032c611a8c565b145b61037a5760405162461bcd60e51b815260206004820152601c60248201527f4576656e742068617320616c7265616479207465726d696e617465640000000060448201526064016102d9565b60058101805460ff191660021790556040518381527f9bec5b77a290657edefc9defa075c60a874e90f7cc9496853ca9962d58a4ffdd9060200160405180910390a181156103ca57600681018290555b505050565b5f6104017fd00049dc7109015045860694acecd3dc33338404aaf6e55a1c98a2bf41477b85546001600160a01b031690565b905090565b5f610401610fc0565b5f61041983610f14565b600581015490915060ff16600281600381111561043857610438611a8c565b14806104555750600381600381111561045357610453611a8c565b145b6104a15760405162461bcd60e51b815260206004820152601760248201527f4576656e74206d7573742062652066696e69736865642e00000000000000000060448201526064016102d9565b6006820154801561050d5760405162461bcd60e51b815260206004820152603060248201527f4d65726b6c6520726f6f742068617320616c7265616479206265656e2073657460448201526f103337b9103a3434b99032bb32b73a1760811b60648201526084016102d9565b6006830184905560408051868152602081018390527f4c0e452f95fa86af40b69d94e1ac2273e0fe6a68b007a4f05297a34b31c6211b91015b60405180910390a15050505050565b5f61055f87610f14565b905061056e8786868686611013565b6105ae5760405162461bcd60e51b8152602060048201526011602482015270141c9bdbd9881dd85cc81a5b9d985b1a59607a1b60448201526064016102d9565b5f5b8651811015610772575f826008015f6105c7610406565b6001600160a01b03166001600160a01b031681526020019081526020015f205f8984815181106105f9576105f9611aa0565b602002602001015181526020019081526020015f205490505f81116106605760405162461bcd60e51b815260206004820181905260248201527f4e6f207469636b65747320746f20726566756e6420666f72207468697320494460448201526064016102d9565b6001836003015f8282546106749190611ac8565b909155505f90506008840181610688610406565b6001600160a01b03166001600160a01b031681526020019081526020015f205f8a85815181106106ba576106ba611aa0565b602002602001015181526020019081526020015f208190555061070e306106df610406565b8a85815181106106f1576106f1611aa0565b60200260200101518460405180602001604052805f815250611161565b7fec9cd194e8c09237d75a9bd5892bc74482c824973dc58dc66f578df07f3ab23c8989848151811061074257610742611aa0565b6020908102919091018101516040805193845291830152810183905260600160405180910390a1506001016105b0565b5050505050505050565b5f7fd6270f957350f3d1a8daf6ddd325f6048f15afc2b88cdc50d3db0507046ca2956107a9600142611ac8565b8863ffffffff161161080b5760405162461bcd60e51b815260206004820152602560248201527f4d757374206265206e6f6e2d7472697669616c206576656e742074696d652077604482015264696e646f7760d81b60648201526084016102d9565b5f86116108665760405162461bcd60e51b8152602060048201526024808201527f4d7573742068617665206e6f6e2d7472697669616c20656e7472616e7420616d6044820152631bdd5b9d60e21b60648201526084016102d9565b5f89898989894260405160200161088296959493929190611adb565b60408051808303601f1901815291815281516020928301205f81815260028601909352912054909150640100000000900463ffffffff16156108fd5760405162461bcd60e51b8152602060048201526014602482015273115d995b9d081b5d5cdd081b9bdd08195e1a5cdd60621b60448201526064016102d9565b5f81815260028084016020526040909120805463ffffffff8c81166401000000000267ffffffffffffffff19909216908e1617178155600181018a90559081018890556004810161094e8882611ba9565b508a63ffffffff164263ffffffff161061096957600161096b565b5f5b60058201805460ff1916600183600381111561098957610989611a8c565b021790555060058101546040517fc37718a716de3e3514a648dd2693124bf41a17a81a7580714e58ac0259113718916109d39185918f918f918f918f918f918e9160ff1690611c91565b60405180910390a17f7dc985464b2053862162dfeac562684005dccaffae073c5d1b83ed5c6fea99928287604051610a0c929190611d40565b60405180910390a1509998505050505050505050565b5f610a2c84610f14565b6005810154815491925060ff169063ffffffff164210801590610a5e57508154640100000000900463ffffffff164211155b610a9d5760405162461bcd60e51b815260206004820152601060248201526f4576656e74206e6f742061637469766560801b60448201526064016102d9565b8251845114610aff5760405162461bcd60e51b815260206004820152602860248201527f4d69736d617463686564207469636b657449647320616e6420616d6f756e7473604482015267206c656e6774687360c01b60648201526084016102d9565b5f816003811115610b1257610b12611a8c565b03610b5a5760058201805460ff191660011790556040518581527ff5e10d7e08bcf93445bcb9f1e3b9f66dcd1431f0bb8befcfccab7fe5d387273b9060200160405180910390a15b5f5b8451811015610da4575f610b8987878481518110610b7c57610b7c611aa0565b6020026020010151611335565b9050836002015484600301546001610ba19190611d60565b1115610be75760405162461bcd60e51b8152602060048201526015602482015274457863656564696e67206d617820656e747269657360581b60448201526064016102d9565b805f0154858381518110610bfd57610bfd611aa0565b602002602001015110158015610c3057508060010154858381518110610c2557610c25611aa0565b602002602001015111155b610c745760405162461bcd60e51b8152602060048201526015602482015274125b9d985b1a59081d1a58dad95d08185b5bdd5b9d605a1b60448201526064016102d9565b610ca26040518060400160405280600d81526020016c6164647265737328746869732960981b815250611359565b610cab3061139f565b610cff610cb6610406565b30888581518110610cc957610cc9611aa0565b6020026020010151888681518110610ce357610ce3611aa0565b602002602001015160405180602001604052805f815250611161565b6001846003015f828254610d139190611d60565b92505081905550848281518110610d2c57610d2c611aa0565b6020026020010151846008015f610d41610406565b6001600160a01b03166001600160a01b031681526020019081526020015f205f888581518110610d7357610d73611aa0565b602002602001015181526020019081526020015f205f828254610d969190611d60565b909155505050600101610b5c565b507fde6d23a509cb93ef4386ac9d175fdd60bb46e74140e6216ebb00b3232c108a7285858560405161054693929190611d73565b5f610de283610f14565b805490915082908290600490610e07908490640100000000900463ffffffff16611da7565b92506101000a81548163ffffffff021916908363ffffffff1602179055507f9427ae61d55f3f11a26469a6854a9b85512ec245dc64f68653cfd41a945857f88383604051610e6592919091825263ffffffff16602082015260400190565b60405180910390a1505050565b5f610e7c83610f14565b8054909150640100000000900463ffffffff165f03610ed45760405162461bcd60e51b8152602060048201526014602482015273115d995b9d08191bd95cc81b9bdd08195e1a5cdd60621b60448201526064016102d9565b60048101610ee28382611ba9565b507fdbead81d714a5045b8e4f4f8d65f29c31ee4ee5242ad755bc4d41a2bdb8bf7998383604051610e65929190611dc3565b5f8181527fd6270f957350f3d1a8daf6ddd325f6048f15afc2b88cdc50d3db0507046ca29760205260408120547fd6270f957350f3d1a8daf6ddd325f6048f15afc2b88cdc50d3db0507046ca2959063ffffffff168203610fae5760405162461bcd60e51b8152602060048201526014602482015273115d995b9d08191bd95cc81b9bdd08195e1a5cdd60621b60448201526064016102d9565b5f928352600201602052506040902090565b5f60143610801590610ffb57507f413a4c31c13c7c3de0c7da37be5d779b152baf3f21a1cb760fda41eb8ca97776546001600160a01b031633145b1561100d575060131936013560601c90565b50335b90565b5f5f61101e87610f14565b9050611028610406565b6001600160a01b0316866001600160a01b03161080156110605750846001600160a01b0316611055610406565b6001600160a01b0316105b6110be5760405162461bcd60e51b815260206004820152602960248201527f53656e646572206973206e6f742077697468696e20746865206578636c757369604482015268766520626f756e647360b81b60648201526084016102d9565b604080516001600160a01b0380891660208301528716918101919091525f9060600160408051601f19818403018152828252805160209182012090830152016040516020818303038152906040528051906020012090506111558585808060200260200160405190810160405280939291908181526020018383602002808284375f920191909152505050506006840154836113e7565b98975050505050505050565b6001600160a01b0384166111c55760405162461bcd60e51b815260206004820152602560248201527f455243313135353a207472616e7366657220746f20746865207a65726f206164604482015264647265737360d81b60648201526084016102d9565b7f6469616d6f6e642e73746f726167652e657263313135350000000000000000005f6111ef610406565b90505f6111fb866113fc565b90505f611207866113fc565b5f888152602086815260408083206001600160a01b038e1684529091529020549091508681101561128d5760405162461bcd60e51b815260206004820152602a60248201527f455243313135353a20696e73756666696369656e742062616c616e636520666f60448201526939103a3930b739b332b960b11b60648201526084016102d9565b5f888152602086815260408083206001600160a01b038e8116855292528083208a85039055908b168252812080548992906112c9908490611d60565b909155505060408051898152602081018990526001600160a01b03808c16928d821692918816917fc3d58168c5ae7397731d063d5bbf3d657854427343f4c083240f7aacaa2d0f62910160405180910390a4611329848b8b8b8b8b611445565b50505050505050505050565b5f61133f83610f14565b5f8381526007919091016020526040902090505b92915050565b61139c8160405160240161136d9190611ddb565b60408051601f198184030181529190526020810180516001600160e01b031663104c13eb60e21b1790526115f9565b50565b6040516001600160a01b038216602482015261139c9060440160408051601f198184030181529190526020810180516001600160e01b031663161765e160e11b1790526115f9565b5f826113f38584611602565b14949350505050565b6040805160018082528183019092526060915f91906020808301908036833701905050905082815f8151811061143457611434611aa0565b602090810291909101015292915050565b6001600160a01b0384163b15610160576001600160a01b03841630146101605760405163f23a6e6160e01b81526001600160a01b0385169063f23a6e61906114999089908990889088908890600401611ded565b6020604051808303815f875af19250505080156114d3575060408051601f3d908101601f191682019092526114d091810190611e31565b60015b61157f576114df611e58565b806308c379a00361151857506114f3611e70565b806114fe575061151a565b8060405162461bcd60e51b81526004016102d99190611ddb565b505b60405162461bcd60e51b815260206004820152603460248201527f455243313135353a207472616e7366657220746f206e6f6e2d455243313135356044820152732932b1b2b4bb32b91034b6b83632b6b2b73a32b960611b60648201526084016102d9565b6001600160e01b0319811663f23a6e6160e01b146115f05760405162461bcd60e51b815260206004820152602860248201527f455243313135353a204552433131353552656365697665722072656a656374656044820152676420746f6b656e7360c01b60648201526084016102d9565b50505050505050565b61139c81611644565b5f81815b845181101561163c576116328286838151811061162557611625611aa0565b6020026020010151611663565b9150600101611606565b509392505050565b5f6a636f6e736f6c652e6c6f6790505f5f835160208501845afa505050565b5f81831061167d575f82815260208490526040902061168b565b5f8381526020839052604090205b9392505050565b5f5f604083850312156116a3575f5ffd5b50508035926020909101359150565b634e487b7160e01b5f52604160045260245ffd5b601f8201601f191681016001600160401b03811182821017156116eb576116eb6116b2565b6040525050565b5f82601f830112611701575f5ffd5b81356001600160401b0381111561171a5761171a6116b2565b8060051b60405161172e60208301826116c6565b918252602081850181019290810186841115611748575f5ffd5b6020860192505b8383101561176757823581526020928301920161174f565b5095945050505050565b80356001600160a01b0381168114611787575f5ffd5b919050565b5f5f83601f84011261179c575f5ffd5b5081356001600160401b038111156117b2575f5ffd5b6020830191508360208260051b85010111156117cc575f5ffd5b9250929050565b5f5f5f5f5f5f60a087890312156117e8575f5ffd5b8635955060208701356001600160401b03811115611804575f5ffd5b61181089828a016116f2565b95505061181f60408801611771565b935061182d60608801611771565b925060808701356001600160401b03811115611847575f5ffd5b61185389828a0161178c565b979a9699509497509295939492505050565b803563ffffffff81168114611787575f5ffd5b5f5f5f5f5f5f5f5f60e0898b03121561188f575f5ffd5b61189889611865565b97506118a660208a01611865565b9650604089013595506060890135945060808901356001600160401b038111156118ce575f5ffd5b8901601f81018b136118de575f5ffd5b80356001600160401b038111156118f3575f5ffd5b8b6020828401011115611904575f5ffd5b6020919091019450925060a08901356001600160401b03811115611926575f5ffd5b6119328b828c016116f2565b989b979a50959894979396929550929360c00135925050565b5f5f5f5f5f6060868803121561195f575f5ffd5b8535945060208601356001600160401b0381111561197b575f5ffd5b6119878882890161178c565b90955093505060408601356001600160401b038111156119a5575f5ffd5b6119b18882890161178c565b969995985093965092949392505050565b5f5f604083850312156119d3575f5ffd5b823591506119e360208401611865565b90509250929050565b5f5f604083850312156119fd575f5ffd5b8235915060208301356001600160401b03811115611a19575f5ffd5b8301601f81018513611a29575f5ffd5b80356001600160401b03811115611a4257611a426116b2565b604051611a59601f8301601f1916602001826116c6565b818152866020838501011115611a6d575f5ffd5b816020840160208301375f602083830101528093505050509250929050565b634e487b7160e01b5f52602160045260245ffd5b634e487b7160e01b5f52603260045260245ffd5b634e487b7160e01b5f52601160045260245ffd5b8181038181111561135357611353611ab4565b63ffffffff60e01b8760e01b16815263ffffffff60e01b8660e01b1660048201528460088201528360288201525f83518060208601604885015e60489201918201929092526068019695505050505050565b600181811c90821680611b4157607f821691505b602082108103611b5f57634e487b7160e01b5f52602260045260245ffd5b50919050565b601f8211156103ca57805f5260205f20601f840160051c81016020851015611b8a5750805b601f840160051c820191505b81811015610230575f8155600101611b96565b81516001600160401b03811115611bc257611bc26116b2565b611bd681611bd08454611b2d565b84611b65565b6020601f821160018114611c08575f8315611bf15750848201515b5f19600385901b1c1916600184901b178455610230565b5f84815260208120601f198516915b82811015611c375787850151825560209485019460019092019101611c17565b5084821015611c5457868401515f19600387901b60f8161c191681555b50505050600190811b01905550565b5f81518084528060208401602086015e5f602082860101526020601f19601f83011685010191505092915050565b88815263ffffffff8816602082015263ffffffff8716604082015285606082015284608082015261010060a08201525f611ccf610100830186611c63565b90508360c083015260048310611cf357634e487b7160e01b5f52602160045260245ffd5b8260e08301529998505050505050505050565b5f8151808452602084019350602083015f5b82811015611d36578151865260209586019590910190600101611d18565b5093949350505050565b828152604060208201525f611d586040830184611d06565b949350505050565b8082018082111561135357611353611ab4565b838152606060208201525f611d8b6060830185611d06565b8281036040840152611d9d8185611d06565b9695505050505050565b63ffffffff818116838216019081111561135357611353611ab4565b828152604060208201525f611d586040830184611c63565b602081525f61168b6020830184611c63565b6001600160a01b03868116825285166020820152604081018490526060810183905260a0608082018190525f90611e2690830184611c63565b979650505050505050565b5f60208284031215611e41575f5ffd5b81516001600160e01b03198116811461168b575f5ffd5b5f60033d11156110105760045f5f3e505f5160e01c90565b5f60443d1015611e7d5790565b6040513d600319016004823e80513d60248201116001600160401b0382111715611ea657505090565b80820180516001600160401b03811115611ec1575050505090565b3d8401600319018282016020011115611edb575050505090565b61163c602082850101856116c656fea2646970667358221220199e9468206bcb1ffada6d2ab3220e3dd70b1884b1fa66deca0852a349a7496064736f6c634300081c0033",
  "devdoc": {
    "events": {
      "ApprovalForAll(address,address,bool)": {
        "details": "Emitted when `account` grants or revokes permission to `operator` to transfer their tokens, according to `approved`."
      },
      "EventActivated(uint256)": {
        "details": "Emitted when an event transitions from a pending state to an active state, which generally happens when the first ticket for the event is redeemed.",
        "params": {
          "eventId": "The unique identifier for the event."
        }
      },
      "EventDeactivated(uint256)": {
        "details": "Emitted when an event is deactivated by the owner.",
        "params": {
          "eventId": "The unique identifier for the event."
        }
      },
      "EventDetails(uint256,uint32,uint32,uint256,uint256,string,uint256,uint8)": {
        "details": "Emitted when a new event is created. Contains all the essential details regarding the event including its schedule and entry conditions.",
        "params": {
          "endTime": "The end time of the event, represented as a UNIX timestamp.",
          "eventId": "The unique identifier for the event.",
          "imageUri": "A URI pointing to the event's image resource.",
          "maxEntries": "The maximum number of entries allowed for the event.",
          "maxEntriesPerUser": "max entries a user can submit to event",
          "minEntries": "The minimum number of entries required for the event.",
          "startTime": "The start time of the event, represented as a UNIX timestamp.",
          "status": "The current status of the event."
        }
      },
      "EventExtended(uint256,uint32)": {
        "details": "Emitted when an event's duration is extended",
        "params": {
          "addedTime": "Time added to the endTime property of the event",
          "eventId": "The unique identifier for the event."
        }
      },
      "TicketDetails(uint256,uint256[])": {
        "details": "Emitted when ticket details for a specific event are defined or updated. Contains arrays of ticket IDs and their corresponding details.",
        "params": {
          "eventId": "The unique identifier for the event.",
          "ticketIds": "An array of unique identifiers for the tickets associated with the event."
        }
      },
      "TicketRedeemed(uint256,uint256[],uint256[])": {
        "details": "Emitted when one or more tickets are redeemed for an event. Contains details of the ticket IDs and the respective amounts that have been redeemed.",
        "params": {
          "amounts": "An array of amounts representing the quantity redeemed for each corresponding ticket ID.",
          "eventId": "The unique identifier for the event.",
          "ticketIds": "An array of unique identifiers for the tickets that have been redeemed."
        }
      },
      "TicketRefunded(uint256,uint256,uint256)": {
        "details": "Emitted when a ticket is refunded. This occurs after a successful call to the `refundTicketsWithProof` function, indicating that the refund was processed successfully.",
        "params": {
          "amount": "The amount that has been refunded for the particular ticket id.",
          "eventId": "The unique identifier for the event.",
          "ticketId": "The unique identifier for the ticket that has been refunded."
        }
      },
      "TransferBatch(address,address,address,uint256[],uint256[])": {
        "details": "Equivalent to multiple {TransferSingle} events, where `operator`, `from` and `to` are the same for all transfers."
      },
      "TransferSingle(address,address,address,uint256,uint256)": {
        "details": "Emitted when `value` tokens of token type `id` are transferred from `from` to `to` by `operator`."
      }
    },
    "kind": "dev",
    "methods": {
      "createEvent(uint32,uint32,uint256,uint256,string,uint256[],uint256)": {
        "details": "External function that allows for the creation of a new event",
        "params": {
          "_endTime": "The end time of the event",
          "_imageUri": "The URI for the event's image",
          "_maxEntries": "The maximum number of entries for the event",
          "_minEntries": "The minimum number of entries for the event",
          "_startTime": "The start time of the event"
        },
        "returns": {
          "_0": "The ID of the created event"
        }
      },
      "deactivateEvent(uint256,bytes32)": {
        "details": "Only callable by the owner or authorized addresses. Can be used to deactivate an event prematurely.",
        "params": {
          "eventId": "The ID of the event to deactivate.",
          "root": "Optionally, a new Merkle root to set. Pass bytes32(0) to not update the Merkle root."
        }
      },
      "extendEvent(uint256,uint32)": {
        "details": "Only callable by the owner or authorized addresses. The event time extension should respect any set maximum limits.",
        "params": {
          "addedTime": "The additional time to add to the event's duration, in seconds.",
          "eventId": "The ID of the event to extend."
        }
      },
      "redeemTickets(uint256,uint256[],uint256[])": {
        "details": "Batch process to redeem multiple tickets at once",
        "params": {
          "amounts": "The amounts corresponding to each ticket to be redeemed",
          "eventId": "The ID of the event",
          "ticketIds": "The IDs of the tickets to be redeemed"
        }
      },
      "refundTicketsWithProof(uint256,uint256[],address,address,bytes32[])": {
        "details": "Batch process to refund multiple tickets at once. We refund a user   if they can prove their addre",
        "params": {
          "eventId": "The ID of the event",
          "lowerBound": "Lower bound address ",
          "merkleProof": "Lower bound address ",
          "ticketIds": "The IDs of the tickets to be refunded",
          "upperBound": "upper bound address "
        }
      },
      "setImageUri(uint256,string)": {
        "details": "Only callable by the owner or authorized addresses.",
        "params": {
          "eventId": "The ID of the event to set the image URI for.",
          "imageUri": "The new image URI as a string."
        }
      }
    },
    "version": 1
  },
  "userdoc": {
    "kind": "user",
    "methods": {
      "createEvent(uint32,uint32,uint256,uint256,string,uint256[],uint256)": {
        "notice": "Creates a new event"
      },
      "deactivateEvent(uint256,bytes32)": {
        "notice": "Deactivates the specified event and optionally updates the Merkle root."
      },
      "extendEvent(uint256,uint32)": {
        "notice": "Extends the duration of the specified event by the added time."
      },
      "redeemTickets(uint256,uint256[],uint256[])": {
        "notice": "Allows the redemption of multiple tickets for an event"
      },
      "refundTicketsWithProof(uint256,uint256[],address,address,bytes32[])": {
        "notice": "Allows the refund of tickets"
      },
      "setImageUri(uint256,string)": {
        "notice": "Sets a new image URI for the specified event."
      }
    },
    "version": 1
  },
  "storageLayout": {
    "storage": [],
    "types": null
  }
}