{
  "address": "0x49138DF5A9Ad73d868EFDfF7fA6995af9211927D",
  "abi": [
    {
      "inputs": [],
      "name": "MigrationAlreadyCompleted",
      "type": "error"
    },
    {
      "inputs": [],
      "name": "MigrationAlreadyInitiated",
      "type": "error"
    },
    {
      "inputs": [],
      "name": "MigrationNotInitiated",
      "type": "error"
    },
    {
      "anonymous": false,
      "inputs": [
        {
          "indexed": true,
          "internalType": "address",
          "name": "user",
          "type": "address"
        },
        {
          "indexed": false,
          "internalType": "uint32",
          "name": "timestamp",
          "type": "uint32"
        }
      ],
      "name": "MemberBanned",
      "type": "event"
    },
    {
      "anonymous": false,
      "inputs": [
        {
          "components": [
            {
              "internalType": "address",
              "name": "memberAddress",
              "type": "address"
            },
            {
              "internalType": "uint32",
              "name": "level",
              "type": "uint32"
            },
            {
              "internalType": "uint32",
              "name": "timestamp",
              "type": "uint32"
            }
          ],
          "indexed": false,
          "internalType": "struct LibMemberLevel.Leaf",
          "name": "leaf",
          "type": "tuple"
        }
      ],
      "name": "MemberLevelUpdated",
      "type": "event"
    },
    {
      "anonymous": false,
      "inputs": [
        {
          "indexed": false,
          "internalType": "bytes32",
          "name": "newRoot",
          "type": "bytes32"
        }
      ],
      "name": "MerkleRootUpdated",
      "type": "event"
    },
    {
      "anonymous": false,
      "inputs": [
        {
          "indexed": false,
          "internalType": "address",
          "name": "cancellor",
          "type": "address"
        },
        {
          "indexed": false,
          "internalType": "uint32",
          "name": "timeCancelled",
          "type": "uint32"
        }
      ],
      "name": "MigrationCancelled",
      "type": "event"
    },
    {
      "anonymous": false,
      "inputs": [
        {
          "indexed": false,
          "internalType": "address",
          "name": "initiatior",
          "type": "address"
        },
        {
          "indexed": false,
          "internalType": "uint32",
          "name": "timeInitiatied",
          "type": "uint32"
        }
      ],
      "name": "MigrationInitiated",
      "type": "event"
    },
    {
      "anonymous": false,
      "inputs": [
        {
          "indexed": false,
          "internalType": "address",
          "name": "oldOwner",
          "type": "address"
        },
        {
          "indexed": false,
          "internalType": "address",
          "name": "newOwner",
          "type": "address"
        }
      ],
      "name": "OwnershipChanged",
      "type": "event"
    },
    {
      "inputs": [
        {
          "internalType": "address",
          "name": "_user",
          "type": "address"
        }
      ],
      "name": "banMember",
      "outputs": [],
      "stateMutability": "nonpayable",
      "type": "function"
    },
    {
      "inputs": [
        {
          "components": [
            {
              "internalType": "address",
              "name": "memberAddress",
              "type": "address"
            },
            {
              "internalType": "uint32",
              "name": "level",
              "type": "uint32"
            },
            {
              "internalType": "uint32",
              "name": "timestamp",
              "type": "uint32"
            }
          ],
          "internalType": "struct LibMemberLevel.Leaf[]",
          "name": "_leaves",
          "type": "tuple[]"
        }
      ],
      "name": "batchSetLevels",
      "outputs": [],
      "stateMutability": "nonpayable",
      "type": "function"
    },
    {
      "inputs": [
        {
          "internalType": "address",
          "name": "_user",
          "type": "address"
        }
      ],
      "name": "getMemberLevel",
      "outputs": [
        {
          "internalType": "uint32",
          "name": "memberLevel_",
          "type": "uint32"
        }
      ],
      "stateMutability": "view",
      "type": "function"
    },
    {
      "inputs": [
        {
          "internalType": "address",
          "name": "_user",
          "type": "address"
        }
      ],
      "name": "getMemberLevelStruct",
      "outputs": [
        {
          "internalType": "uint32",
          "name": "level",
          "type": "uint32"
        },
        {
          "internalType": "uint32",
          "name": "timestamp",
          "type": "uint32"
        }
      ],
      "stateMutability": "view",
      "type": "function"
    },
    {
      "inputs": [
        {
          "components": [
            {
              "internalType": "address",
              "name": "memberAddress",
              "type": "address"
            },
            {
              "internalType": "uint32",
              "name": "level",
              "type": "uint32"
            },
            {
              "internalType": "uint32",
              "name": "timestamp",
              "type": "uint32"
            }
          ],
          "internalType": "struct LibMemberLevel.Leaf",
          "name": "_leaf",
          "type": "tuple"
        },
        {
          "internalType": "bytes32[]",
          "name": "_merkleProof",
          "type": "bytes32[]"
        }
      ],
      "name": "verifyAndSetLevel",
      "outputs": [],
      "stateMutability": "nonpayable",
      "type": "function"
    }
  ],
  "transactionHash": "0x0c2414fd1d03dd804910255a4ca9c6f1af213d142d4574eff42fd0fce48429c3",
  "args": [],
  "numDeployments": 1,
  "solcInputHash": "54a7063fbd1377e55e2032f74c4aa199",
  "bytecode": "0x6080604052348015600e575f5ffd5b506108d48061001c5f395ff3fe608060405234801561000f575f5ffd5b5060043610610055575f3560e01c806359269e671461005957806359362078146100b55780637080a94c146100ca578063a091588c1461012d578063d6f74c4514610140575b5f5ffd5b61009b6100673660046106b1565b6001600160a01b03165f9081525f51602061087f5f395f51905f526020526040902054640100000000900463ffffffff1690565b60405163ffffffff90911681526020015b60405180910390f35b6100c86100c33660046106d1565b610153565b005b6101106100d83660046106b1565b6001600160a01b03165f9081525f51602061087f5f395f51905f52602052604090205463ffffffff6401000000008204811692911690565b6040805163ffffffff9384168152929091166020830152016100ac565b6100c861013b3660046107ce565b610161565b6100c861014e3660046106b1565b610171565b61015d8282610198565b5050565b61016c83838361029f565b505050565b61017961042c565b6001600160a01b031661018a610463565b50506101958161046c565b50565b6101a0610531565b5f51602061087f5f395f51905f525f5b82811015610299575f8484838181106101cb576101cb610850565b9050606002018036038101906101e19190610864565b604080518082018252828201805163ffffffff908116835260208086018051831682860190815287516001600160a01b039081165f9081528c855288902096518754925186166401000000000267ffffffffffffffff19909316908616179190911790955585518751909516855251821690840152905116918101919091529091507f60800807689785e0f531edc4af31b4d93d6169484ba759561f0650cdeaeaca0b9060600160405180910390a1506001016101b0565b50505050565b60208381015160408086015181516bffffffffffffffffffffffff193360601b16818601526001600160e01b031960e094851b811660348301529190931b1660388301528051808303601c018152603c909201905280519101207f46f9ff21a2b472f426fedec0a9a686a7aac5ea547036206278caba142b070cb0545f51602061087f5f395f51905f5291906103399085908590846105a2565b6103815760405162461bcd60e51b815260206004820152601460248201527324b73b30b634b21026b2b935b63290383937b7b360611b60448201526064015b60405180910390fd5b604080518082018252868201805163ffffffff90811683526020808a0180518316828601908152335f90815289845287902095518654915185166401000000000267ffffffffffffffff19909216908516171790945584518a516001600160a01b031681529351821690840152905116918101919091527f60800807689785e0f531edc4af31b4d93d6169484ba759561f0650cdeaeaca0b9060600160405180910390a15050505050565b5f61045e7fd00049dc7109015045860694acecd3dc33338404aaf6e55a1c98a2bf41477b85546001600160a01b031690565b905090565b5f61045e610644565b61047461042c565b6001600160a01b0316610485610463565b50505f61049c5f51602061087f5f395f51905f5290565b60408051808201825263ffffffff428181168084525f60208086018281526001600160a01b038b168084528983529288902096518754915187166401000000000267ffffffffffffffff1990921696169590951794909417909455935193845293945090917f951cf4b0cf410b98c391185a978142896782f9d4687093b9c616991976bc1108910160405180910390a2505050565b61053961042c565b6001600160a01b031661054a610463565b6001600160a01b0316146105a05760405162461bcd60e51b815260206004820152601b60248201527f4d757374206265207468652045636f73797374656d206f776e657200000000006044820152606401610378565b565b5f81815b85811015610638575f8787838181106105c1576105c1610850565b90506020020135905080831161060257604080516020810185905290810182905260600160405160208183030381529060405280519060200120925061062f565b60408051602081018390529081018490526060016040516020818303038152906040528051906020012092505b506001016105a6565b50909214949350505050565b5f6014361080159061067f57507f413a4c31c13c7c3de0c7da37be5d779b152baf3f21a1cb760fda41eb8ca97776546001600160a01b031633145b15610691575060131936013560601c90565b503390565b80356001600160a01b03811681146106ac575f5ffd5b919050565b5f602082840312156106c1575f5ffd5b6106ca82610696565b9392505050565b5f5f602083850312156106e2575f5ffd5b823567ffffffffffffffff8111156106f8575f5ffd5b8301601f81018513610708575f5ffd5b803567ffffffffffffffff81111561071e575f5ffd5b856020606083028401011115610732575f5ffd5b6020919091019590945092505050565b803563ffffffff811681146106ac575f5ffd5b5f60608284031215610765575f5ffd5b6040516060810181811067ffffffffffffffff8211171561079457634e487b7160e01b5f52604160045260245ffd5b6040529050806107a383610696565b81526107b160208401610742565b60208201526107c260408401610742565b60408201525092915050565b5f5f5f608084860312156107e0575f5ffd5b6107ea8585610755565b9250606084013567ffffffffffffffff811115610805575f5ffd5b8401601f81018613610815575f5ffd5b803567ffffffffffffffff81111561082b575f5ffd5b8660208260051b840101111561083f575f5ffd5b939660209190910195509293505050565b634e487b7160e01b5f52603260045260245ffd5b5f60608284031215610874575f5ffd5b6106ca838361075556fe46f9ff21a2b472f426fedec0a9a686a7aac5ea547036206278caba142b070cafa2646970667358221220b363f25db6c0237be12a64491494603dbcd3d2693ac0ddb2a88e356965673a6a64736f6c634300081c0033",
  "devdoc": {
    "kind": "dev",
    "methods": {
      "banMember(address)": {
        "details": "Bans a user by setting their level to 0",
        "params": {
          "_user": "Address of the user to ban"
        }
      },
      "batchSetLevels((address,uint32,uint32)[])": {
        "details": "Batch set levels for multiple addresses (permissioned function)",
        "params": {
          "_leaves": "user resource denoting their membership status"
        }
      },
      "getMemberLevel(address)": {
        "details": "Returns the level info for a given address",
        "params": {
          "_user": "Address to query"
        }
      },
      "getMemberLevelStruct(address)": {
        "details": "Returns the level info for a given address",
        "params": {
          "_user": "Address to query"
        },
        "returns": {
          "level": "and timestamp of the user"
        }
      },
      "verifyAndSetLevel((address,uint32,uint32),bytes32[])": {
        "details": "Verifies Merkle proof and sets user's level",
        "params": {
          "_leaf": "Level to assign to the user",
          "_merkleProof": "Array of hashed data to verify proof"
        }
      }
    },
    "version": 1
  },
  "userdoc": {
    "kind": "user",
    "methods": {},
    "version": 1
  },
  "storageLayout": {
    "storage": [],
    "types": null
  }
}