{
  "address": "0xE56065C8D3D1eDC4d00bF2c48d8417c6E7c67CA8",
  "abi": [
    {
      "inputs": [],
      "name": "MigrationAlreadyCompleted",
      "type": "error"
    },
    {
      "inputs": [],
      "name": "MigrationAlreadyInitiated",
      "type": "error"
    },
    {
      "inputs": [],
      "name": "MigrationNotInitiated",
      "type": "error"
    },
    {
      "anonymous": false,
      "inputs": [
        {
          "indexed": false,
          "internalType": "address",
          "name": "cancellor",
          "type": "address"
        },
        {
          "indexed": false,
          "internalType": "uint32",
          "name": "timeCancelled",
          "type": "uint32"
        }
      ],
      "name": "MigrationCancelled",
      "type": "event"
    },
    {
      "anonymous": false,
      "inputs": [
        {
          "indexed": false,
          "internalType": "address",
          "name": "initiatior",
          "type": "address"
        },
        {
          "indexed": false,
          "internalType": "uint32",
          "name": "timeInitiatied",
          "type": "uint32"
        }
      ],
      "name": "MigrationInitiated",
      "type": "event"
    },
    {
      "anonymous": false,
      "inputs": [
        {
          "indexed": false,
          "internalType": "address",
          "name": "oldOwner",
          "type": "address"
        },
        {
          "indexed": false,
          "internalType": "address",
          "name": "newOwner",
          "type": "address"
        }
      ],
      "name": "OwnershipChanged",
      "type": "event"
    },
    {
      "anonymous": false,
      "inputs": [
        {
          "indexed": false,
          "internalType": "string",
          "name": "username",
          "type": "string"
        },
        {
          "indexed": false,
          "internalType": "address",
          "name": "userAddress",
          "type": "address"
        },
        {
          "indexed": false,
          "internalType": "enum LibMemberRegistry.RecoveryStatus",
          "name": "recoveryStatus",
          "type": "uint8"
        }
      ],
      "name": "RecoveryAction",
      "type": "event"
    },
    {
      "anonymous": false,
      "inputs": [
        {
          "indexed": false,
          "internalType": "string",
          "name": "username",
          "type": "string"
        },
        {
          "indexed": false,
          "internalType": "address",
          "name": "userAddress",
          "type": "address"
        }
      ],
      "name": "UserRegistered",
      "type": "event"
    },
    {
      "anonymous": false,
      "inputs": [
        {
          "indexed": false,
          "internalType": "string[]",
          "name": "username",
          "type": "string[]"
        },
        {
          "indexed": false,
          "internalType": "address[]",
          "name": "userAddress",
          "type": "address[]"
        }
      ],
      "name": "UsersRegistered",
      "type": "event"
    },
    {
      "inputs": [
        {
          "internalType": "string",
          "name": "username",
          "type": "string"
        }
      ],
      "name": "cancelVerify",
      "outputs": [],
      "stateMutability": "nonpayable",
      "type": "function"
    },
    {
      "inputs": [
        {
          "internalType": "string",
          "name": "username",
          "type": "string"
        }
      ],
      "name": "finalizeRecovery",
      "outputs": [],
      "stateMutability": "nonpayable",
      "type": "function"
    },
    {
      "inputs": [
        {
          "internalType": "string",
          "name": "username",
          "type": "string"
        }
      ],
      "name": "setUsernameAddressPair",
      "outputs": [],
      "stateMutability": "nonpayable",
      "type": "function"
    },
    {
      "inputs": [
        {
          "internalType": "string[]",
          "name": "username",
          "type": "string[]"
        },
        {
          "internalType": "address[]",
          "name": "userAddress",
          "type": "address[]"
        }
      ],
      "name": "setUsernameOwner",
      "outputs": [],
      "stateMutability": "nonpayable",
      "type": "function"
    },
    {
      "inputs": [
        {
          "internalType": "string",
          "name": "username",
          "type": "string"
        }
      ],
      "name": "setUsernamePair",
      "outputs": [],
      "stateMutability": "nonpayable",
      "type": "function"
    },
    {
      "inputs": [
        {
          "internalType": "string",
          "name": "username",
          "type": "string"
        }
      ],
      "name": "usernameRecovery",
      "outputs": [],
      "stateMutability": "nonpayable",
      "type": "function"
    },
    {
      "inputs": [],
      "name": "verificationTime",
      "outputs": [
        {
          "internalType": "uint32",
          "name": "",
          "type": "uint32"
        }
      ],
      "stateMutability": "view",
      "type": "function"
    },
    {
      "inputs": [
        {
          "components": [
            {
              "internalType": "string",
              "name": "username",
              "type": "string"
            },
            {
              "internalType": "address",
              "name": "userAddress",
              "type": "address"
            }
          ],
          "internalType": "struct LibMemberRegistry.Leaf",
          "name": "_leaf",
          "type": "tuple"
        },
        {
          "internalType": "bytes32[]",
          "name": "_merkleProof",
          "type": "bytes32[]"
        }
      ],
      "name": "verifyAndUsername",
      "outputs": [],
      "stateMutability": "nonpayable",
      "type": "function"
    }
  ],
  "transactionHash": "0xf6f0f7ea43318d5fed0cad052b64ecc5c7479975b3cc9cd454705c39f389bee0",
  "args": [],
  "numDeployments": 1,
  "solcInputHash": "54a7063fbd1377e55e2032f74c4aa199",
  "bytecode": "0x6080604052348015600e575f5ffd5b506110378061001c5f395ff3fe608060405234801561000f575f5ffd5b5060043610610084575f3560e01c80637e12cfa0116100585780637e12cfa0146100e6578063a05bc638146100f9578063bb018a221461010c578063bd4984c41461011f575f5ffd5b806261441814610088578063054a6609146100ab578063366db217146100c05780637192f8cd146100d3575b5f5ffd5b6100926212750081565b60405163ffffffff909116815260200160405180910390f35b6100be6100b9366004610a20565b610132565b005b6100be6100ce366004610a20565b61013e565b6100be6100e1366004610a20565b610147565b6100be6100f4366004610a20565b61014c565b6100be610107366004610a20565b610155565b6100be61011a366004610a74565b61015e565b6100be61012d366004610be3565b61016e565b61013b8161017c565b50565b61013b816102df565b61013b815b61013b816103ea565b61013b816104b4565b6101698383836105a6565b505050565b61017882826106f7565b5050565b6040515f516020610fe25f395f51905f52905f907fca9e0b20c84408e13887c5306435f83bd031b093871b390a26e9548e3336e2b2906101bd908590610cd3565b908152604080516020928190038301812081830190925290546001600160a01b038116808352600160a01b9091046001600160601b0316928201929092529150610205610847565b6001600160a01b031614610169576040518060400160405280610226610847565b6001600160a01b031681526020016102416212750042610ce5565b6001600160601b0316815250826002018460405161025f9190610cd3565b908152604051908190036020908101909120825192909101516001600160601b0316600160a01b026001600160a01b039092169190911790557f847ddfc3a23a2f365a8e99531ca33ca5d6803bbeff70e752813b93c21d2f3509836102c2610847565b5f6040516102d293929190610d44565b60405180910390a1505050565b6040515f516020610fe25f395f51905f52905f907fca9e0b20c84408e13887c5306435f83bd031b093871b390a26e9548e3336e2b190610320908590610cd3565b908152604051908190036020019020546001600160a01b0316905080610344610847565b6001600160a01b031603610169576040805180820182525f808252602082015290516002840190610376908690610cd3565b908152604051908190036020908101909120825192909101516001600160601b0316600160a01b026001600160a01b039092169190911790557f847ddfc3a23a2f365a8e99531ca33ca5d6803bbeff70e752813b93c21d2f3509836103d9610847565b60026040516102d293929190610d44565b5f516020610fe25f395f51905f52610400610847565b81600101836040516104129190610cd3565b90815260405190819003602001902080546001600160a01b03929092166001600160a01b031990921691909117905581815f61044c610847565b6001600160a01b0316815260208101919091526040015f209061046f9082610e14565b507f7f605d0ff47d2a070e456b69ce2a36041788910b64443c7f4c6d307993cade2c8261049a610847565b6040516104a8929190610ece565b60405180910390a15050565b6040515f516020610fe25f395f51905f52905f907fca9e0b20c84408e13887c5306435f83bd031b093871b390a26e9548e3336e2b2906104f5908590610cd3565b908152604080516020928190038301812081830190925290546001600160a01b0381168252600160a01b90046001600160601b03908116928201839052909250421611801561055d575080516001600160a01b0316610552610847565b6001600160a01b0316145b156101695761056b836103ea565b7f847ddfc3a23a2f365a8e99531ca33ca5d6803bbeff70e752813b93c21d2f350983610595610847565b60016040516102d293929190610d44565b82516020808501516040515f516020610fe25f395f51905f52935f936105ce93919201610ef7565b6040516020818303038152906040528051906020012090506105f68484846004015484610855565b61063e5760405162461bcd60e51b815260206004820152601460248201527324b73b30b634b21026b2b935b63290383937b7b360611b60448201526064015b60405180910390fd5b84516020808701516001600160a01b03165f9081529084905260409020906106669082610e14565b5060208501518551604051600185019161067f91610cd3565b90815260200160405180910390205f6101000a8154816001600160a01b0302191690836001600160a01b031602179055507f7f605d0ff47d2a070e456b69ce2a36041788910b64443c7f4c6d307993cade2c855f015186602001516040516106e8929190610ece565b60405180910390a15050505050565b815181515f516020610fe25f395f51905f52919081146107645760405162461bcd60e51b815260206004820152602260248201527f506172616d6574657273206d757374206265206f662073616d65206c656e6774604482015261341760f11b6064820152608401610635565b5f5b81811015610807575f85828151811061078157610781610f23565b602002602001015190505f85838151811061079e5761079e610f23565b602002602001015190508085600101836040516107bb9190610cd3565b908152604080516020928190038301902080546001600160a01b0319166001600160a01b039485161790559183165f90815290879052206107fc8382610e14565b505050600101610766565b507fcd93f6195c690a09c3f7ee4119c88ccfd8559fa4e07e15fdc1e924a7b5932e948484604051610839929190610f37565b60405180910390a150505050565b5f6108506108f7565b905090565b5f81815b858110156108eb575f87878381811061087457610874610f23565b9050602002013590508083116108b55760408051602081018590529081018290526060016040516020818303038152906040528051906020012092506108e2565b60408051602081018390529081018490526060016040516020818303038152906040528051906020012092505b50600101610859565b50909214949350505050565b5f6014361080159061093257507f413a4c31c13c7c3de0c7da37be5d779b152baf3f21a1cb760fda41eb8ca97776546001600160a01b031633145b15610944575060131936013560601c90565b503390565b634e487b7160e01b5f52604160045260245ffd5b604080519081016001600160401b038111828210171561097f5761097f610949565b60405290565b604051601f8201601f191681016001600160401b03811182821017156109ad576109ad610949565b604052919050565b5f82601f8301126109c4575f5ffd5b81356001600160401b038111156109dd576109dd610949565b6109f0601f8201601f1916602001610985565b818152846020838601011115610a04575f5ffd5b816020850160208301375f918101602001919091529392505050565b5f60208284031215610a30575f5ffd5b81356001600160401b03811115610a45575f5ffd5b610a51848285016109b5565b949350505050565b80356001600160a01b0381168114610a6f575f5ffd5b919050565b5f5f5f60408486031215610a86575f5ffd5b83356001600160401b03811115610a9b575f5ffd5b840160408187031215610aac575f5ffd5b610ab461095d565b81356001600160401b03811115610ac9575f5ffd5b610ad5888285016109b5565b825250610ae460208301610a59565b6020820152809450505060208401356001600160401b03811115610b06575f5ffd5b8401601f81018613610b16575f5ffd5b80356001600160401b03811115610b2b575f5ffd5b8660208260051b8401011115610b3f575f5ffd5b939660209190910195509293505050565b5f6001600160401b03821115610b6857610b68610949565b5060051b60200190565b5f82601f830112610b81575f5ffd5b8135610b94610b8f82610b50565b610985565b8082825260208201915060208360051b860101925085831115610bb5575f5ffd5b602085015b83811015610bd957610bcb81610a59565b835260209283019201610bba565b5095945050505050565b5f5f60408385031215610bf4575f5ffd5b82356001600160401b03811115610c09575f5ffd5b8301601f81018513610c19575f5ffd5b8035610c27610b8f82610b50565b8082825260208201915060208360051b850101925087831115610c48575f5ffd5b602084015b83811015610c885780356001600160401b03811115610c6a575f5ffd5b610c798a6020838901016109b5565b84525060209283019201610c4d565b50945050505060208301356001600160401b03811115610ca6575f5ffd5b610cb285828601610b72565b9150509250929050565b5f81518060208401855e5f93019283525090919050565b5f610cde8284610cbc565b9392505050565b6001600160601b038181168382160190811115610d1057634e487b7160e01b5f52601160045260245ffd5b92915050565b5f81518084528060208401602086015e5f602082860101526020601f19601f83011685010191505092915050565b606081525f610d566060830186610d16565b6001600160a01b0385166020840152905060038310610d8357634e487b7160e01b5f52602160045260245ffd5b826040830152949350505050565b600181811c90821680610da557607f821691505b602082108103610dc357634e487b7160e01b5f52602260045260245ffd5b50919050565b601f82111561016957805f5260205f20601f840160051c81016020851015610dee5750805b601f840160051c820191505b81811015610e0d575f8155600101610dfa565b5050505050565b81516001600160401b03811115610e2d57610e2d610949565b610e4181610e3b8454610d91565b84610dc9565b6020601f821160018114610e73575f8315610e5c5750848201515b5f19600385901b1c1916600184901b178455610e0d565b5f84815260208120601f198516915b82811015610ea25787850151825560209485019460019092019101610e82565b5084821015610ebf57868401515f19600387901b60f8161c191681555b50505050600190811b01905550565b604081525f610ee06040830185610d16565b905060018060a01b03831660208301529392505050565b5f610f028285610cbc565b60609390931b6bffffffffffffffffffffffff191683525050601401919050565b634e487b7160e01b5f52603260045260245ffd5b5f604082016040835280855180835260608501915060608160051b8601019250602087015f5b82811015610f8e57605f19878603018452610f79858351610d16565b94506020938401939190910190600101610f5d565b5050505082810360208401528084518083526020830191506020860192505f5b81811015610fd55783516001600160a01b0316835260209384019390920191600101610fae565b5090969550505050505056feca9e0b20c84408e13887c5306435f83bd031b093871b390a26e9548e3336e2b0a26469706673582212204cd4c4474bc40a88a757e92dd6c06d2ba904efce04e9405fd1924b5c6347ca9864736f6c634300081c0033",
  "devdoc": {
    "events": {
      "RecoveryAction(string,address,uint8)": {
        "details": "Emitted when a recovery action is initiated or finalized",
        "params": {
          "recoveryStatus": "The status of the recovery action",
          "userAddress": "The user's address",
          "username": "The username associated with the action"
        }
      },
      "UserRegistered(string,address)": {
        "details": "Emitted when a user is successfully registered",
        "params": {
          "userAddress": "The user's address",
          "username": "The registered username"
        }
      }
    },
    "kind": "dev",
    "methods": {},
    "version": 1
  },
  "userdoc": {
    "kind": "user",
    "methods": {},
    "version": 1
  },
  "storageLayout": {
    "storage": [],
    "types": null
  }
}