{
  "address": "0x642789FA20F505fBD036729861A3eB1c926BE22B",
  "abi": [
    {
      "inputs": [],
      "name": "MigrationAlreadyCompleted",
      "type": "error"
    },
    {
      "inputs": [],
      "name": "MigrationAlreadyInitiated",
      "type": "error"
    },
    {
      "inputs": [],
      "name": "MigrationNotInitiated",
      "type": "error"
    },
    {
      "anonymous": false,
      "inputs": [
        {
          "indexed": false,
          "internalType": "address",
          "name": "cancellor",
          "type": "address"
        },
        {
          "indexed": false,
          "internalType": "uint32",
          "name": "timeCancelled",
          "type": "uint32"
        }
      ],
      "name": "MigrationCancelled",
      "type": "event"
    },
    {
      "anonymous": false,
      "inputs": [
        {
          "indexed": false,
          "internalType": "address",
          "name": "initiatior",
          "type": "address"
        },
        {
          "indexed": false,
          "internalType": "uint32",
          "name": "timeInitiatied",
          "type": "uint32"
        }
      ],
      "name": "MigrationInitiated",
      "type": "event"
    },
    {
      "anonymous": false,
      "inputs": [
        {
          "indexed": false,
          "internalType": "address",
          "name": "oldOwner",
          "type": "address"
        },
        {
          "indexed": false,
          "internalType": "address",
          "name": "newOwner",
          "type": "address"
        }
      ],
      "name": "OwnershipChanged",
      "type": "event"
    },
    {
      "anonymous": false,
      "inputs": [
        {
          "indexed": true,
          "internalType": "address",
          "name": "previousOwner",
          "type": "address"
        },
        {
          "indexed": true,
          "internalType": "address",
          "name": "newOwner",
          "type": "address"
        }
      ],
      "name": "OwnershipTransferred",
      "type": "event"
    },
    {
      "inputs": [],
      "name": "ecosystemOwner",
      "outputs": [
        {
          "internalType": "address",
          "name": "owner_",
          "type": "address"
        }
      ],
      "stateMutability": "view",
      "type": "function"
    },
    {
      "inputs": [
        {
          "internalType": "address",
          "name": "_tenativeOwner",
          "type": "address"
        }
      ],
      "name": "isEcosystemOwnerVerify",
      "outputs": [],
      "stateMutability": "view",
      "type": "function"
    },
    {
      "inputs": [
        {
          "internalType": "address",
          "name": "_newOwner",
          "type": "address"
        }
      ],
      "name": "setEcosystemOwner",
      "outputs": [],
      "stateMutability": "nonpayable",
      "type": "function"
    }
  ],
  "transactionHash": "0xfc6e7eb285b160627fab2a7c7763f4d6b2106783988e807139a7ce1cdb1feeb4",
  "args": [],
  "numDeployments": 1,
  "solcInputHash": "54a7063fbd1377e55e2032f74c4aa199",
  "bytecode": "0x6080604052348015600e575f5ffd5b506102f28061001c5f395ff3fe608060405234801561000f575f5ffd5b506004361061003e575f3560e01c806282160f1461004257806342b78539146100575780639ad417381461007b575b5f5ffd5b61005561005036600461028f565b61008e565b005b61005f61009a565b6040516001600160a01b03909116815260200160405180910390f35b61005561008936600461028f565b6100a8565b61009781610115565b50565b5f6100a3610126565b905090565b806001600160a01b03166100ba610126565b6001600160a01b0316146100975760405162461bcd60e51b815260206004820152601c60248201527f4d757374206265207468652065636f73797374656d206f776e65722e0000000060448201526064015b60405180910390fd5b61011d610158565b610097816101c9565b5f6100a37fd00049dc7109015045860694acecd3dc33338404aaf6e55a1c98a2bf41477b85546001600160a01b031690565b610160610126565b6001600160a01b0316610171610239565b6001600160a01b0316146101c75760405162461bcd60e51b815260206004820152601b60248201527f4d757374206265207468652045636f73797374656d206f776e65720000000000604482015260640161010c565b565b7fd00049dc7109015045860694acecd3dc33338404aaf6e55a1c98a2bf41477b8580546001600160a01b031981166001600160a01b03848116918217845560405192169182907f8be0079c531659141344cd1fd0a4f28419497f9722a3daafe3b4186f6b6457e0905f90a3505050565b5f6100a35f6014361080159061027857507f413a4c31c13c7c3de0c7da37be5d779b152baf3f21a1cb760fda41eb8ca97776546001600160a01b031633145b1561028a575060131936013560601c90565b503390565b5f6020828403121561029f575f5ffd5b81356001600160a01b03811681146102b5575f5ffd5b939250505056fea26469706673582212207bcb6822e8bb0c9b46cd18a9ac760d3f7742275e589d20b6fd8eb6118f4743e564736f6c634300081c0033",
  "devdoc": {
    "kind": "dev",
    "methods": {
      "isEcosystemOwnerVerify(address)": {
        "params": {
          "_tenativeOwner": "user that is being verified as owner"
        }
      }
    },
    "version": 1
  },
  "userdoc": {
    "kind": "user",
    "methods": {
      "isEcosystemOwnerVerify(address)": {
        "notice": "this method is used externally to check if it's an owner as well as an ecosystem"
      }
    },
    "version": 1
  },
  "storageLayout": {
    "storage": [],
    "types": null
  }
}