{
  "address": "0x476aBb8ED04D7091cF8a0F377758f88d49f5fc38",
  "abi": [
    {
      "inputs": [],
      "name": "MigrationAlreadyCompleted",
      "type": "error"
    },
    {
      "inputs": [],
      "name": "MigrationAlreadyInitiated",
      "type": "error"
    },
    {
      "inputs": [],
      "name": "MigrationNotInitiated",
      "type": "error"
    },
    {
      "inputs": [
        {
          "internalType": "address",
          "name": "from",
          "type": "address"
        },
        {
          "internalType": "address",
          "name": "to",
          "type": "address"
        },
        {
          "internalType": "uint256",
          "name": "ticketId",
          "type": "uint256"
        }
      ],
      "name": "NonTransferableError",
      "type": "error"
    },
    {
      "anonymous": false,
      "inputs": [
        {
          "indexed": true,
          "internalType": "address",
          "name": "user",
          "type": "address"
        },
        {
          "indexed": false,
          "internalType": "uint32",
          "name": "timestamp",
          "type": "uint32"
        }
      ],
      "name": "MemberBanned",
      "type": "event"
    },
    {
      "anonymous": false,
      "inputs": [
        {
          "components": [
            {
              "internalType": "address",
              "name": "memberAddress",
              "type": "address"
            },
            {
              "internalType": "uint32",
              "name": "level",
              "type": "uint32"
            },
            {
              "internalType": "uint32",
              "name": "timestamp",
              "type": "uint32"
            }
          ],
          "indexed": false,
          "internalType": "struct LibMemberLevel.Leaf",
          "name": "leaf",
          "type": "tuple"
        }
      ],
      "name": "MemberLevelUpdated",
      "type": "event"
    },
    {
      "anonymous": false,
      "inputs": [
        {
          "indexed": false,
          "internalType": "bytes32",
          "name": "newRoot",
          "type": "bytes32"
        }
      ],
      "name": "MerkleRootUpdated",
      "type": "event"
    },
    {
      "anonymous": false,
      "inputs": [
        {
          "indexed": false,
          "internalType": "address",
          "name": "cancellor",
          "type": "address"
        },
        {
          "indexed": false,
          "internalType": "uint32",
          "name": "timeCancelled",
          "type": "uint32"
        }
      ],
      "name": "MigrationCancelled",
      "type": "event"
    },
    {
      "anonymous": false,
      "inputs": [
        {
          "indexed": false,
          "internalType": "address",
          "name": "initiatior",
          "type": "address"
        },
        {
          "indexed": false,
          "internalType": "uint32",
          "name": "timeInitiatied",
          "type": "uint32"
        }
      ],
      "name": "MigrationInitiated",
      "type": "event"
    },
    {
      "anonymous": false,
      "inputs": [
        {
          "indexed": false,
          "internalType": "address",
          "name": "oldOwner",
          "type": "address"
        },
        {
          "indexed": false,
          "internalType": "address",
          "name": "newOwner",
          "type": "address"
        }
      ],
      "name": "OwnershipChanged",
      "type": "event"
    },
    {
      "anonymous": false,
      "inputs": [
        {
          "indexed": false,
          "internalType": "uint256",
          "name": "",
          "type": "uint256"
        },
        {
          "indexed": false,
          "internalType": "uint256",
          "name": "",
          "type": "uint256"
        },
        {
          "components": [
            {
              "internalType": "string",
              "name": "title",
              "type": "string"
            },
            {
              "internalType": "string",
              "name": "description",
              "type": "string"
            },
            {
              "internalType": "string",
              "name": "imageHash",
              "type": "string"
            }
          ],
          "indexed": false,
          "internalType": "struct TicketCreate.TicketMeta",
          "name": "",
          "type": "tuple"
        }
      ],
      "name": "TicketsCreated",
      "type": "event"
    },
    {
      "anonymous": false,
      "inputs": [
        {
          "indexed": true,
          "internalType": "address",
          "name": "operator",
          "type": "address"
        },
        {
          "indexed": true,
          "internalType": "address",
          "name": "from",
          "type": "address"
        },
        {
          "indexed": true,
          "internalType": "address",
          "name": "to",
          "type": "address"
        },
        {
          "indexed": false,
          "internalType": "uint256[]",
          "name": "ids",
          "type": "uint256[]"
        },
        {
          "indexed": false,
          "internalType": "uint256[]",
          "name": "values",
          "type": "uint256[]"
        }
      ],
      "name": "TransferBatch",
      "type": "event"
    },
    {
      "anonymous": false,
      "inputs": [
        {
          "indexed": true,
          "internalType": "address",
          "name": "operator",
          "type": "address"
        },
        {
          "indexed": true,
          "internalType": "address",
          "name": "from",
          "type": "address"
        },
        {
          "indexed": true,
          "internalType": "address",
          "name": "to",
          "type": "address"
        },
        {
          "indexed": false,
          "internalType": "uint256",
          "name": "id",
          "type": "uint256"
        },
        {
          "indexed": false,
          "internalType": "uint256",
          "name": "value",
          "type": "uint256"
        }
      ],
      "name": "TransferSingle",
      "type": "event"
    },
    {
      "inputs": [
        {
          "internalType": "uint256",
          "name": "ticketId",
          "type": "uint256"
        }
      ],
      "name": "expireable",
      "outputs": [],
      "stateMutability": "view",
      "type": "function"
    },
    {
      "inputs": [
        {
          "internalType": "uint256",
          "name": "_amount",
          "type": "uint256"
        },
        {
          "components": [
            {
              "internalType": "string",
              "name": "title",
              "type": "string"
            },
            {
              "internalType": "string",
              "name": "description",
              "type": "string"
            },
            {
              "internalType": "string",
              "name": "imageHash",
              "type": "string"
            }
          ],
          "internalType": "struct TicketCreate.TicketMeta",
          "name": "_ticketMeta",
          "type": "tuple"
        },
        {
          "components": [
            {
              "components": [
                {
                  "internalType": "uint256",
                  "name": "maxTransfers",
                  "type": "uint256"
                },
                {
                  "internalType": "bool",
                  "name": "isActive",
                  "type": "bool"
                }
              ],
              "internalType": "struct LibERC1155TransferConstraints.TransferLimit",
              "name": "transferLimit",
              "type": "tuple"
            },
            {
              "components": [
                {
                  "internalType": "uint32",
                  "name": "minimumLevel",
                  "type": "uint32"
                },
                {
                  "internalType": "bool",
                  "name": "isActive",
                  "type": "bool"
                }
              ],
              "internalType": "struct LibERC1155TransferConstraints.MemberLevelDependency",
              "name": "minimumMembershipLevel",
              "type": "tuple"
            },
            {
              "components": [
                {
                  "internalType": "uint32",
                  "name": "expireTime",
                  "type": "uint32"
                },
                {
                  "internalType": "bool",
                  "name": "isActive",
                  "type": "bool"
                }
              ],
              "internalType": "struct LibERC1155TransferConstraints.Expireable",
              "name": "expireable",
              "type": "tuple"
            },
            {
              "components": [
                {
                  "internalType": "uint24",
                  "name": "fee",
                  "type": "uint24"
                },
                {
                  "internalType": "bool",
                  "name": "isActive",
                  "type": "bool"
                }
              ],
              "internalType": "struct LibERC1155TransferConstraints.RoyaltyFee",
              "name": "royaltyFee",
              "type": "tuple"
            }
          ],
          "internalType": "struct LibERC1155TransferConstraints.Constraints",
          "name": "_constraints",
          "type": "tuple"
        }
      ],
      "name": "ticketCreate",
      "outputs": [],
      "stateMutability": "nonpayable",
      "type": "function"
    },
    {
      "inputs": [
        {
          "internalType": "uint256[]",
          "name": "_amount",
          "type": "uint256[]"
        },
        {
          "components": [
            {
              "internalType": "string",
              "name": "title",
              "type": "string"
            },
            {
              "internalType": "string",
              "name": "description",
              "type": "string"
            },
            {
              "internalType": "string",
              "name": "imageHash",
              "type": "string"
            }
          ],
          "internalType": "struct TicketCreate.TicketMeta[]",
          "name": "_ticketMeta",
          "type": "tuple[]"
        },
        {
          "components": [
            {
              "components": [
                {
                  "internalType": "uint256",
                  "name": "maxTransfers",
                  "type": "uint256"
                },
                {
                  "internalType": "bool",
                  "name": "isActive",
                  "type": "bool"
                }
              ],
              "internalType": "struct LibERC1155TransferConstraints.TransferLimit",
              "name": "transferLimit",
              "type": "tuple"
            },
            {
              "components": [
                {
                  "internalType": "uint32",
                  "name": "minimumLevel",
                  "type": "uint32"
                },
                {
                  "internalType": "bool",
                  "name": "isActive",
                  "type": "bool"
                }
              ],
              "internalType": "struct LibERC1155TransferConstraints.MemberLevelDependency",
              "name": "minimumMembershipLevel",
              "type": "tuple"
            },
            {
              "components": [
                {
                  "internalType": "uint32",
                  "name": "expireTime",
                  "type": "uint32"
                },
                {
                  "internalType": "bool",
                  "name": "isActive",
                  "type": "bool"
                }
              ],
              "internalType": "struct LibERC1155TransferConstraints.Expireable",
              "name": "expireable",
              "type": "tuple"
            },
            {
              "components": [
                {
                  "internalType": "uint24",
                  "name": "fee",
                  "type": "uint24"
                },
                {
                  "internalType": "bool",
                  "name": "isActive",
                  "type": "bool"
                }
              ],
              "internalType": "struct LibERC1155TransferConstraints.RoyaltyFee",
              "name": "royaltyFee",
              "type": "tuple"
            }
          ],
          "internalType": "struct LibERC1155TransferConstraints.Constraints[]",
          "name": "_constraints",
          "type": "tuple[]"
        }
      ],
      "name": "ticketCreateBatch",
      "outputs": [],
      "stateMutability": "nonpayable",
      "type": "function"
    }
  ],
  "transactionHash": "0xc5411034ad357f1a12a741f310c1672c8a6aded6580f9b46135ef7dab791f9b6",
  "args": [],
  "numDeployments": 1,
  "solcInputHash": "54a7063fbd1377e55e2032f74c4aa199",
  "bytecode": "0x6080604052348015600e575f5ffd5b5061101a8061001c5f395ff3fe608060405234801561000f575f5ffd5b506004361061003f575f3560e01c80632a827fa51461004357806345b5fd721461005857806353930ef51461006b575b5f5ffd5b610056610051366004610c67565b61007e565b005b610056610066366004610d55565b6100ed565b610056610079366004610d6c565b6101b8565b5f5b81518110156100e7576100df84828151811061009e5761009e610dc0565b60200260200101518483815181106100b8576100b8610dc0565b60200260200101518484815181106100d2576100d2610dc0565b60200260200101516101b8565b600101610080565b50505050565b5f8181527f7a8949a66712f1d1ae515adbd4b0835db540861dfc3638f5ebc928c2d0736d2660205260409020547f7a8949a66712f1d1ae515adbd4b0835db540861dfc3638f5ebc928c2d0736d249063ffffffff164281106101b35760405162461bcd60e51b815260206004820152603460248201527f457870697265643a20446561646c696e6520666f72207469636b657420636f6e60448201527339bab6b83a34b7b7103430b9903830b9b9b2b21760611b60648201526084015b60405180910390fd5b505050565b6101c061022e565b5f6101ca8261029f565b90506101ed6101d7610486565b828660405180602001604052805f815250610494565b7fc0d624564782b3ce0a9e225d9beb02c78ffc996dde3bb989385f98da06420e4181858560405161022093929190610e02565b60405180910390a150505050565b6102366105ec565b6001600160a01b0316610247610486565b6001600160a01b03161461029d5760405162461bcd60e51b815260206004820152601b60248201527f4d757374206265207468652045636f73797374656d206f776e6572000000000060448201526064016101aa565b565b5f807f7a8949a66712f1d1ae515adbd4b0835db540861dfc3638f5ebc928c2d0736d2490505f5f5f5f865f015160200151156102dc576002841893505b866020015160200151156102f1576004841893505b86604001516020015115610306576008841893505b8660600151602001511561031b576010841893505b6001600160801b038085165f908152600487016020526040902054169250610344836001610e82565b915061035d600160801b6001600160801b038616610ea7565b610370906001600160801b038516610ebe565b6001600160801b038581165f908152600488016020908152604090912080546fffffffffffffffffffffffffffffffff19169286169290921790915588510151909150156103ca578651515f828152602087905260409020555b8660200151602001511561040757602087810151515f838152600188019092526040909120805463ffffffff191663ffffffff9092169190911790555b8660400151602001511561044357604087810151515f8381526002880160205291909120805463ffffffff191663ffffffff9092169190911790555b8660400151602001511561047c576060870151515f8281526003870160205260409020805462ffffff191662ffffff9092169190911790555b9695505050505050565b5f61048f61061e565b905090565b6001600160a01b0384166104f45760405162461bcd60e51b815260206004820152602160248201527f455243313135353a206d696e7420746f20746865207a65726f206164647265736044820152607360f81b60648201526084016101aa565b7f6469616d6f6e642e73746f726167652e657263313135350000000000000000005f61051e610486565b90505f61052a86610671565b90505f61053686610671565b5f888152602086815260408083206001600160a01b038d16845290915281208054929350889290919061056a908490610ebe565b9250508190555085846003015f8282546105849190610ebe565b909155505060408051888152602081018890526001600160a01b03808b16925f92918716917fc3d58168c5ae7397731d063d5bbf3d657854427343f4c083240f7aacaa2d0f62910160405180910390a46105e2835f8a8a8a8a6106ba565b5050505050505050565b5f61048f7fd00049dc7109015045860694acecd3dc33338404aaf6e55a1c98a2bf41477b85546001600160a01b031690565b5f6014361080159061065957507f413a4c31c13c7c3de0c7da37be5d779b152baf3f21a1cb760fda41eb8ca97776546001600160a01b031633145b1561066b575060131936013560601c90565b50335b90565b6040805160018082528183019092526060915f91906020808301908036833701905050905082815f815181106106a9576106a9610dc0565b602090810291909101015292915050565b6001600160a01b0384163b15610867576001600160a01b03841630146108675760405163f23a6e6160e01b81526001600160a01b0385169063f23a6e619061070e9089908990889088908890600401610ed1565b6020604051808303815f875af1925050508015610748575060408051601f3d908101601f1916820190925261074591810190610f0a565b60015b6107f457610754610f38565b806308c379a00361078d5750610768610f50565b80610773575061078f565b8060405162461bcd60e51b81526004016101aa9190610fd2565b505b60405162461bcd60e51b815260206004820152603460248201527f455243313135353a207472616e7366657220746f206e6f6e2d455243313135356044820152732932b1b2b4bb32b91034b6b83632b6b2b73a32b960611b60648201526084016101aa565b6001600160e01b0319811663f23a6e6160e01b146108655760405162461bcd60e51b815260206004820152602860248201527f455243313135353a204552433131353552656365697665722072656a656374656044820152676420746f6b656e7360c01b60648201526084016101aa565b505b505050505050565b634e487b7160e01b5f52604160045260245ffd5b604081018181106001600160401b03821117156108a2576108a261086f565b60405250565b608081018181106001600160401b03821117156108a2576108a261086f565b601f8201601f191681016001600160401b03811182821017156108ec576108ec61086f565b6040525050565b5f6001600160401b0382111561090b5761090b61086f565b5060051b60200190565b5f82601f830112610924575f5ffd5b81356001600160401b0381111561093d5761093d61086f565b604051610954601f8301601f1916602001826108c7565b818152846020838601011115610968575f5ffd5b816020850160208301375f918101602001919091529392505050565b5f60608284031215610994575f5ffd5b604051606081018181106001600160401b03821117156109b6576109b661086f565b60405290508082356001600160401b038111156109d1575f5ffd5b6109dd85828601610915565b82525060208301356001600160401b038111156109f8575f5ffd5b610a0485828601610915565b60208301525060408301356001600160401b03811115610a22575f5ffd5b610a2e85828601610915565b6040830152505092915050565b5f82601f830112610a4a575f5ffd5b8135610a55816108f3565b604051610a6282826108c7565b80915082815260208101915060208360051b860101925085831115610a85575f5ffd5b602085015b83811015610ac55780356001600160401b03811115610aa7575f5ffd5b610ab6886020838a0101610984565b84525060209283019201610a8a565b5095945050505050565b80358015158114610ade575f5ffd5b919050565b5f60408284031215610af3575f5ffd5b604051610aff81610883565b809150823563ffffffff81168114610b15575f5ffd5b8152610b2360208401610acf565b60208201525092915050565b5f818303610100811215610b41575f5ffd5b604051610b4d816108a8565b8092506040821215610b5d575f5ffd5b604051610b6981610883565b84358152610b7960208601610acf565b60208201528152610b8d8560408601610ae3565b6020820152610b9f8560808601610ae3565b6040820152604060bf1983011215610bb5575f5ffd5b6040519150610bc382610883565b60c084013562ffffff81168114610bd8575f5ffd5b8252610be660e08501610acf565b60208301526060015292915050565b5f82601f830112610c04575f5ffd5b8135610c0f816108f3565b604051610c1c82826108c7565b80915082815260208101915060208360081b860101925085831115610c3f575f5ffd5b602085015b83811015610ac557610c568782610b2f565b835260209092019161010001610c44565b5f5f5f60608486031215610c79575f5ffd5b83356001600160401b03811115610c8e575f5ffd5b8401601f81018613610c9e575f5ffd5b8035610ca9816108f3565b604051610cb682826108c7565b80915082815260208101915060208360051b850101925088831115610cd9575f5ffd5b6020840193505b82841015610cfb578335825260209384019390910190610ce0565b955050505060208401356001600160401b03811115610d18575f5ffd5b610d2486828701610a3b565b92505060408401356001600160401b03811115610d3f575f5ffd5b610d4b86828701610bf5565b9150509250925092565b5f60208284031215610d65575f5ffd5b5035919050565b5f5f5f6101408486031215610d7f575f5ffd5b8335925060208401356001600160401b03811115610d9b575f5ffd5b610da786828701610984565b925050610db78560408601610b2f565b90509250925092565b634e487b7160e01b5f52603260045260245ffd5b5f81518084528060208401602086015e5f602082860101526020601f19601f83011685010191505092915050565b838152826020820152606060408201525f8251606080840152610e2860c0840182610dd4565b90506020840151605f19848303016080850152610e458282610dd4565b9150506040840151605f198483030160a0850152610e638282610dd4565b979650505050505050565b634e487b7160e01b5f52601160045260245ffd5b6001600160801b038181168382160190811115610ea157610ea1610e6e565b92915050565b8082028115828204841417610ea157610ea1610e6e565b80820180821115610ea157610ea1610e6e565b6001600160a01b03868116825285166020820152604081018490526060810183905260a0608082018190525f90610e6390830184610dd4565b5f60208284031215610f1a575f5ffd5b81516001600160e01b031981168114610f31575f5ffd5b9392505050565b5f60033d111561066e5760045f5f3e505f5160e01c90565b5f60443d1015610f5d5790565b6040513d600319016004823e80513d60248201116001600160401b0382111715610f8657505090565b80820180516001600160401b03811115610fa1575050505090565b3d8401600319018282016020011115610fbb575050505090565b610fca602082850101856108c7565b509392505050565b602081525f610f316020830184610dd456fea2646970667358221220723f2d3220e596f516eae65f1f47d9b62f79b8fe0505a47e7e028f3cc4ed6a9664736f6c634300081c0033",
  "devdoc": {
    "events": {
      "TransferBatch(address,address,address,uint256[],uint256[])": {
        "details": "Equivalent to multiple {TransferSingle} events, where `operator`, `from` and `to` are the same for all transfers."
      },
      "TransferSingle(address,address,address,uint256,uint256)": {
        "details": "Emitted when `value` tokens of token type `id` are transferred from `from` to `to` by `operator`."
      }
    },
    "kind": "dev",
    "methods": {},
    "version": 1
  },
  "userdoc": {
    "kind": "user",
    "methods": {
      "ticketCreateBatch(uint256[],(string,string,string)[],((uint256,bool),(uint32,bool),(uint32,bool),(uint24,bool))[])": {
        "notice": "Owner verification at ticketCreate"
      }
    },
    "version": 1
  },
  "storageLayout": {
    "storage": [],
    "types": null
  }
}